:020000040800F2
:1000000098060024E1020008F5330008C531000815
:1000100091330008190400080D4200080000000098
:100020000000000000000000000000000938000887
:100030001B04000800000000C5350008C138000896
:10004000FF020008FF020008FF020008FF0200088C
:10005000FF020008FF020008FF020008FF0200087C
:10006000FF020008FF020008FF020008FF0200086C
:10007000FF020008FF020008FF020008FF0200085C
:10008000FF020008FF020008FF0200083D0400080C
:10009000FF020008FF020008FF020008FF0200083C
:1000A000FF020008FF020008FF020008FF0200082C
:1000B000353A0008FF020008FF020008FF020008AE
:1000C000FF020008FF020008FF020008FF0200080C
:1000D000FF020008FF020008FF020008FF020008FC
:1000E000FF020008FF02000800000000FF020008F5
:1000F000FF020008FF020008FF020008FF020008DC
:10010000FF020008FF020008FF020008FF020008CB
:10011000FF020008FF020008FF020008FF020008BB
:10012000FF020008FF020008FF020008FF020008AB
:10013000FF020008FF020008FF020008FF0200089B
:1001400000000000000000000000000000000000AF
:10015000FF020008FF020008FF020008FF0200087B
:10016000FF020008FF020008FF020008FF0200086B
:10017000FF020008FF020008FF0200080000000064
:10018000FF020008FF020008FF020008FF0200084B
:10019000FF020008FF020008FF020008FF0200083B
:1001A000FF020008FF020008FF0200080000000034
:1001B000FF020008FF020008FF020008FF0200081B
:1001C000FF020008FF02000800000000000000001D
:1001D0000000000000000000FF0200080000000016
:1001E000000000000000000000000000000000000F
:1001F0000000000000000000FF020008FF020008ED
:10020000FF020008FF02000800000000FF020008D3
:10021000FF020008FF020008FF020008FF020008BA
:10022000FF02000800000000FF02000800000000BC
:10023000FF020008FF02000800000000FF020008A3
:10024000FF020008FF020008FF020008FF0200088A
:10025000FF020008FF020008FF020008FF0200087A
:10026000FF020008FF020008FF020008FF0200086A
:10027000FF020008FF020008FF0200080000000063
:10028000FF020008FF020008FF020008FF0200084A
:1002900000000000FF020008FF020008000000004C
:1002A00000000000FF020008FF020008FF02000833
:1002B000FF020008FF020008FF020008FF0200081A
:1002C000FF020008FF020008FF020008DFF80CD060
:1002D00000F090F800480047DD420008980600242E
:1002E000074880470748804707480047FEE7FEE782
:1002F000FEE7FEE7FEE7FEE7FEE7FEE7FEE7FEE7D6
:10030000210400085D390008CD0200082DE9F05FE6
:100310000546002092469B46884606468146402474
:100320001BE0284641464746224600F053F8534614
:100330005A46C01A914110D311461846224600F081
:100340003AF82D1A67EB01084F462246012000219A
:1003500000F031F817EB00094E41201EA4F1010412
:10036000DFDC484631462A464346BDE8F09F40EA76
:1003700001039B0703D009E008C9121F08C0042A23
:10038000FAD203E011F8013B00F8013B521EF9D20A
:100390007047D2B201E000F8012B491EFBD2704732
:1003A0000022F6E710B513460A4604461946FFF741
:1003B000F0FF204610BD202A04DB203A00FA02F1AB
:1003C000002070479140C2F1200320FA03F3194343
:1003D00090407047202A04DB203A21FA02F00021E5
:1003E000704721FA02F3D040C2F120029140084345
:1003F00019467047064C074D06E0E06840F00103DF
:1004000094E8070098471034AC42F6D3FFF762FF38
:100410005844000878440008FEE7704772B6FEE7CB
:10042000054805490839026842F00202026008687E
:100430008004FCD5704700000C480258014800F0C9
:100440001FBB0000DC000024F0B503684FF6FC7110
:100450006D4C426BD3F884508D4345EA8205C3F856
:100460008450036853F8845F068F25F47F0545EABE
:1004700006451D60836B654D9F180268D2F8883071
:100480008B4343EA8703C2F88830026852F8883FFA
:10049000868F23F4FE0343EA06431360066856F88A
:1004A000A03FC26B8B4307EB420243EA82033360F7
:1004B000076857F8A03FB0F8406023F4FE0343EA12
:1004C00006433B60D0E9103603FB06220368D3F8ED
:1004D000B0608E4346EA8206C3F8B0600368B0F8A5
:1004E0004860D3F8B07027F4FE0747EA0646C3F821
:1004F000B060D0E91267036806FB0722D3F8AC604E
:100500008E4346EA8206C3F8AC60D0E914670368FC
:1005100006FB0722D3F8F0608E4346EA8206C3F852
:10052000F0600368B0F85860D3F8F07027F47C17D7
:1005300047EA0646C3F8F0600368876D53F8C06F5A
:1005400002EB47028E4346EA820119600168B0F867
:100550005C20D1F8C03023F47C1343EA0242C1F896
:10056000C020016890F86020D1F8C03023F07C539F
:1005700043EA0262C1F8C020416B04EB8101C1660D
:10058000826B01EB82020267C36B02EBC30242671C
:10059000D0E91034634302EB83028267D0E912345E
:1005A000634302EB8302C267D0E91434634302EB76
:1005B0008302C0F88020836D02EBC303C0F884304F
:1005C000C46D826E544303EB8403C0F88830046E1C
:1005D000544303EB8402C0F89020AA420AD9D0F811
:1005E0009C20032142F02002C0F89C2080F8981043
:1005F0000120F0BD002200E004C1D0F890308B4211
:10060000FAD80020F0BD000000AC0040FCD3004050
:10061000F0B58E680C69D1E9005744EA0604DFB1F1
:1006200045F080452C43866ED1E906C54F695E438F
:1006300091F8203045EA0C05B1F80CC0D0F884E000
:10064000002047EA03630C4F1D430EEB860345EA87
:100650000C45E3E802450AE044EA8544E3E7141860
:10066000155C001DD4F8014045EA042410C3CC6891
:100670003C5D8442F3D8F0BDC44300080548002225
:10068000012110B500F062F8BDE81040014800F00B
:1006900014BD0000DC00002430B500230C4689B0F6
:1006A0000B4D0821CDE90003CDE9023104930593F8
:1006B00006930793089302E02868401C28600548C9
:1006C0002246694600F086F80028F5D109B030BD11
:1006D00034000024DC00002410B5D1ED070A0446E4
:1006E000B0F801000B46102140BAB1EE600A03F0E9
:1006F00054FE83ED000AE078217993ED080A0001A9
:1007000040EA11100C2103F033FE83ED010AA088AA
:100710000C2193ED090A40BAC0F30B0003F028FE48
:1007200083ED020A10BD000070B5044600F0F6FD2E
:100730000546601C02D004480078044400F0EEFD39
:10074000401BA042FAD370BD3800002410B590F8C9
:100750009830012B09D0022B07D0D0F89C1041F023
:100760000201C0F89C10012010BD03689C6D0C4272
:1007700003D1DC6D44F0010404E09C6D31EA040413
:100780001FD00324DC658B0505D50368D3F8E04052
:100790001443C3F8E0404B0505D50368D3F8E440A3
:1007A0001443C3F8E4400068084A01EA0203446DB8
:1007B000074A1C434465106840EA917010600020AD
:1007C00010BDDC6D44F00204DCE70000FFFFCF3F0A
:1007D00014A8004070B5044690F89800022804D090
:1007E000D4F89C0040F008000DE02068D0F8C0303C
:1007F00013F07C5F0BD0D0F8C4309B020CD5D4F83A
:100800009C0040F40070C4F89C00012070BDD4F836
:100810009C0040F02000F6E7D0F8C400C0F3044587
:1008200020462B46FFF7F4FE21680120A840C1F8BE
:10083000D000C4F89400002070BD704770B590F8E7
:100840009820012A09D0022A07D0D0F89C1041F044
:100850000201C0F89C10012070BD0B68CA6883B10A
:100860000B69072A43EA427325D00C7A4A6942EAA7
:1008700084724968006F00EBC100C0E900320020BB
:1008800070BD072A0DD00C7AD6060D8A4B6943EA53
:10089000847246EA0543C06E49681A4340F8212035
:1008A000EDE70B8A4FF06055D1E9062442EA034296
:1008B00045EA0423EFE78A69DBE730B590F8985002
:1008C000039C012D07D0D0F89C1041F00401C0F822
:1008D0009C10012030BD0D01016845EA820040EA0C
:1008E00043002043C1F88000002030BD70477047AE
:1008F000F0B590F898500024022D04D0D0F89C1048
:1009000041F0080129E0402905D0412929D0056D91
:100910008D4219D942E00568D5F8A06016F4FE0FA3
:1009200012D0D5F8A460760613D0D5F8A460F601ED
:1009300005D5D5F8A06016F0004F00D50124D5F8F4
:10094000A470466F456C24E0D0F89C1041F0200163
:1009500003E0D0F89C1041F48071C0F89C10012095
:10096000F0BD0568D5F8B06016F4FE0FECD0D5F8F0
:10097000B4607606EDD0D5F8B460F60105D5D5F8AB
:10098000B06016F0004F00D50124D5F8B470866F22
:10099000C56CC7F305273C44654302E0456DC66F4F
:1009A0004D4306EB85052E6816F0804656602E688E
:1009B00036D026F060461660D5F800C000262E4FCF
:1009C0000CF0005CC2F808C0D5F800C00CF0004C78
:1009D000C2F810C0B5F804C01FFA8CFCC2F81CC0E5
:1009E000D5F804C0CCF3034CC2F80CC0D5F804C051
:1009F0000CF4801CC2F814C0D5F804C00CF4001C20
:100A0000C2F818C0D5F804C0CCF3066CC2F820C0F8
:100A1000D5F804C008354FEADC7CC2F824C008E0F1
:100A2000C6F38A46C7E700BF15F806C003F806C03C
:100A3000761CD2F80CC017F80CC0B445F4D8402985
:100A40000AD041290CD020294FF001020CD20068B5
:100A50008A40C0F898200DE00068C0F8A84009E07E
:100A60000068C0F8B84005E0006801F01F018A4046
:100A7000C0F89C200020F0BDC4430008704700006F
:100A80002DE9FF5FDFF80CB304460BF10401DBF83E
:100A9000000025680F68AA468007D5F85090696D58
:100AA000D5F850806E6D2A6DD5F854C02B6D00EAD4
:100AB0008770009009F470496F6D286D01EA090193
:100AC0000191DAF85410DAF85490DAF8505008F03E
:100AD0000F0806EA0806029602F0F00203F07153CE
:100AE0006FEA09061F4000F060700CEA020CCDF8B6
:100AF0000CC0F20501EA00090CD4E843C00509D492
:100B000000214FF48073CAF85030CBF80010204613
:100B1000FFF7B4FF700512D4E84340050FD42068F6
:100B200000234FF48068D0F8DC20D0F8E410C0F83F
:100B30005080CBF800301140204600F0DDFADFF89D
:100B400058A2009850B12268830F00EA0A0010658D
:100B5000CBF8003020460099FFF76FFE019850B1A6
:100B60002268830F00EA0A001065CBF800302046A7
:100B7000019900F0C3FA029850B12268830F00EA8D
:100B80000A001065CBF800302046029900F078FA90
:100B9000039850B12268830F00EA0A001065CBF871
:100BA00000302046039900F087FA30050CD4E84362
:100BB000000509D4236800204FF400621A65CBF8C1
:100BC0000000204600F09BFAB00512D4E8438005EF
:100BD0000FD4206800234FF40078D0F8D820D0F844
:100BE000E010C0F85080CBF800301140204600F0F3
:100BF00084FA30030CD4E843000309D423680020AE
:100C00004FF400221A65CBF80000204600F036FAB7
:100C1000F0030CD4E843C00309D4236800204FF448
:100C200080321A65CBF80000204600F064FA7003A9
:100C30000CD4E843400309D4226800204FF48023F9
:100C40001365CBF80000204600F054FAB0030FD42F
:100C5000E84380030CD4236800204FF400321A6567
:100C6000CBF80000D4F89C0040F08000C4F89C0051
:100C7000B9F1000F0BD022684FEA997309EA0A0014
:100C80001065CBF8003049462046FFF730FE5FB1D3
:100C90002268BB0F07EA0A001065CBF80030D4F8D1
:100CA0009C003843C4F89C003C492068884268D1C5
:100CB000606881468068800763D0D9F82060D9F8E1
:100CC0002410D9F82080D9F82400D9F820C0D9F808
:100CD0002470D9F82030D9F82450D9F8202003F412
:100CE000FC4306F00F0AD9F824601D40D9F824B05F
:100CF00008F030080CF4C07C02F4F02211EA0A017A
:100D000000EA080807EA0C0706EA0206D9F820A05C
:100D100004D0C9F82010204600F0E9F9B8F100002D
:100D200005D0616808624146204600F0E2F96FEAAA
:100D30000B0040060ED46FEA0A0040060AD4606831
:100D40004021C36BC26B01622046190C02F03F02C6
:100D500000F0CEF92FB1606807623946204600F0F6
:100D6000C5F935B160680562D4F89C002843C4F821
:100D70009C0036B160680662D4F89C003043C4F829
:100D80009C00D4F89C00002802D02046FFF7AEFD5E
:100D9000BDE8FF9F10A80040FFFFCF3F00A000402C
:100DA0002DE9F04194B08D494C2204466846FFF786
:100DB000DEFA64B18A4D2068A84202D100F5807045
:100DC000606094F898004FF0000820B108E001201E
:100DD00014B0BDE8F081204684F8998000F002F953
:100DE0002068816921F01001816100F097FA0327E2
:100DF000064604E000F092FA801B0A2811D8206809
:100E000080690007F6D42068816941F001018161A1
:100E100000F084FA06460DE000F080FA801B0A28F4
:100E200008D9D4F89C0040F00100C4F89C0084F874
:100E30009870CCE720688069C007EDD02068816990
:100E400041F002018161207C01282068816937D04E
:100E500041F040018161607C01282068816932D0C5
:100E600021F480418161A07C0128206881692DD016
:100E700041F4805181612068A268816921F4407148
:100E8000114381612068816921F0A401816120689A
:100E9000016921F010010161E068012819D010B347
:100EA00002281BD02068816941F08001816120689F
:100EB000016941F010010161E06803280ED012E0E1
:100EC00021F04001C6E741F48041CBE721F4805195
:100ED000D0E72068816941F0040103E0206881695E
:100EE00041F020018161207E6FF0FF02D4E9077399
:100EF000A68A1102400602EB0727A0F100703843D2
:100F000027685B1E184301EB06463043F861A06872
:100F1000B0F5407F11D104F12800A68C6FF00F0CC2
:100F200089C801EB0641401E02EB032210432268F0
:100F30000CEB071318430843D060206E30B12068D3
:100F4000626ED0F8C0101143C0F8C010D4E9171277
:100F50006846D14209D02168A36E51F8C82F50F8D5
:100F6000233022F007021A430A60216C49B121683C
:100F7000626C51F8BC3F50F8226023F00702324304
:100F80000A60A16C51B12168E36C51F8BC2F50F894
:100F9000233022F0700242EA03120A60216D51B13F
:100FA0002168626D51F8BC3F50F8220023F4E062E2
:100FB00042EA002008602068A84204D16068816885
:100FC00021F003018160C4F894800121C4F89C8061
:100FD00084F898102046FFF737FAF9E6D443000862
:100FE00000A0004010B5B4B0044614212EA8FFF7AD
:100FF000D7F9B8216846FFF7D3F91D492068884220
:1010000034D100204FF40041CDE900104A03684676
:101010001B9200F0FBFB08B1FFF700FA15480168CE
:1010200041F480710160006800F4807033901148D1
:101030000C38016841F008010160006809230321B0
:1010400000F00800339000202E9102222EA9CDE955
:101050002F20CDE93103084800F052F80022132078
:10106000114600F021FA132000F010FA34B010BD40
:1010700000A00040EC440258000C025870470000E9
:1010800010B58AB0094B0A4840216A46FFF730FC88
:1010900000B9009C074890F83800A04203D10549E8
:1010A0000248FFF719FB0AB010BD0000140000242D
:1010B000DC0000245C020024704790F8981001299D
:1010C00007D0D0F89C1041F00401C0F89C1001201A
:1010D0007047022180F89810002201688B6923F084
:1010E00001038B61C0F89C20104670477047704721
:1010F0007047704770477047704770477047704738
:101100002DE9F84F03247A4D00234FF001094FF0E9
:10111000B04B4FF00F0AE4E009FA03F6324078D002
:101120000F7907F00307012F01D0022F1AD187682A
:101130004FEA430ED1F80CC004FA0EF827EA08076C
:101140000CFA0EFC4CEA070CC0F808C0476891F88E
:1011500004C0B743CCF3001C0CFA03FC4CEA070CA8
:10116000C0F804C00E79F643B6070BD0C6684FEA44
:1011700043088F6804FA08FC26EA0C0607FA08F709
:101180003743C7600E7906F00306022E12D1DE083F
:101190000F694FEA437C00EB8606B646366A4FEA93
:1011A000DC6C0AFA0CF807FA0CF726EA0806374353
:1011B000CEF820700F7906684FEA430807F003075E
:1011C00004FA08FC07FA08F726EA0C06374307601A
:1011D0004E6816F4403F1CD0464E376847F0020771
:1011E000376036689F0706F00206009623F0030674
:1011F00006F1B046B6463F0FD6F80864DFF8F8802F
:101200000AFA07FC404526EA0C0603D14FF0000C11
:101210003AE065E0DFF8E4C0604502D14FF0010C30
:1012200032E0DFF8DCC0604502D14FF0020C2BE069
:10123000DFF8D0C0604502D14FF0030C24E0DFF8A6
:10124000C8C0604502D14FF0040C1DE0DFF8BCC0FF
:10125000604502D14FF0050C16E0DFF8B4C06045E0
:1012600002D14FF0060C0FE0DFF8A8C0604502D1B4
:101270004FF0070C08E0DFF8A0C0604502D14FF046
:10128000090C01E04FF00A0C0CFA07FC4CEA060CC2
:10129000CEF808C44F68DBF80060FF0226EA0206B9
:1012A00000D516435F46CBF80060D1F804C0DBF8E8
:1012B00004605FEA8C2C26EA020600D516437E60A5
:1012C0006E684F6826EA0206BF0300D516436E60BB
:1012D0002E684F6826EA0206FF0300D516432E60EB
:1012E0005B1C0A6832FA03F67FF416AFBDE8F88F8C
:1012F00080000058F44402580000025800040258CC
:1013000000080258000C025800100258001402583D
:1013100000180258001C0258002402580148806836
:1013200070470000380000240248816802781144A8
:101330008160704738000024032010B500F0D4F815
:1013400001F076F80F4A104914681368C4F30322B9
:1013500003F00F038A5CC95C02F01F0201F01F0159
:10136000D0400A4A20FA01F11160094908600F20B3
:1013700000F010F808B1012010BD00F079F800204D
:1013800010BD0000184402584844000848000024DA
:101390004400002470B50D4D04462878A0B14FF4E8
:1013A0007A71B1FBF0F00A490968B1FBF0F001F085
:1013B0006EFB48B9102C07D200222146501E00F0C7
:1013C00073F800206C6070BD012070BD38000024EF
:1013D00044000024154BF0B5083B427813491A60CD
:1013E0000B680A1F23F001030B6043681360057B41
:1013F000C67A827A437B2D07847B45EA0665C77BE4
:1014000090F809C0067A90F800E045EAC24040EA48
:10141000834040EA444040EA074040EA0C2040EA6A
:10142000460040EA0E000860F0BD0000A0ED00E0BC
:10143000BFF35F8F044800210368034A23F480331D
:10144000036070321160704724ED00E0074A40F0FD
:101450000100064970321060086840F4803008606E
:10146000BFF34F8FBFF36F8F7047000024ED00E094
:10147000054808B5016841F002010160006800F00C
:101480000200009008BD0000F4440258002809DB67
:10149000410900F01F028900012001F1E021904084
:1014A000C1F80001704700000E4BF0B41B680D46F8
:1014B000C3F30223C3F10706042E00D90426191D25
:1014C000072901D2002300E0DB1E012404FA06F103
:1014D0009C40491E2940641E994014402143F0BCA1
:1014E00002F095BE0CED00E0064900F0070210B5D1
:1014F0004FF6FF040868044B204040EA02201843DE
:10150000086010BD0CED00E00000FA05134970B54D
:101510000A68D243520705D5096801F007018142E4
:1015200013D118E00A6822F0070202430A60FFF7AD
:10153000F5FE0A4D4FF47A760446083D07E000BFF9
:10154000FFF7ECFE001BB04201D9012070BD2868F6
:10155000C0438004F4D4002070BD00000C48025841
:1015600010B500F01FFF05490968054AC1F30211D3
:10157000515C01F01F01C84010BD0000204402581A
:1015800048440008494930B5484C0B1D0A681434DA
:1015900009681D68246802F00303C5F30012C1F353
:1015A0000531C4F3CC04002914FB02F200EE102A2A
:1015B000F8EE400A75D03F4A9FED3D1AB7EE000A9B
:1015C0006BB1DFED3D1A012B01D0022B64D002EE8E
:1015D000101A1168F8EE422A81EEA22A21E0334C5B
:1015E000283C23689B0612D5344B246801EE901AE0
:1015F0001168C4F3C104F8EE612AE34001EE903AA9
:10160000C1F30801F8EE611A81EEA22A0BE001EEA7
:10161000901ADFED2B2A00BFF8EE611A116882EEF6
:10162000A12AC1F3080101EE901A1168F8EE611ABF
:1016300040EE811A71EE800A62EE200AC1F3462163
:1016400001EE101AB8EE411A31EE001AC0EE811AFE
:10165000BCEEE11A80ED001A1168C1F3064101EEFB
:10166000101AB8EE411A31EE001AC0EE811ABCEE23
:10167000E11A80ED011A1168C1F3066101EE101A3A
:10168000B8EE411A31EE000A80EE801ABCEEC10AB3
:1016900080ED020A30BD04E001EE901ADFED092A68
:1016A000BAE70021016041608160F3E728440258F5
:1016B00000000039384402580024744A0090D003D6
:1016C0000024744C001BB74B494930B5484C0B1DE6
:1016D0000A681C3409681D68246802F00303C5F316
:1016E0000022C1F30551C4F3CC04002914FB02F21B
:1016F00000EE102AF8EE400A75D03F4A9FED3D1AE1
:10170000B7EE000A6BB1DFED3D1A012B01D0022BC1
:1017100064D002EE101A1168F8EE422A81EEA22A75
:1017200021E0334C283C23689B0612D5344B2468B7
:1017300001EE901A1168C4F3C104F8EE612AE34087
:1017400001EE903AC1F30801F8EE611A81EEA22A87
:101750000BE001EE901ADFED2B2A00BFF8EE611AC4
:10176000116882EEA12AC1F3080101EE901A1168F6
:10177000F8EE611A40EE811A71EE800A62EE200ADC
:10178000C1F3462101EE101AB8EE411A31EE001AEB
:10179000C0EE811ABCEEE11A80ED001A1168C1F3A7
:1017A000064101EE101AB8EE411A31EE001AC0EEF1
:1017B000811ABCEEE11A80ED011A1168C1F30661CD
:1017C00001EE101AB8EE411A31EE000A80EE801ACE
:1017D000BCEEC10A80ED020A30BD04E001EE901AB1
:1017E000DFED092ABAE70021016041608160F3E77B
:1017F0002844025800000039404402580024744A2A
:101800000090D0030024744C001BB74B2DE9FE4F11
:101810000546DFF800A450F8081B0024FD4FC9431B
:10182000019005F1280026460AF1240A00900801DB
:101830001DD4686E50B1B0F5801F0CD0B0F5001FFC
:101840000ED0B0F5401F1ED001240FE0386840F4E0
:101850000030386017E00198022101F0B5FE03E086
:101860000098022101F040FF04000CD02646288891
:10187000C043C00523D4A86D05281ED2DFE800F0C0
:101880000C11161B1B006A6EDAF8001021F44011CF
:101890001143CAF80010EAE7386840F400303860B5
:1018A00009E00198002101F08FFE03E0009800217B
:1018B00001F01AFF0446C4B100E00124264628883E
:1018C000DFF85083C04308F12C0840052FD4D5F829
:1018D000A400B0F5C00F28D010DCB8B1B0F5001FDF
:1018E00019D0B0F5800F0FD11AE0AA6DDAF8001008
:1018F00021F007011143CAF80010E0E7B0F5000F2E
:1019000013D0B0F5200F10D001240FE0386840F458
:101910000030386009E00198002101F055FE03E035
:101920000098002101F0E0FE044694B12646288884
:10193000C043000530D4D5F8A800B0F1407F29D0CD
:1019400011DCC0B1B0F1807F1AD0B0F1007F10D1AE
:101950001BE0D5F8A420D8F8001021F46001114351
:10196000C8F80010E3E7B0F1806F13D0B0F1A06FBA
:1019700010D001240FE0386840F40030386009E0EE
:101980000198002101F020FE03E00098002101F001
:10199000ABFE044694B126462868DFF878B2C0430F
:1019A0000BF1200B80011FD4E86CD8B110280FD0A8
:1019B000202812D0302815D0012414E0D5F8A82012
:1019C000D8F8001021F0E0611143C8F80010E3E7F7
:1019D000386840F40030386004E00198022101F0DA
:1019E000F3FD044674B126462888C043C0042BD4B6
:1019F000E86DB0F5005F20D00DDCA0B1B0F5805FE0
:101A00000FD115E0EA6CDBF8001021F03001114332
:101A1000CBF80010E8E7B0F5405F13D0B0F5804F89
:101A200010D001240FE0386840F40030386009E03D
:101A30000198002101F0C8FD03E00098002101F0A9
:101A400053FE04468CB126462888C043800429D41E
:101A5000286EB0F5403F23D010DC08B3B0F5803FCE
:101A600014D0B0F5003F0FD115E0EA6DDAF80010A0
:101A700021F4E0411143CAF80010E5E7B0F5802FEA
:101A80000ED0B0F5A02F0BD001240AE0019801215F
:101A900001F09AFD03E00098012101F025FE0446C3
:101AA00094B126462888C04340042AD4D5F8AC0017
:101AB000B0F1405F23D010DC08B3B0F1805F14D0E8
:101AC000B0F1005F0FD115E02A6EDAF8001021F4B2
:101AD000E0211143CAF80010E4E7B0F1804F0ED0C6
:101AE000B0F1A04F0BD001240AE00198012101F0D0
:101AF0006BFD03E00098012101F0F6FD044674B18E
:101B000026462888C04300041FD4E86ED8B1B0F13F
:101B1000805F0ED0B0F1005F10D0012414E0D5F842
:101B2000AC20D8F8001021F0E0411143C8F80010B3
:101B3000E7E7386840F40030386004E0019801219C
:101B400001F042FD044674B126462868C043C00136
:101B50001ED4A86CD0B101280ED0022811D00328C1
:101B600014D0012413E0EA6EDAF8001021F040519D
:101B70001143CAF80010E8E7386840F400303860D4
:101B800004E00198022101F01FFD04466CB12646D5
:101B90002868C043400255D41F48016841F4807151
:101BA0000160FFF7BBFB81460EE0AA6CDBF800107A
:101BB00021F003011143CBF80010E9E7FFF7AEFB7A
:101BC000A0EB090064283BD813480068C005F5D590
:101BD000BCBBDFF84090B5F8B01009F14409D9F862
:101BE000000001F4407100F44070884211D0D9F82F
:101BF0000010D9F8002021F4407142F48032C9F875
:101C00000020D9F8002022F48032C9F80020C9F859
:101C1000001003E02C44025800480258D5F8B000E8
:101C2000B0F5807F19D1FFF779FB029011E000BF7A
:101C3000FFF774FB0299411A41F28830814208D9BA
:101C4000032426462878DFF81494C043C00721D027
:101C50003CE0D9F800008007EAD5D5F8B010C1F310
:101C600001200328FE480DD0016821F47C51016059
:101C7000B5F8B020D9F80010C2F30B021143C9F82F
:101C80000010DFE7F74A036802EA111223F47C51DF
:101C90001143ECE7A86F182816D005DCA0B108287E
:101CA00008D0102804D10AE020280DD028280BD015
:101CB00001240AE00198012101F086FC03E000986C
:101CC000012101F011FD044664B126462878C04385
:101CD00080071ED4686F062819D2DFE800F0160CC2
:101CE00011161616AA6FD9F8001021F03801114309
:101CF000C9F80010EAE70198012101F065FC03E052
:101D00000098012101F0F0FC04467CB100E00124C0
:101D100026462878C04340071FD4D5F890000628EF
:101D200019D2DFE800F0160C111616166A6FD9F8F2
:101D3000001021F007011143C9F80010E9E70198EC
:101D4000012101F041FC03E00098012101F0CCFCED
:101D50000446A4B100E0012426462878C04380064A
:101D60002BD4D5F88C00B0F1405F24D011DC10B337
:101D7000B0F1805F15D0B0F1005F10D116E0D5F85A
:101D80009020D8F8001021F007011143C8F8001086
:101D9000E3E7B0F1804F0ED0B0F1A04F0BD001249B
:101DA0000AE00198002101F00FFC03E000980221F5
:101DB00001F09AFC044694B126462878C0434006B8
:101DC0002BD4D5F89800B0F5406F24D011DC10B3B7
:101DD000B0F5806F15D0B0F5006F10D116E0D5F8D2
:101DE0008C20D9F8001021F0E0411143C9F800100F
:101DF000E3E7B0F5805F0ED0B0F5A05F0BD0012413
:101E00000AE00198002101F0DFFB03E000980221C5
:101E100001F06AFC044694B126462878C0430006C7
:101E20002BD4D5F89C00B0F5C04F24D011DC10B3F2
:101E3000B0F5005F15D0B0F5804F10D116E0D5F8A1
:101E40009820D8F8001021F4E0511143C8F8001090
:101E5000E3E7B0F5004F0ED0B0F5204F0BD00124D2
:101E60000AE00198002101F0AFFB03E00098022195
:101E700001F03AFC044654B126462878C0430007D6
:101E80001ED4D5F88000B0F5805F0AD00FE0D5F8F9
:101E90009C20D8F8001021F460411143C8F80010CC
:101EA000EBE70098022101F01FFC00B10126D5F8F4
:101EB0008020D9F8001021F440511143C9F80010D6
:101EC0002878C043C00613D4D5F89400B0F5807FBD
:101ED00005D10098022101F007FC00B10126D5F8D8
:101EE0009420D8F8001021F440711143C8F8001074
:101EF0002868C043000316D4D5F8A00038B1B0F567
:101F0000803F09D0B0F5003F0BD001240AE00198D2
:101F1000002101F059FB03E00098022101F0E4FBED
:101F200004468CB126462868C043400322D4D5F825
:101F30008400B0F5801F11D0B0F5001F13D0B0F5AC
:101F4000401F15D0012414E0D5F8A020D8F80010C7
:101F500021F440311143C8F80010E4E7386840F438
:101F60000030386004E00098012101F0BDFB044618
:101F70005CB126462868C043C0031CD4286D70B1EC
:101F8000B0F5803F10D0012414E0D5F88420D9F8B2
:101F9000001021F440111143C9F80010EAE7386835
:101FA00040F40030386004E00198022101F00CFB9D
:101FB0000446DCB126462868C043800005D400985A
:101FC000022101F091FB00B101262868C043800383
:101FD0001BD4E86FB8B1B0F5807F10D0B0F5007FAA
:101FE00011D0B0F5407F0ED001240DE02A6DDBF852
:101FF000001021F480311143CBF80010DBE7386882
:1020000040F4003038607CB326462868C043C002E4
:1020100007D42A6FDAF8001021F000411143CAF802
:1020200000102868C043800207D4AA6EDAF80010B6
:1020300021F080711143CAF800102868C0434000A5
:1020400009D40748016821F4004101600168D5F80E
:10205000B420114301602868C04306E0544402588C
:1020600010440258CFFFFF001DE007D46A6DDBF873
:10207000001021F040511143CBF800102868C043F4
:10208000000208D4D5F88820D9F8001021F44001C6
:102090001143C9F8001028790024C04300F0010062
:1020A000204309D00EE0EA6FD9F8001021F4407106
:1020B0001143C9F80010A8E70198002101F084FA43
:1020C00000B106462879C04300F00200204305D144
:1020D0000198012101F078FA00B106462879C04341
:1020E00000F00400204305D10198022101F06CFAB0
:1020F00000B106462879C04300F00800204305D10E
:102100000098002101F0F0FA00B106462879C0439A
:1021100000F01000204305D10098012101F0E4FAFD
:1021200000B106462879C04300F02000044304D1E2
:102130000098022101F0D8FA00B916B10120BDE8DB
:10214000FE8F0020FBE700002DE9F05F04000F4642
:102150007ED0DFF83882D8F8000000F00F00B842D7
:102160000CD2D8F8001021F00F013943C8F8001044
:10217000D8F8000000F00F00B84269D12078844DF3
:1021800040070AD52069296801F07001884204D906
:10219000296821F070010143296020787C4E361DAA
:1021A00000070AD56069316801F07001884204D9DE
:1021B000316821F07001014331602078C0060AD5F2
:1021C000A069316801F4E061884204D9316821F4E2
:1021D000E061014331602078DFF8B4B180060BF193
:1021E000080B0CD5E1695846DBF8002002F07002BC
:1021F000914204D9026822F070020A4302602078FA
:1022000080070AD5E068296801F00F01884204D9E7
:10221000296821F00F01014329602078C0073ED0D2
:102220005B49A2682868183920F470601043286060
:102230006068022818D0032819D00968012819D02D
:10224000490700294ADADFF848A1AAF1080A00E0A4
:1022500044E0DAF8002022F007020243CAF8002026
:10226000FFF75CF8814612E009688903E9E709682D
:102270008901E6E7C905E4E7FFF750F8A0EB09019B
:1022800041F28830814202D90320BDE8F09F6168A5
:10229000DAF8000000F03800B0EBC10FECD1207884
:1022A00080070AD5E068296801F00F01884204D24E
:1022B000296821F00F0101432960D8F80010404639
:1022C00001F00F01B9420BD9016821F00F01394328
:1022D0000160006800F00F00B84201D00120D4E78F
:1022E000207840070AD52069296801F070018842EA
:1022F00004D2296821F07001014329602078000789
:102300000AD56069316801F07001884204D23168F1
:1023100021F07001014331602078C0060AD5A06920
:10232000316801F4E061884204D2316821F4E0614F
:1023300001433160207880060CD5E1695846DBF80E
:10234000002002F07002914204D2026822F0700272
:102350000A43026000F06CF80E492A682B68C2F349
:10236000032203F00F038A5CC95C02F01F0201F034
:102370001F01D040084A20FA01F1116007490860A6
:1023800007480068BDE8F05FFFF704B8002000527E
:10239000184402584844000848000024440000241F
:1023A0003C00002430B500F043F80B4A0B490C4BBD
:1023B00015681468C5F3032204F00F048A5C095DF4
:1023C00002F01F0201F01F01D040064A20FA01F17D
:1023D00019601060084630BD18440258484400088F
:1023E000480000244400002400B5FFF7DBFF054946
:1023F0000968054AC1F30211515C01F01F01C84090
:1024000000BD00001C4402584844000800B5FFF716
:10241000C9FF05490968054AC1F30221515C01F071
:102420001F01C84000BD00001C4402584844000879
:10243000454970B545480968434B103B11F03802D7
:1024400008D00111082A03D0102A0BD0182A0BD06B
:10245000084670BD19688906FBD51968C1F3C1012A
:10246000C84070BD3A4870BD3749374D18310C1D12
:1024700024350A68096826682D6802F0030406F00E
:102480000102C1F30511C5F3CC0515FB02F200EE04
:10249000102AB8EE400AE9B32F4ADFED2E0AB7EE54
:1024A000001A6CB1DFED2D1A012C01D0022C43D0A3
:1024B00002EE101A1068F8EE422A81EEA22A1EE0FF
:1024C0001C68A40611D51B6801EE901A1168C3F3AD
:1024D000C103F8EE612AD84001EE900AC1F308006A
:1024E000F8EE611A81EEA22A0BE001EE901ADFED00
:1024F0001C2A00BFF8EE611A106882EEA12AC0F310
:10250000080001EE900AF8EE611A40EE201A31EE52
:10251000810A00E015E022EE000A1068C0F34620B0
:10252000401C00EE900AF8EE600A80EE201ABCEE25
:10253000C10A10EE100A70BD01EE901ADFED092AF3
:10254000D8E7002070BD0000104402580090D0036E
:1025500000366E0100000039304402580024744AED
:102560000024744C001BB74B2DE9F05F04007DD0B4
:10257000FF4F2078FE4D1837DFF8F483103DC00779
:1025800048D0D8F80000396800F03800102815D07D
:10259000182803D101F0030002280FD06068B0F5BD
:1025A000803F12D010B1B0F5A02F18D0286820F4C9
:1025B00080302860286820F4802009E028688003A3
:1025C00028D560680028D2D024E0286840F4803004
:1025D0002860606888B1FEF7A1FE064609E0286819
:1025E00040F480202860F0E7FEF798FE801B642806
:1025F0007ED828688003F7D50CE0FEF78FFE0646EC
:1026000005E000BFFEF78AFE801B6428F0D828682A
:102610008003F7D42078800756D5D8F80000DFF87B
:102620005093396810F03800A9F10C090ED0182821
:1026300001D188070AD0E068A8B3296821F0190100
:1026400001432960FEF76AFE064628E02868400735
:1026500002D5E06800288AD0E168286820F01900D7
:1026600008432860FEF75AFE064606E0D2E000BFA7
:10267000FEF754FE801B0228BAD828684007F7D519
:10268000217CD9F8002022F0FE4242EA0161C9F81B
:10269000001019E0FEF742FE801B0228A8D8286827
:1026A0004007F7D5ECE7FFE7286820F00100286035
:1026B000FEF734FE064604E0FEF730FE801B0228DB
:1026C00096D828684007F7D42078C00646D5D8F8B1
:1026D0000000DFF89C92396800F03800A9F1040985
:1026E000082812D0182805D101F00300012800E0C5
:1026F000CEE00AD0E0690028286820D040F08000B1
:102700002860FEF70BFE064615E02868C00502D5D6
:10271000E06980287ED194F82010D9F8002022F0BA
:102720007C5242EA0161C9F8001017E0FEF7F6FD9D
:10273000801B0228A0D82868C005F7D5EBE720F059
:1027400080002860FEF7EAFD064604E0FEF7E6FD9D
:10275000801B022890D82868C005F7D4207800078D
:1027600029D583486169643000298146016811D008
:1027700041F001010160FEF7D1FD064605E000BF12
:10278000FEF7CCFD801B022888D8D9F8000080070E
:10279000F6D510E021F001010160FEF7BFFD06460D
:1027A00005E000BFFEF7BAFD801B022870D8D9F8FB
:1027B00000008007F6D42078800623D5A069002881
:1027C000286810D040F480502860FEF7A7FD064628
:1027D00005E000BFFEF7A2FD801B022858D828683C
:1027E0008004F7D50EE020F480502860FEF796FDB7
:1027F000064604E0FEF792FD801B022848D82868B0
:102800008004F7D42078400751D5DFF86891D9F8D3
:10281000001000E015E141F48071C9F80010FEF7E6
:102820007DFD064605E000BFFEF778FD801B6428AD
:102830002ED8D9F80000C005F6D54D4EA0686036F8
:1028400001280AD008B1052813D0306820F0010013
:102850003060306820F0040002E0306840F0010091
:102860003060A06841F2883A98B1FEF757FD814682
:102870000AE0306840F004003060EEE7FEF74EFDFD
:10288000A0EB0901514503D830688007F6D50EE06A
:1028900072E0FEF743FD814606E000BFFEF73EFD15
:1028A000A0EB0901514567D830688007F6D4606A0B
:1028B00000287CD0DFF8B8A0D8F800100AF1200A70
:1028C0004FF6F87B0AF10408C1F3C2010329AAF10B
:1028D00004096DD00228286820F08070286003D099
:1028E000FEF71CFD044681E0FEF718FD064604E0F5
:1028F000FEF714FD801B022875D828688001F7D4E4
:10290000E26A40F2F331386854F8283F884340EADD
:10291000021018433860217B4FF4FE0C22894FF0DF
:10292000FE47208A4902267D521E401EA1F50071F5
:1029300089B2C2F308021143761E0CEA004001433B
:10294000484607EA06621143CAF80010D9F8001099
:1029500021F00101C9F80010D8F80030266A23EAF6
:102960000B0343EAC601C8F80010D9F8001004E0D0
:10297000104402580048025835E0A26921F00C01C9
:102980001143C9F800100168E26921F00201114306
:102990000160016841F480310160016841F4003157
:1029A0000160016841F480210160016801E06CE090
:1029B00020E041F001010160286840F0807028604B
:1029C000FEF7ACFC044604E0FEF7A8FC001B02285E
:1029D00009D828688001F7D557E000BFFEF79EFCB4
:1029E000001B022802D90320BDE8F09F286880015F
:1029F000F4D44AE039680128DAF8000021D0A26A4C
:102A000001F0030393421CD1E26AC1F305118A422B
:102A100017D1216BC0F30802491E8A4211D1616BA4
:102A2000C0F34622491E91420BD1A16BC0F306426E
:102A3000491E914205D1E16BC0F30660491E8142F7
:102A400001D00120D0E7A16C4646D8F80000C0F3C1
:102A5000CC00814219D0D9F800004D4620F0010089
:102A6000C9F80000FEF75AFC4FEA0007FEF756FCD3
:102A7000B842FBD0A26C306820EA0B0040EAC200EA
:102A80003060286840F0010028600020ACE7401E5C
:102A9000B0F1807F10B501D3012010BD4FF0E024CC
:102AA00060610F21601701F0B2FB0020A0610721D7
:102AB000216110BD7047704770470000F0B590F875
:102AC0003C20012A41D0224E012480F83C400222C1
:102AD00080F83D2002681F4D5368B242D2F808C00A
:102AE00001D0AA4203D14F6823F470033B430F681F
:102AF00023F070031F4357600268B24219D0B2F14D
:102B0000804F16D0144B9A4213D0144B9A4210D0D7
:102B1000134B9A420DD0AA420BD0124B9A4208D0C6
:102B2000114B9A4205D0114B9A4202D0104B9A4257
:102B300004D189682CF0800319439160002180F84A
:102B40003D4080F83C100846F0BD0220F0BD00007A
:102B50000000014000040140000400400008004063
:102B6000000C0040001800400040014000E0004020
:102B700000E4004010B5040003D094F83D0010B10B
:102B800007E0012010BD002084F83C00204600F042
:102B900023F8022084F83D002068211D00F050FF3A
:102BA000012084F8480084F83E0084F83F0084F84F
:102BB000400084F8410084F8420084F8430084F81F
:102BC000440084F8450084F8460084F8470084F8FF
:102BD0003D00002010BD000008B50068B0F1804F36
:102BE00012D10A48016841F0010101600068002229
:102BF000114600F0010000901C20FEF755FCBDE8D6
:102C000008401C20FEF742BC08BD0000E844025802
:102C100090F83D10012901D0012070471A4A022185
:102C200080F83D100168CB6843F00103CB60006879
:102C300090421AD0B0F1804F17D01449884214D076
:102C40001349884211D0134988420ED01249884254
:102C50000BD01249884208D01149884205D0114949
:102C6000884202D01049884207D181680F4A11403A
:102C7000062906D0B1F5803F03D0016841F001017B
:102C80000160002070470000000001400004004087
:102C900000080040000C0040000401400018004003
:102CA0000040014000E0004000E400400700010057
:102CB00070B5044690F83C000025012814D03A4B2A
:102CC000012684F83C60022084F83D002268906868
:102CD000184020F47F409060086870282FD010DCE6
:102CE00010F00F0F03D022E04FF0020070BD4FEA4A
:102CF0002012072A1BD2DFE802F0535353534B39FB
:102D00004100B0F1101F4BD009DCB0F5805F0FD04F
:102D1000B0F5005F1ED0B0F5801F08D140E0A0F5EF
:102D2000801120393CD010293AD0202938D00125F3
:102D300084F83D60002084F83C00284670BD4A6855
:102D40002068D1E9021300F0EBFE2068816841F0B1
:102D5000770109E04A682068D1E9021300F0E0FE3B
:102D60002068816841F480418160E1E7CA68496870
:102D7000206800F0E9FE2068502106E0CA68496832
:102D8000206800F0F2FE2068602100F0D3FECFE75B
:102D9000CA684968206800F0D7FE20684021F4E73F
:102DA000226801461046F0E788FFCEFF70472DE904
:102DB000F041044600680027C6680569A90713D5D5
:102DC000B10711D5FA1E02610121217720688069BF
:102DD0008007204602D0FFF7E9FF04E000F08BF8FF
:102DE000204600F089F82777680716D5700714D5B4
:102DF000226802206FF00401116120772068806949
:102E000010F4407F204602D0FFF7D0FF04E000F02E
:102E100072F8204600F070F82777280715D530079C
:102E200013D5226804206FF0080111612077206813
:102E3000C0698007204602D0FFF7B8FF04E000F029
:102E40005AF8204600F058F82777E80616D5F0061D
:102E500014D5226808206FF01001116120772068D6
:102E6000C06910F4407F204602D0FFF79FFF04E0C6
:102E700000F041F8204600F03FF82777E80708D037
:102E8000F00706D021686FF001000861204600F0CD
:102E900035F8280601D4A80408D5300606D52168DF
:102EA0006FF4025008612046FFF705FEE80508D5DB
:102EB000300606D521686FF4807008612046FFF760
:102EC000F9FD680608D5700606D521686FF0400048
:102ED0000861204600F090F8A8060AD5B00608D58B
:102EE00021686FF0200008612046BDE8F041FFF73F
:102EF000E3BDBDE8F08170477047000070B52DED6F
:102F0000028B0068B0F1804F69D1364C40F6B83181
:102F10002069401C2061884217D900202061D4ED2F
:102F2000010A204690ED030AF5EEC00AF1EE10FA10
:102F300003D100BF84ED010A07E0F4EE400AF1EE90
:102F400010FA02D19FED280AF4E72078274D9FED73
:102F5000288A012815D1234A002126481C3295EDE4
:102F6000090AF0EE480A00F0EDFA224895ED010A50
:102F7000D4ED010A00F040FA85ED060A284600F07B
:102F800045FC207802282AD1164A002119481C3213
:102F900095ED090AF0EE480A00F0D4FA154895EDCF
:102FA000010AD4ED020A00F027FA104885ED060A5E
:102FB00000F02CFC0B4A00210E482832483095EDD9
:102FC000080AF0EE480A00F0BDFA0A4895ED000A3A
:102FD0004830D4ED010A00F00FFA84ED020ABDEC8E
:102FE000028B70BD00000024000000005C02002481
:102FF0000000C8424C000024704730B590F884109F
:10300000012918D0012280F884202421C0F88810DA
:103010000022202401680B680D6823F0005325F07E
:1030200001050D60426601680B60C0F8884080F8B9
:103030008420104630BD022030BD70B5044690F8A3
:10304000840001281DD0012284F884202420C4F8A3
:10305000880020680568026822F00102026020688A
:10306000826822F060620A438260204600F090FD90
:103070002268202100201560C4F8881084F884009C
:1030800070BD022070BD70B5044690F88400012820
:103090001DD0012284F884202420C4F888002068F0
:1030A0000568026822F0010202602068826822F04E
:1030B00060420A438260204600F06AFD22682021B7
:1030C00000201560C4F8881084F8840070BD0220C8
:1030D00070BD10B5040003D0D4F8880010B107E02B
:1030E000012010BD002084F88400204600F026F85E
:1030F0002420C4F888002068016821F001010160E3
:10310000A06A10B1204600F065FD204600F046FEA2
:103110000128E6D02068416821F490414160206890
:10312000816821F02A0181602068016841F0010175
:1031300001602046BDE8104000F0B0BD10B5B4B04D
:10314000044614212EA8FDF72BF9B8216846FDF797
:1031500027F91949206888422BD100201E900121AF
:103160000446CDE900106846FEF750FB08B1FDF7B4
:1031700055F91248016841F010010160006800F043
:10318000100033900D481038016841F001010160D2
:1031900000682EAB022100F0010033904FF4C060B4
:1031A000072283E8130006482EA9CDE93142FDF736
:1031B000A7FF34B010BD000000100140F0440258D9
:1031C00000000258FEE7D0ED000AF4EEC00AF1EE6E
:1031D00010FA06DCB1EE400AF4EEC00AF1EE10FA85
:1031E00001D280ED000A704726481D23F0B5DFF8B4
:1031F00090C0002489B08460C0F800C00327C46078
:103200000A2104740125447402268474042247614F
:10321000C0E90613C0E90817C0E90A1300F130033A
:1032200083E83200C0E90F462021C0E91124C0E93B
:103230001324C0E91524C0E91741C0E91942FDF77C
:10324000AFFD08B1FDF7EAF8019401A90D48CDE9F9
:103250000246CDE904540694FDF7F0FA022209482B
:10326000002311460094FDF728FB064800220121A7
:10327000FDF76CFA0348FDF720FF09B0F0BD000030
:1032800000A00040DC0000240D4808B5016841F0B2
:1032900080010160016801F080010091016841F046
:1032A00001010160016801F001010091016841F034
:1032B00008010160006800F00800009008BD0000EF
:1032C000E044025810B588B01648002440F2E733B5
:1032D000EF2200944FF080410194029403940494EF
:1032E0000594069480E81600C0E903348461FFF772
:1032F00041FC08B1FDF792F84FF480500090094866
:103300006946FFF7D5FC08B1FDF788F8054804A920
:1033100004940694FFF7D2FB002801D0FDF77EF855
:1033200008B010BD7C0100241848002110B5164CCF
:103330000C224FF4E1330460C0E90131C160C0E9FF
:1033400004128161C161016241628162FFF7C1FEC5
:1033500008B1FDF763F80D480021FFF794FE08B1AE
:10336000FDF75CF809480021FFF767FE08B1FDF79B
:1033700055F80648FFF741FE002803D0BDE810408D
:10338000FDF74CB810BD000000100140C80100243A
:10339000FEE7000012483C2110B5FDF701F8104887
:1033A000122202219FED0F0AB1EE042A80F8382084
:1033B00080F8391000F11C01DFED0D2A80ED0B2A99
:1033C00080ED0D0AC0ED0A2ADFED070A9FED071A0E
:1033D00080ED0C0AF3EE021AC1EC030A10BD0000E6
:1033E0005C02002400000000C3F5C8400000344225
:1033F0000000FA43FEE700000100B0EE402A00B5ED
:103400009FED4F0A2CD04878D1ED102AD1ED0F1A3C
:10341000C1ED060A30EEC21A81ED072AC1ED112A6C
:10342000C1ED101A012881ED0F1A1AD081ED110A91
:1034300081ED100A81ED0F0A81ED0E0A81ED0D0A72
:1034400081ED0C0A81ED0B0A81ED0A0A81ED090A72
:1034500081ED080A81ED060A81ED070A91ED080A5F
:1034600000BD087801F12002C0B30128F6D1B0EE0A
:10347000005AF0EE410A71EE615A41EEC50A91ED33
:10348000010AD1ED023A91ED0D4A25EE800A23EEB4
:10349000811A91ED033A91ED082AD1ED0C4A70EEB4
:1034A000A20A81ED0E4AC1ED0D4A70EE011A81EDBE
:1034B000090A23EE200A81ED0A1AC1ED0C0A81EDFA
:1034C0000B0A71EE800A30EE820A00BF81ED080A15
:1034D00091ED040A1046FFF776FEBFE7FFE7D1ED56
:1034E0000A0A91ED023A31EE610AD1ED012A91ED1D
:1034F000032AD1ED0D1AD1ED0C3A43EE010A22EE6A
:10350000811AC1ED0E1A22EE002AC1ED0D3A81EDAD
:103510000C0A81ED091A81ED0B2AC1ED0A0A91ED21
:10352000050A01F12800FFF74EFE91ED090A91ED21
:103530000A1AD1ED0B0A30EE010A30EE200AC5E777
:1035400000000000002839D0002A37D092ED001A80
:1035500080ED011A92ED011A80ED021A92ED021A25
:1035600080ED031A4378012B28D00170012192EDE0
:10357000001A80ED011AD2ED011A9FED111AC0ED6B
:10358000021AD2ED021AC0ED031A80ED040AC0ED52
:10359000050A80ED0E1A80ED0D1A80ED0C1A80EDF3
:1035A000081A80ED0B1A80ED0A1A80ED091A80EDD9
:1035B000111A80ED101A80ED0F1A4170704700004B
:1035C00000000000704700002DE9F047454D04461B
:1035D00089464FF0000A2868C04380070AD0414E50
:1035E000283E306820F080603060FDF797FE074687
:1035F000B04608E00120BDE8F08700BFFDF78EFE71
:10360000C01B022867D8D8F800000001F6D4206853
:1036100029684FF4FE0721F47C313E0241EA003074
:103620002860207AA389B4F804C040022D4D2D49AA
:103630005B1E227CACF1010C1035091DA0F5007059
:1036400080B2521ECCF3080C07EA034340EA0C0098
:10365000184306EA0262104328600868626920F095
:10366000C000104308600A68A06922F020020243EB
:103670000A60281D0A6822F010020A6002684FF6EC
:10368000F873E4699A4342EAC40202600868B9F137
:10369000000F40F010020A6011D00868B9F1010F64
:1036A00011D040F400100860D8F80000444640F003
:1036B0008060C8F80000FDF731FE05460DE008689F
:1036C00040F40020EFE740F48010ECE7FDF726FE21
:1036D000401B022801D903208DE720680001F5D5A1
:1036E000504688E7284402582DE9F047454D0446E6
:1036F00089464FF0000A2868C04380070AD0414E2F
:10370000283E306820F080503060FDF707FE074605
:10371000B04608E00120BDE8F08700BFFDF7FEFDE0
:10372000C01B022867D8D8F800008000F6D4208893
:1037300029684FF4FE0721F07C713E0241EA0050F7
:103740002860207AA389B4F804C040022D4D2D4989
:103750005B1E227CACF1010C1835091DA0F5007030
:1037600080B2521ECCF3080C07EA034340EA0C0077
:10377000184306EA0262104328600868626920F470
:103780004060104308600A68A06922F40072024396
:103790000A60281D0A6822F480720A6002684FF6E7
:1037A000F873E4699A4342EAC40202600868B9F116
:1037B000000F40F480720A6011D00868B9F1010F5F
:1037C00011D040F080700860D8F80000444640F006
:1037D0008050C8F80000FDF7A1FD05460DE008681F
:1037E00040F48000EFE740F40000ECE7FDF796FDC1
:1037F000401B022801D903208DE720688000F5D501
:10380000504688E728440258704700001CB502461D
:103810000020009001901020D2ED070A92ED040ADA
:1038200000F031FD010A8DF800108DF801000C2028
:10383000D2ED080A92ED050A00F025FD010100090C
:103840008DF802009FED1D2A8DF803100C2092EDDB
:103850000A1A92ED0C0AF0EE420A00F02AFD9DF8D9
:103860000310C0F303238DF804000C2019438DF8D6
:10387000031092ED0B1A92ED0D0AF0EE420A00F0E1
:1038800018FD010100098DF805008DF806100C20C7
:10389000D2ED090A92ED060A00F0F5FC9DF806103B
:1038A000C0F3032319438DF806108DF8070069460D
:1038B00092F83900FCF7F0FE1CBD0000000000008B
:1038C000FDF732BD70B59CB04C216846FCF768FD31
:1038D000202113A8FCF764FD0220FDF717FE1E4807
:1038E000016821F4404101600168002401F4404175
:1038F0001B9101688904FCD502200A9028230990B5
:10390000C20301210D910425CDE90012CDE90B037D
:103910000C261294CDE90E50CDE910646846FEF7EE
:1039200023FE08B172B6FEE740201A900823050175
:10393000CDE9163013ABCDE918053F21032283E80A
:10394000160013A81146FEF7FFFB002801D072B63F
:10395000FEE71CB070BD0000184802582D48F0B5B5
:103960002D4A016841F470010160106800F00F00F9
:10397000072804D2106820F00F00C01D10602749EE
:103980000020264C10340B68254D43F001030B60DA
:1039900020600B682B400B60136803F00F03072BAC
:1039A00004D9136823F00F03DB1D13601B4C1D4A61
:1039B00018341D4B261D371D2060184C1B4D283414
:1039C0003060261D3860371D23603B1D35601C1D8F
:1039D0003A60251D2E1D1860331D2260286032605C
:1039E00018600B680D4A0D4C23F48023D4320B6011
:1039F000603420601068C0040BD4136843F2D20016
:103A00000B4943F4805313600860106820F4805021
:103A10001060F0BD88ED00E0002000520044025824
:103A20007FEDF6EA80020101000202020000FF01C0
:103A3000004000520148FFF7BAB900007C010024A1
:103A40002DE9F0472C4B4FF0804A2C4D02689842EC
:103A50002B4E2C4F2C4C09D0504507D0A84205D0F6
:103A6000B04203D0B84201D0A04205D1D1F804C081
:103A700022F070024CEA0202DFF890C0DFF890807A
:103A80009842DFF8909015D0504513D0A84211D03D
:103A9000B0420FD0B8420DD0A0420BD0604509D043
:103AA000404507D0484505D01B4DA84202D01B4DCC
:103AB000A84203D1CD6822F440722A438E684D6932
:103AC00022F08002C6620E682A439842866207D0BE
:103AD000A04205D0604503D0404501D0484501D102
:103AE000096901630368012143F004030360416134
:103AF0000260BDE8F08700000000014000040040C3
:103B000000080040000C004000040140004001405B
:103B1000004401400048014000E0004000E4004053
:103B200042EA032283680A4323F47F410A43826006
:103B300070470000034B82681A400A4342F00701B5
:103B4000816070478FFFCFFF10B5036A046A23F0CE
:103B50000A0324F00104046284690B4324F0F00199
:103B600041EA02118161036210BD10B5036A046A63
:103B700023F0A00324F010040462846943EA0111D5
:103B800024F4704343EA02328261016210BD0000F6
:103B900030B5416EB9B101680D4B03F108048A6874
:103BA0008968C2F34262490F5D5C615C2D01B5FB1F
:103BB000F1F1A0F86A10995CA25C0901B1FBF2F185
:103BC000A0F8681030BD0121A0F86A10F8E70000E5
:103BD0003844000890F82810090706D50168836B5F
:103BE0004A6822F400421A434A6090F82810C90734
:103BF00006D00168C36A4A6822F400321A434A6058
:103C000090F82810890706D50168036B4A6822F4EA
:103C100080321A434A6090F82810490706D5016897
:103C2000436B4A6822F480221A434A6090F82810B5
:103C3000C90606D50168C36B8A6822F480521A430C
:103C40008A6090F82810890606D50168036C8A6896
:103C500022F400521A438A6090F82810490611D5C0
:103C60000168436C4A6822F480121A434A60416C2E
:103C7000B1F5801F06D10168836C4A6822F4C00246
:103C80001A434A6090F82810090606D50168C26CEC
:103C9000486820F400201043486070472DE9F8433D
:103CA00000250446C0F89050FDF738FB8046206898
:103CB00020266FF07E470068000713D50022434698
:103CC00031042046009700F057FA58B1216851E8B6
:103CD000000F20F0800041E80002002AF6D1C4F86D
:103CE000886021E020680068400722D50022434612
:103CF0004FF480012046009700F03EFAC8B12068DA
:103D000050E8001F21F4907140E80012002AF6D11B
:103D10002068083050E8001F21F0010140E800123F
:103D2000002AF5D1C4F88C60032084F88450BDE8E3
:103D3000F883C4F88860C4F88C60E56625670020C5
:103D400084F88450F3E7000010B5026852E8001FC1
:103D500021F4907142E80013002BF6D10E4B02685B
:103D6000083252E8001F194042E80014002CF6D136
:103D7000C16E012908D1026852E8001F21F010012C
:103D800042E80013002BF6D100212022C0F88C203D
:103D9000C166416710BD0000FEFFFFEF2DE9F04353
:103DA00004468068E24E87B0E24B2168D4E90427DC
:103DB000D4F81CC010430A68002547EA0C073843B2
:103DC000324002430A602068E268416821F44051B1
:103DD000114341602268A1699A4201D0206A0143DF
:103DE0009668DFF854C3D54FD54806EA0C060E4353
:103DF00096602168666ACA6A22F00F023243CA627C
:103E00002268BA420ED1006800F0380018286FD03E
:103E10007ADCB8B308286CD010286BD18BE0282846
:103E200068D18EE0C7498A4209D1006800F00700D6
:103E300006285FD2DFE800F0507D7F818385C2498C
:103E40008A4209D1006800F0070006287BD2DFE82B
:103E500000F0437072747678BC498A4209D10068D8
:103E600000F0070006286ED2DFE800F036636567D1
:103E7000696BB7498A420BD1006800F00700062839
:103E800061D200E043E0DFE800F0275456585A5C66
:103E9000B0498A4206D1006800F0380018284CD09A
:103EA000B7DD31E0AC498A4209D1006800F0070073
:103EB000062848D2DFE800F0103D3F414345A749BE
:103EC0008A420BD1006800F0070006283BD2DFE8E9
:103ED00000F0033032343638002035E0A0498A4201
:103EE00009D1006800F03800182826D091DD0BE0D9
:103EF00023E01EE027E09B498A420AD1006800F0D7
:103F00003800182819D084DD202888D11CE0012031
:103F10001AE09A4217D18A48001D006800F0070095
:103F2000062810D2DFE800F0030507090B0D022078
:103F30000AE0042008E0082006E0102004E0202029
:103F400002E0402000E080208749DFF820829A428A
:103F5000874A4FF400434FEA21174FF000064ED135
:103F600010281AD006DC022809D004280BD0082813
:103F70007ED10DE020283ED0402879D13DE0FDF7EC
:103F8000EFFA014610E06846FDF7FCFA01990BE0F4
:103F900003A8FDF799FB049906E01068800605D593
:103FA0001068C0F3C100C140002970D0606A676822
:103FB00038F8102007EB4703B1FBF2F0834257D8E3
:103FC000B0EB073F54D8002308461946FCF79EF98A
:103FD00002467808130E120243EA012110183A46ED
:103FE00071410023FCF792F9624AA0F540719142B9
:103FF0003ED821688FE03946D8E71946D6E7D4F88D
:104000001CC04FF6EF799C4546D1082819D005DC35
:1040100058B101280CD0042875D10DE0102815D016
:10402000202835D040286ED134E0FEF7DDF901E0DC
:10403000FEF7ECF9014610E06846FDF7A3FA019996
:104040000BE003A8FDF740FB049906E0106880062A
:1040500004D51068C0F3C100C140C1B1636A606893
:1040600038F81330B1FBF3F1490001EB500100E0E7
:1040700049E0B1FBF0F0A0F11001494543D84FF6FB
:10408000F0732168C0F342021840104343E043E05C
:104090003946E3E71946E1E7082819D005DC58B1AD
:1040A00001280CD004282ED10DE0102815D020288E
:1040B0002BD0402827D12AE0FEF796F901E0FEF741
:1040C000A5F9014610E06846FDF75CFA01990BE09E
:1040D00003A8FDF7F9FA049906E01068800604D5F4
:1040E0001068C0F3C100C140B1B1636A606838F8BC
:1040F0001330B1FBF3F101EB5001B1FBF0F0A0F193
:104100001001494505D9012506E03946EDE7194674
:10411000EBE7216880B2C8600120A4F86A00A4F827
:10412000680028466667A66707B0BDE8F083000010
:10413000F369FFCF000C0058FFF4FF11001001409D
:10414000544402580044004000480040004C0040E5
:10415000005000400014014000780040007C004006
:1041600000180140001C01400090D00320440008CA
:1041700000440258FFFC0F002DE9F047994617460E
:104180000D460446089E4FF0000833E0701C31D005
:10419000FDF7C4F8A0EB0900B04218D8BEB1206802
:1041A0000168490726D5802D24D0402D22D0C16931
:1041B000C94309070DD4082505622046FFF7C4FD51
:1041C000C4F89050012084F88480BDE8F087032073
:1041D000FBE7C069C04300050CD421684FF40060C0
:1041E00008622046FFF7B0FD2021C4F8901084F843
:1041F0008480ECE72068C06935EA000004D0002024
:10420000B842C3D00020E0E70120F9E7FEE7090744
:1042100000284FEA116104DB00F1E02080F800146F
:10422000704700F00F0000F1E02080F8141D704787
:1042300002E008C8121F08C1002AFAD1704770476F
:10424000002001E001C1121F002AFBD170471CB5FC
:104250000023FF210093FC2201938DF800108DF8BC
:1042600004108DF801108DF805108DF802108DF8EE
:1042700006108DF8031069468DF8072090F8390074
:10428000FCF70AFA1CBD012130EE201AB0EE000A3C
:104290008140491E60EE800A00EE101AB8EEC00A96
:1042A00021EE000A80EE201ABDEEC10A10EE100ABF
:1042B0007047012170EE601A8140491E31EE600A9C
:1042C00000EE901AF8EEE00A61EEA00A80EE801A85
:1042D000BDEEC10A10EE100A704700001FB50024A1
:1042E0000094019402940394FDF7A2F801208DF844
:1042F0000C001F218DF8081087228DF809208DF8F9
:104300000D008DF8000068468DF80A408DF80E40CB
:104310008DF8014001948DF80B408DF80F40FDF7AA
:1043200059F80420FDF792F8FDF706F8FFF7CAFAEE
:10433000FEF7AAFFFEF758FFFEF7F6FFFEF7C2FFF3
:10434000FCF79CF9FFF726F80648FFF780FF0648C0
:104350004470483044700548FEF75AFC6420FCF76E
:10436000E3F9FBE75C0200244C0000247C010024FC
:10437000400000EE900A0122F8EEE00A8A40521E48
:1043800020EE801A00EE902AF8EEE01AF8EEE00A2D
:1043900001EEC01A81EE200A704701EE100A70EE9D
:1043A000C00A0120B8EEC11A8840401E21EE201A32
:1043B00000EE900AF8EEE01AC1EE210A30EE800A13
:1043C000704700000001020304050607080C1014E2
:1043D0001820304000000000000000000000000035
:1043E00000000000000000000100000002000000CA
:1043F00003000000040000000000000005000000B1
:1044000000000000000000000000000006000000A6
:104410000000000000000000000000000700000095
:10442000010002000400060008000A000C00100051
:10443000200040008000000101010103070100008D
:104440000804020408010101000000000102030445
:10445000010203040607080978440008000000244C
:104460004C00000030420008C44400084C00002406
:104470004C0600004042000801000000000000005F
:1044800000000000000040400000000000000000AC
:1044900000000000CDCCCC3D52491D3A0000000088
:1044A00000008041000000000000F041000000001A
:1044B0000100000010000000000000000090D00388
:0444C0000090D00395
:04000005080002CD20
:00000001FF
