:020000040800F2
:10000000B01E00209901000877160008DD130008D3
:100010007516000855020008C71A00080000000005
:1000200000000000000000000000000001010008C6
:10003000570200080000000045010008851600086E
:10004000B3010008B3010008B3010008B3010008C0
:10005000B3010008B3010008B3010008B3010008B0
:10006000B3010008B3010008B3010008B3010008A0
:10007000B3010008B3010008B3010008B301000890
:10008000B3010008B3010008B3010008B301000880
:10009000B3010008B3010008B3010008B301000870
:1000A000B3010008B3010008B3010008B301000860
:1000B000B301000801170008B3010008B3010008EC
:1000C000B3010008B3010008B3010008B301000840
:1000D000B3010008B3010008B3010008B301000830
:1000E000B3010008B3010008B3010008DFF80CD029
:1000F00000F09EF800480047291D0008B01E0020AF
:10010000224B19680868B0E8F00F80F30988BFF344
:100110006F8F4FF0000080F311884EF00D0E704786
:100120000000000006480068006880F3088862B696
:1001300061B6BFF34F8FBFF36F8F00DF00BF00BF0B
:1001400008ED00E0EFF30980BFF36F8F0F4B1A68E3
:1001500020E9F00F106008B54FF0500080F31188CF
:10016000BFF34F8FBFF36F8F02F0A4FD4FF000007D
:1001700080F31188BDE8084019680868B0E8F00FFE
:1001800080F30988BFF36F8F704700BF34000020F1
:10019000EFF3058070470000064880470648004797
:1001A000FEE7FEE7FEE7FEE7FEE7FEE7FEE7FEE727
:1001B000FEE7FEE7FD160008ED00000840EA010337
:1001C0009B0703D009E008C9121F08C0042AFAD20D
:1001D00003E011F8013B00F8013B521EF9D27047D1
:1001E000D2B201E000F8012B491EFBD27047002279
:1001F000F6E710B513460A4604461946FFF7F0FF26
:10020000204610BD30B50B460146002020220124B7
:1002100009E021FA02F59D4205D303FA02F5491BD4
:1002200004FA02F52844151EA2F10102F1DC30BDEA
:10023000064C074D06E0E06840F0010394E8070033
:1002400098471034AC42F6D3FFF754FFE838000863
:1002500008390008FEE7704772B6FEE72DE9F84F4F
:10026000DFF8B8910024A9F1040B23460F2709F108
:10027000040AABF1040EC9E00125A5402A40AA42B8
:100280007DD1674ED1F804C0ACEB0608B44532D03E
:1002900014DCBCF1030F3AD009DCBCF1000F2AD00A
:1002A000BCF1010F1CD0BCF1020F31D11DE0BCF13B
:1002B000110F17D0BCF1120F2AD119E0B8F5881F21
:1002C00019D006DCB8F5803F15D0B8F5801F1FD1D6
:1002D00011E0B8F5001F0ED0B8F5041F18D10AE0E0
:1002E000CB6815E0CB681B1D12E0CB6808330FE02C
:1002F000CB680C330CE08B682BB1012B4FF008035B
:1003000003D0456104E0042302E0056100E000231E
:10031000FF2A01D8064601E000F104064FEA8405F1
:1003200001D9A5F12005D6F8008007FA05FC28EAD6
:100330000C0803FA05F548EA0508C6F800804D6880
:10034000ED0062D5374DAE6946F00106AE61AD698C
:1003500024F0030605F001050095334D06EB050C6E
:10036000DCF80850A607360F07FA06F825EA080554
:10037000DFF8B880404503D14FF0000817E044E0B3
:10038000DFF8AC80404502D14FF001080FE0DFF804
:10039000A480404502D14FF0020808E0DFF89880C1
:1003A000404502D14FF0030801E04FF0040808FA7D
:1003B00006F848EA0508CCF808804D68D9F80060CE
:1003C000ED024D4601D5164300E096432E604D6880
:1003D000DAF80060AD02554601D5164300E09643B9
:1003E0002E604D68DBF80060AD035D4601D5164315
:1003F00000E096432E604D68DEF80060ED03754620
:1004000001D5164300E096432E60641C0D682A4611
:10041000E5407FF431AFBDE8F88F000008040140EB
:1004200000001110001002400000014000080140CF
:10043000000C01400010014000140140C26821EA94
:1004400002030A4043EA0241016170470AB10161B7
:1004500070470904FBE7000001488068704700000E
:1004600024000020024881680278114481607047AE
:1004700024000020074810B5016841F01001016018
:10048000032000F0A7F80F2000F006F800F050F865
:10049000002010BD0020024030B505461F4887B03F
:1004A000C16941F00201C161C06906A900F0020002
:1004B000009001A800F036F90498B0B100F052F9AC
:1004C00040001749174AB0FBF1F11748491E026076
:1004D000416040F2E7320021C0E90321816081617F
:1004E00000F076FB040003D015E000F03BF9E8E7EC
:1004F0000D4800F0AFFB04000DD11D2000F03CF8CA
:10050000102D07D2002229461D2000F043F807488D
:10051000056000E0012407B0204630BD0010024015
:1005200040420F00000400409001002028000020FD
:100530000F4808B5816941F001018161816901F0CD
:1005400001010091C16941F08051C161C06900227F
:1005500000F0805000900F21901E00F01BF805481D
:10056000416821F0E06141F00071416008BD000088
:100570000010024000000140002809DB00F01F02CB
:10058000012191404009800000F1E020C0F80011F5
:1005900070470000F0B40E4B1B680C46C3F30223F7
:1005A000C3F10705042D00D90425191D072901D21F
:1005B000002300E0DB1E012606FA05F1491E21405A
:1005C00099409E40761E16403143F0BC01F08CBA33
:1005D0000CED00E0064900F0070208684FF6FF0343
:1005E000184040EA0220034A1043086070470000A8
:1005F0000CED00E00000FA052DE9F0470F4605007C
:1006000061D0434E306800F00700B84209D230682C
:1006100020F0070038433060306800F00700B8422F
:1006200051D128683B4C810712D5400703D560683B
:1006300040F4E06060602878000703D5606840F40B
:10064000605060606068A96820F0F0000843606056
:100650002878C00728D06868012810D021680228AF
:1006600010D0890700292EDA616821F003010143C7
:100670006160FFF7F1FE804641F288390DE02168A4
:100680008903EFE78901EDE7FFF7E6FEA0EB08013C
:10069000494502D90320BDE8F0876068696800F029
:1006A0000C00B0EB810FEFD1306800F00700B842CA
:1006B0000BD9306820F0070038433060306800F014
:1006C0000700B84201D00120E5E72878400705D5AA
:1006D0006068E96820F4E0600843606028780007FB
:1006E00006D56068296920F4605040EAC100606066
:1006F00000F058F86168084AC1F30311515CC84022
:100700000649086006480068FFF7C6FE0020C2E7F9
:100710000020024000100240723800083000002023
:10072000280000200F2202600C4A536803F00303E4
:100730004360536803F0F0038360536803F4E0639D
:10074000C36052684FF4E06303EAD20202610448D6
:10075000006800F0070008607047000000100240C9
:10076000002002400448054900684968044AC1F372
:100770000221515CC8407047300000200010024048
:10078000823800080448054900684968044AC1F3F2
:10079000C221515CC8407047300000200010024068
:1007A000823800080E4A51680E4801F00C03042BF1
:1007B00011D0082B0FD10C48C1F38343C903C05C8F
:1007C0000AD55168084AC1F34041921E515C054A5E
:1007D0005043B0FBF1F070470449484370470000B4
:1007E0000010024000127A006238000800093D0043
:1007F0002DE9F84F040070D02078C04DC00749D0D3
:100800006868C0F38100012807D06868C0F38100E0
:10081000022809D16868C00306D52868800339D545
:1008200060680028E7D035E06068B0F5803F0BD005
:1008300010B1B0F5A02F11D0286820F480302860C6
:10084000286820F4802002E0286840F48030286086
:10085000606890B1FFF700FE06460AE0286840F4A1
:1008600080202860F0E700BFFFF7F6FD801B6428BA
:1008700073D828688003F7D50CE0FFF7EDFD064636
:1008800005E000BFFFF7E8FD801B6428F0D828686A
:100890008003F7D420789A4E80074FF001094FF07B
:1008A000000839D5686810F00C0F07D06868C0F3ED
:1008B0008100022809D16868C00306D4286880072F
:1008C00014D52069012808D110E02069B0B1C6F81C
:1008D0000090FFF7C1FD074605E00AE1FFF7BCFD08
:1008E000C01B0228C4D828688007F7D5286861692A
:1008F00020F0F80040EAC10028600DE0C6F8008052
:10090000FFF7AAFD074604E0FFF7A6FDC01B02287B
:1009100023D828688007F7D4207800072CD5794899
:10092000A169D9B1C0F80090FFF796FD074604E031
:10093000FFF792FDC01B02280FD8686A8007F7D521
:1009400071484FF4FA510068B0FBF1F0009000BF1D
:100950000098411E0091FAD20EE080E0C0F80080BD
:10096000FFF77AFD074604E0FFF776FDC01B02287B
:1009700075D8686A8007F7D42078400760D5E869A1
:100980000027C00008D4E86940F08050E861E869B9
:10099000012700F0805000905C480168C90513D41D
:1009A0000168834641F480710160FFF755FD82467E
:1009B00006E000BFFFF750FDA0EB0A0064284ED808
:1009C000DBF80000C005F5D5E06801280AD008B1C1
:1009D000052813D0286A20F001002862286A20F038
:1009E000040002E0286A40F001002862E06841F259
:1009F000883B98B1FFF730FD82460BE0286A40F053
:100A000004002862EEE700BFFFF726FDA0EB0A0115
:100A100059455AD8286A8007F6D50CE0FFF71CFD27
:100A2000824605E0FFF718FDA0EB0A0159454CD8B6
:100A3000286A8007F6D41FB1E86920F08050E86189
:100A4000E06988B36968C1F38101022944D00228B2
:100A5000C6F8608004D0FFF7FFFC044638E034E0BD
:100A6000FFF7FAFC074604E0FFF7F6FCC01B02287C
:100A70002BD828688001F7D4206AB0F5803F05D1D3
:100A80006868A16820F4003008436860D4E9080170
:100A90000843696821F4741108436860C6F86090DF
:100AA000FFF7DAFC044606E025E000BFFFF7D4FCC0
:100AB000001B022809D828688001F7D51BE000BF79
:100AC000FFF7CAFC001B022802D90320BDE8F88FFB
:100AD00028688001F4D40EE00128F7D06868226A03
:100AE00000F48031914204D1616A00F470108842B0
:100AF00001D00120EAE70020E8E7000000100240F2
:100B00000000424280044242300000200070004059
:100B10007047704710B590F83C20012A22D001227E
:100B200080F83C20CA688C6822F4407222434C68EA
:100B300022F4806222430C6822F4006222430C6992
:100B400022F4805222434C6922F400522243C969A4
:100B5000002322F480420A4301684A6480F83C3052
:100B6000002010BD022010BD70B590F83C20012A75
:100B700026D0012480F83C40022280F83D20036802
:100B80005A689D6822F070060A6832435A600D4B1D
:100B900002689A4208D0B2F1804F05D00A4B9A42BF
:100BA00002D00A4B9A4204D1496825F080031943C8
:100BB000916080F83D40002180F83C10084670BDEF
:100BC000022070BD002C01400004004000080040DD
:100BD00010B5040003D094F83D0010B107E00120E7
:100BE00010BD002084F83C00204600F01FF80220D1
:100BF00084F83D00211D206800F088FD012084F864
:100C0000460084F83E0084F83F0084F8400084F8F1
:100C1000410084F8420084F8430084F8440084F8DA
:100C2000450084F83D00002010BD000008B50068B4
:100C30000649884208D10648816941F40061816112
:100C4000806900F40060009008BD0000002C0140A5
:100C50000010024090F83D10012901D0012070479A
:100C6000022180F83D100168CA6842F00102CA60A2
:100C700000680B49884208D0B0F1804F05D009497F
:100C8000884202D00849884204D1816801F00701F6
:100C9000062903D0016841F001010160002070477E
:100CA000002C0140000400400008004070B50446DC
:100CB00090F83C000025012817D0012684F83C60FC
:100CC000022084F83D002068826822F0770222F436
:100CD0007F4282600868502838D00DDC20284FD031
:100CE00005DC90B3102811D14AE0022070BD3028F5
:100CF00046D040280AD13BE060282FD070280DD084
:100D0000B0F5805F03D0B0F5005F12D0012584F804
:100D10003D60002084F83C00284670BDCB68D1E9D6
:100D20000121206800F03BFD2068816841F07701D7
:100D300009E0CB68D1E90121206800F030FD20688E
:100D4000816841F480418160E1E719E0CA6849683F
:100D5000206800F0D9FD5021206806E0CA68496883
:100D6000206800F0E2FD6021206800F022FDCEE75F
:100D7000CA684968206800F0C7FD40212068F4E790
:100D8000226801461046F0E72DE9F0410D460400C7
:100D900003D094F83D0018B108E00120BDE8F081CF
:100DA000002084F83C00204600F040F8022084F83F
:100DB0003D002068816844F2070291438160211D53
:100DC000206800F0A3FC226890689169166A2B687D
:100DD000AF69034340F20330814341EA0721A86829
:100DE000EF6908434FF6FC418843E96840EA072071
:100DF000014328692F6A000140EA07300843696807
:100E00006D6926F0220646EA05152943936022689B
:100E1000906154F8460B0162012004F81F09E07547
:100E20002076E0762077A0750020B7E700B585B082
:100E3000002100910191029103910068B0F1804F6F
:100E400016D10C48C16941F00101C161C16901F0CD
:100E500001010491816941F0040181618069694661
:100E600000F004000490032000900348FFF7F6F917
:100E700005B000BD001002400008014070B590F8B8
:100E80003E60044690F83F5090F8423090F843207E
:100E9000022021B104290ED0012E1BD114E0012E15
:100EA00018D1012B16D184F83E0084F842000122AB
:100EB0000021206820E0012D0CD1012A0AD184F8FC
:100EC0003F0084F8430014E0012D03D1012B01D130
:100ED000012A01D0012070BD84F83E0084F83F0053
:100EE00084F8420084F8430001220021206800F0C9
:100EF00049FC01220421206800F044FC20680168BC
:100F000041F001010160002070BD70472DE9F04102
:100F100004460068C66805694FF00007A90713D5A5
:100F2000B10711D5F91E0161012020772068806981
:100F30008007204602D0FFF7E8FF04E000F0A4F8A5
:100F4000204600F036F92777680716D5700714D5C4
:100F500021686FF004000861022020772068806912
:100F600010F4407F204602D0FFF7CFFF04E000F0EE
:100F70008BF8204600F01DF92777280715D5300794
:100F800013D521686FF008000861042020772068DD
:100F9000C0698007204602D0FFF7B7FF04E000F0E9
:100FA00073F8204600F005F92777E80616D5F00615
:100FB00014D521686FF010000861082020772068A0
:100FC000C06910F4407F204602D0FFF79EFF04E086
:100FD00000F05AF8204600F0ECF82777E80708D030
:100FE000F00706D021686FF001000861204600F08C
:100FF0002FF9280608D5300606D521686FF0800045
:1010000008612046FFF784FD680608D5700606D5FE
:1010100021686FF040000861204600F023F9A8061F
:101020000AD5B00608D521686FF020000861204677
:10103000BDE8F041FFF76DBDBDE8F08100B585B0BA
:101040000021009101910291039100680B498842AF
:1010500012D10B48816941F00401816180696946C0
:1010600000F0040004904FF4006000900220019012
:1010700003900448FFF7F2F805B000BD002C0140D2
:101080000010024000080140704770B5044690F817
:101090003C0000260D4601280FD0012084F83C00BA
:1010A0006AB1042A1DD0082A2FD00C2A3FD001266D
:1010B000002084F83C00304670BD022070BD2068DE
:1010C00000F080FB2068816941F00801816120689F
:1010D000816921F004018161206881692A691143D5
:1010E00011E0206800F096FB2068816941F40061FE
:1010F00081612068816921F4806181612068816952
:101100002A6941EA02218161D2E7206800F0AEFB42
:101110002068C16941F00801C1612068C16921F0FE
:101120000401C1612068C1692A69114311E0206886
:1011300000F0C8FB2068C16941F40061C16120680A
:10114000C16921F48061C1612068C1692A6941EAED
:101150000221C161ACE710B5040003D094F83D0052
:1011600010B107E0012010BD002084F83C002046AB
:1011700000F01EF8022084F83D00211D206800F0D8
:10118000C5FA012084F8460084F83E0084F83F0048
:1011900084F8400084F8410084F8420084F8430059
:1011A00084F8440084F8450084F83D00002010BD18
:1011B0007047704710B50446022249B104290ED089
:1011C000082913D094F84100012816D0012010BD41
:1011D00094F83E000128F9D184F83E200FE094F8FD
:1011E0003F000128F2D184F83F2008E094F8400045
:1011F0000128EBD184F8402001E084F8412001224D
:10120000206800F0BFFA0F492068884203D1426C81
:1012100042F4004242642068884208D0B0F1804F16
:1012200005D00949884202D00849884204D1816822
:1012300001F00701062903D0016841F001010160B6
:10124000002010BD002C01400004004000080040B8
:1012500000680349884201D1FFF704B970470000D4
:1012600000040040704770B5040004D094F84100B9
:10127000002510B106E0012070BD84F840502046E2
:1012800000F024F8242084F841002068C16821F48B
:101290000051C160204600F081FB2068016921F403
:1012A000904101612068416921F02A014161206873
:1012B000C16841F40051C1606564202084F8410098
:1012C00084F842006563002070BD000030B585B031
:1012D0000024009401940294039400681449884205
:1012E00024D11448816941F480418161816901F40C
:1012F00080410491816941F00401816180690E4D52
:1013000000F0040004904FF400700090022001905F
:101310000320039069462846FEF7A0FF2815CDE973
:101320000004694628460294FEF798FF05B030BDD8
:101330000038014000100240000801402DE9F84348
:10134000044690F84100984616460D46202802D0E3
:101350000220BDE8F88385B17EB1002060642120C1
:1013600084F84100FFF778F8A6848146E684A068F7
:101370002027B0F5805F02D003E00120E9E7206973
:1013800010B12E4600250EE000260CE080212046FC
:1013900000F060FBA8B9C6B116F8010B21684860DF
:1013A000E08C401EE084E08C4B464FF00002CDF80C
:1013B00000800028EAD14FF04001204600F04AFBAF
:1013C00040B184F841700320C3E735F8020BC0F345
:1013D0000800E3E784F841700020BAE7FEE7000068
:1013E00010B5154A0221052000F022FD134C124AC7
:1013F0000221E0611832052000F01AFD0E4A206239
:10140000903A00210E4800F073FD0B4AE0606C3A00
:1014100000210C4800F06CFD074A2061483A002189
:10142000094800F065FD044A6061243A002107483C
:1014300000F05EFDA06110BD303800080000002003
:1014400079160008DD1C0008A12800087D1C000892
:101450002DE9F04385B000242848009401940294BB
:101460000394816941F010018161816901F01001EB
:101470000491816941F020018161816901F02001BD
:101480000491816941F004018161816901F00401E5
:101490000491816941F0080181618069DFF8608011
:1014A00000F008004FF4805704900022394640466F
:1014B000FEF7CCFF012251034046FEF7C7FFDFF8DD
:1014C0004490012239464846FEF7C0FF4FF4405091
:1014D00001250226CDE90005CDE9024669464046D0
:1014E000FEF7BCFE00970396CDE9015469464846D5
:1014F000FEF7B4FE05B0BDE8F08300000010024026
:10150000000C01400008014010B596B000240F9473
:1015100010941194129413941C2108A81494FEF7AB
:1015200066FE20216846FEF762FE284826490160D3
:1015300041F61F41C0E901146321C0E9031444616D
:101540008461FFF745FB08B1FEF786FE4FF480503B
:101550000F900FA91D48FFF7A9FB08B1FEF77CFE0D
:101560001A48FFF7F8FD08B1FEF776FE139413A9A9
:1015700016481494FFF7F8FA08B1FEF76DFE6020E4
:10158000CDE908040A940C940D940C2208A90F4884
:101590000E94FFF77AFD08B1FEF75EFE00944FF45B
:1015A0000050CDE904400294019403946946074831
:1015B0000794FFF7AFFA08B1FEF74EFE0348FFF7B6
:1015C0003DFD16B010BD0000002C0140B800002009
:1015D00010B58CB024216846FEF709FE0024164899
:1015E00009944FF080410A94C0E900144FF6FF714E
:1015F000C0E90241046184610320CDE900040120B7
:10160000CDE9020406210491CDE90540CDE9074169
:1016100069460948FFF7B8FB08B1FEF71DFE0994BB
:1016200009A905480A94FFF79FFA002801D0FEF7A0
:1016300013FE0CB010BD0000000100200C4810B5D6
:101640000A4901604FF4E1314160002181600C22C0
:10165000C160C0E904128161C161FFF704FE002886
:1016600003D0BDE81040FEF7F7BD10BD00380140C3
:1016700048010020FEE7FEE74FF47A74204600F0B0
:101680006AFBFBE710B54FF0E020006901F0D2FEE5
:10169000012803D0BDE8104001F092BB10BD30B569
:1016A0008FB028216846FEF7A2FD14210AA8FEF794
:1016B0009EFD01210804CDE90010002402940225BA
:1016C0000491CDE907504FF4E01009906846FFF708
:1016D0008FF808B172B6FEE70F20CDE90A054FF486
:1016E0008060CDE90C4002210AA80E94FEF784FF29
:1016F000002801D072B6FEE70FB030BD7047000081
:101700000148FFF703BC000090010020F0B502681B
:10171000194B1A4C1A4D4FF08047984205D0B842E9
:1017200003D0A04201D0A84203D122F070064A683B
:101730003243984205D0B84203D0A04201D0A8421B
:1017400003D122F44074CA6822434C6922F080021B
:10175000224302608A68C2620A688262984201D1AA
:1017600009690163012141610169C90703D0016968
:1017700021F001010161F0BD002C01400004004096
:101780000008004010B501F01F030121046A9940D0
:101790008C430462016A9A401143016210BD10B586
:1017A000846842EA032224F47F440A43224382608D
:1017B00010BD826822F070020A4342F00701816086
:1017C0007047000030B5036A026A22F0010202622B
:1017D0004268846924F073050C682C4323F00205E9
:1017E0008B682B430A4DA8420BD123F00805CB6828
:1017F00022F440722B434D6923F0040315438A6998
:101800002A434260846149684163036230BD00003D
:10181000002C014030B5026A036A23F01003036212
:10182000436884690D6824F4E64444EA05248D681D
:1018300022F0200242EA05120B4DA8420ED1CD68DB
:1018400022F0800242EA05124D6923F4406343EA24
:1018500085038D6922F0400243EA85034360846179
:1018600049688163026230BD002C014030B5036AD3
:10187000026A22F4807202624268C46923F400732F
:1018800024F073050C682C438D6843EA05230C4D46
:10189000A8420ED1CD6823F4006343EA05234D69C5
:1018A00022F4405242EA05128D6923F4806342EA31
:1018B00005124260C4614968C163036230BD000023
:1018C000002C014030B5046A026A22F480520262A0
:1018D0004268C3690D6823F4E64343EA05238D6833
:1018E00024F4005444EA0534064DA84204D14D695D
:1018F00022F4804242EA85124260C3614968016471
:10190000046230BD002C014010B5036A046A24F063
:1019100001040462846924F0F00444EA021423F010
:101920000A020A438461026210BD10B5036A046AA8
:1019300024F010040462846923F0A00324F47044AA
:1019400044EA023243EA01118261016210BD01687A
:101950000C3151E8002F22F4907241E80023002B53
:10196000F5D10168143151E8002F22F0010241E85D
:101970000023002BF5D1016B012909D101680C313D
:1019800051E8002F22F0100241E80023002BF5D18E
:10199000202180F8421000210163704770B5044691
:1019A00000680169E26821F4405111430161216935
:1019B000A0680843616908432168CA6841F20C6362
:1019C0009A430243CA6020684169A26921F44071C8
:1019D000114341611E492068884202D1FEF7D2FEC0
:1019E00001E0FEF7BFFE00EBC00101EB00126068F2
:1019F00064218000B2FBF0F3B3FBF1F36FF0180643
:101A00007343B2FBF0F5B2FBF0F605EB830532232E
:101A100003EB0515B5FBF1F5B6FBF1F605F0F005A6
:101A200005EB0615B2FBF0F6B2FBF0F0B0FBF1F0FF
:101A30006FF01802504306EB800003EB0010B0FB80
:101A4000F1F0216800F00F002844886070BD0000AC
:101A5000003801402DE9F843984617460D460446E4
:101A6000089E24E0701C22D0FEF7F6FCA0EB0800D4
:101A7000B0421AD8CEB12068C168490717D5802D69
:101A800015D0402D13D00168C94309070FD4016850
:101A90000025406800902046FFF759FF0820606449
:101AA00084F840500120BDE8F8830320FBE720685C
:101AB000006835EA000004D00020B842D2D00020EF
:101AC000F1E70120F9E7FEE70FB4054B10B503A9D4
:101AD000044A029800F028F810BC5DF814FB0000DE
:101AE000C51C0008B40000200907090E002804DB0B
:101AF00000F1E02080F80014704700F00F0000F1C2
:101B0000E02080F8141D704702E008C8121F08C1C9
:101B1000002AFAD170477047002001E001C1121F6E
:101B2000002AFBD1704700002DE9FF4F89B09B468A
:101B30000446002506E025280BD05A460B9990470D
:101B4000641C6D1C20780028F5D10DB02846BDE836
:101B5000F08F0027B8460122474900E0074314F8F8
:101B6000013F203B02FA03F00842F7D120782E28EB
:101B700019D114F8010F47F004072A280ED06FF08E
:101B80002F022078A0F1300109290CD808EB880138
:101B900002EB410100EB0108641CF2E70A98641CA7
:101BA00050F8048B0A9020780028CED0642808D002
:101BB000692806D075281ED05A460B9990476D1C8F
:101BC00058E00A994FF00A0901C90A91002802DA7F
:101BD00040422D2102E0390504D52B218DF820103B
:101BE000012103E0F90704D02021F7E78A4608AE77
:101BF0000DE00021FAE70A994FF00A0901C90A919C
:101C0000F7E74946FEF7FEFA303106F8011D0028D5
:101C1000F7D1ADEB060000F12009780701D44FF0B1
:101C20000108C84502DDA8EB090000E0002080465D
:101C3000002706E008A85A46C05D0B9990476D1C26
:101C40007F1C5745F6DB04E030205A460B9990473D
:101C50006D1CB8F10001A8F10108F5DC05E016F8EB
:101C6000010B5A460B9990476D1CB9F10001A9F17F
:101C70000109F4DC641C65E7092801000F4D104CD4
:101C80004FF4FA462968486A4E62A0F5FA40E080AF
:101C90002189012308440A4920810022891DE06925
:101CA00000F0F2F80649012300220831206A00F012
:101CB000EBF81E2000F04FF8E4E7000000010020E0
:101CC0000000002013B54FF0FF330122694602489F
:101CD000FFF734FB00981CBD4801002000250127B8
:101CE0000F4CDFF840A0A8466E424FF480594FF4E5
:101CF0007A7B207810B1012805D009E0284600F051
:101D000075FD277004E0304600F070FD84F8008017
:101D100049465046FEF792FB584600F01CF8E8E7AB
:101D20000000002000080140FEF7A4FBFFF7B7FC0D
:101D3000FFF78EFBFFF782FCFFF7E6FBFFF748FC9F
:101D400000F082FD00F09EFD00F012F8FFF748FB66
:101D500000F020F8FEE710B5EFF3058111B16FF048
:101D6000050403E0002408B100F0F0FE204610BD99
:101D7000EFF3058010B16FF005007047044801686B
:101D800011B14FF0FF307047012101600020704712
:101D90008400002010B5EFF3058010B16FF005004E
:101DA00010BD08480168012902D04FF0FF3010BD76
:101DB000054A002182F8141D0221016000F02EFF67
:101DC000002010BD840000200BE000E0F8B51D46A7
:101DD0006FF003026FF002064FF00004EFF305838B
:101DE000A3B1F0B1E9B1E5B9002200926A4601F071
:101DF00041FA012817D10098B0B10C494FF080503A
:101E00000860BFF34F8FBFF36F8F0DE048B141B152
:101E10002A4601F093F9012806D025B16FF001049C
:101E200002E0144600E034462046F8BD04ED00E030
:101E3000F8B514464FF00005EFF3058212BB08B366
:101E400001B3A4B1D4E9023263B1502A1AD3226992
:101E5000C2B1676900FB01F6B74213D3009500F0E9
:101E6000E6FF07E072B9226962B9626952B90022DD
:101E700000F0BCFF050005D00CB1216800E0002196
:101E800000F02EFE2846F8BDF8B51D466FF003029F
:101E90006FF002064FF00004EFF30583ABB100B31F
:101EA000F9B1F5B90022134600926A4601F0E6F84E
:101EB000012818D10098B8B10C494FF08050086043
:101EC000BFF34F8FBFF36F8F0EE050B149B10023C6
:101ED0002A4601F023F8012806D025B16FF001044D
:101EE00002E0144600E034462046F8BD04ED00E070
:101EF0002DE9FF414FEA01034FF00005EFF30581A3
:101F0000039549BB40B38027182100244AB31668C3
:101F100006B1344696691EB13146761E382E02D27D
:101F20001679F60703D0002004B0BDE8F0815669A9
:101F300006B1B708D2F808C0BCF1000F0DD0D568C3
:101F40005C2D18D312693AB136B18DE806103A46C5
:101F5000214601F044FA03900DE0D6685EB912699B
:101F60004AB903AACDE90012BAB2214601F00AFA31
:101F7000012800D003950398D6E700002DE9F04131
:101F8000134C0F460546E6682068001D00F0AAFCC9
:101F9000681C07D137B12168BDE8F0410D48091D23
:101FA00000F0F0BC20683544B5424560216805D298
:101FB000A06BBDE8F041091D00F0CCBC606B091DB1
:101FC00000F0C8FCA06A854200D2A562BDE8F0819D
:101FD00034000020C80600202DE9F041054600F03D
:101FE000DDFC2D4CA068401CA06020682B4F10B178
:101FF000606930B32BE02560A068012827D1002656
:1020000006EB860007EB800000F096FC761C382E6D
:10201000F6D3234800F090FC2148143000F08CFCEB
:102020001F48283000F088FC1D483C3000F084FC3C
:102030001B48503000F080FC194860631430A063E6
:1020400005E02068E96AC06A884200D82560606AB5
:10205000401C60626864E86A2169884200D9206196
:1020600000EB800007EB8000291D00F08BFC00F0E6
:10207000B5FC606900280CD02068E96AC06A884213
:1020800007D208494FF080500860BFF34F8FBFF36D
:102090006F8FBDE8F081000034000020180200209E
:1020A0007806002004ED00E038B500F077FC104C15
:1020B0002068C8B90F4800F03FFC0E48143000F00B
:1020C0003BFC0C48E060143020610A4B0020F03BE0
:1020D000009003F1500210210A2000F0A8FE2060B9
:1020E00010B105A100F0FCFCBDE8384000F076BC62
:1020F00070000020CC070020546D725100000000D9
:1021000030B4026C0B46002A0BD0C1681144C16088
:102110008468A14201D30168C16030BC1846FEF753
:102120004DB830BC70472DE9F041856B1746044629
:102130000026026C82B1C7B1E068FEF73FF8E168A3
:10214000206C091AE1602268914202D2A168081A43
:10215000E060022F16D017E02068A8B9A06801F04F
:10216000E1F906460020A0600EE06068FEF726F860
:10217000216C606808446060A168884204D32068CC
:10218000606001E005B16D1E6D1CA5633046BDE8C1
:10219000F08110B5044690F8590058B101280CD0D0
:1021A00002280FD0502080F31188BFF34F8FBFF368
:1021B0006F8FFEE7206B00F025FC2046BDE8104045
:1021C00000F020BC10BD000010484FF440614207F1
:1021D00006D0C01D0D4920F00700411AC1F540612D
:1021E0000B4A00230144C2E900030839183A21F0E0
:1021F000070111604B600B600B1AC0E9001393607C
:102200004FF000405360506170470000AC0E00205A
:10221000A0000020144E154CA6F29C474FF08058A9
:10222000DFF84C9012E000BF00F0B8FBF068C56822
:10223000281D00F057FBA068401EA0606068401E8B
:10224000606000F0CBFB2846FFF7A3FF6068002822
:10225000EAD138680128F9D9C9F80080BFF34F8F57
:10226000BFF36F8FF2E70000B406002034000020B7
:1022700004ED00E070B51D46049C51B1C4F8002087
:10228000C4E90F010121204600F004FE84F84C50FF
:1022900070BD2460F4E700002DE9F05F8846DDE9B9
:1022A0000B941546834691009A460A9EA522206B00
:1022B000FDF796FF6FF00301206B01EB85010844E9
:1022C00020F00707780707D0502080F31188BFF36C
:1022D0004F8FBFF36F8FFEE70025B8F1000F0FD0CF
:1022E0005FF00000221818F8001082F8341018F877
:1022F000001011B1401C1028F4D384F8435001E0C1
:1023000084F83450382E00D33726E662C4E91365CA
:10231000201D00F01CFB04F1180000F018FB2461E4
:10232000C6F138006462A061656584F85850524671
:102330005946384600F094FA2060B9F1000F01D0F8
:10234000C9F80040BDE8F09F30B5114900E01146E2
:102350000A688242FBD34B685C18844203D1406810
:1023600018444860084643681C18944209D1084C38
:10237000183C2468A24209D052681A4442600A6894
:1023800012680260814200D0086030BD0460F9E745
:10239000A000002070B5002441600B4D0061914207
:1023A00006D8D11A8269914206D2011D286907E038
:1023B0009A4203D2994201D3012403E0011DE86847
:1023C00000F0C8FA204670BD7000002010B5044629
:1023D00000F0E4FAA06B28B15FF0000400F0FEFA10
:1023E000204610BD0124F9E730B589B03C4D6EE0C0
:1023F0000498002806DADDE90601059A904704985A
:10240000002864DB069C606910B1201D00F06AFAA8
:1024100003A800F0D7F8024604980A2857D2DFE84C
:1024200000F00505052D334A05052D3394F82800E5
:1024300040F0010084F828000599A069059B01443B
:102440002046FFF7A7FF68B3216A2046884794F823
:10245000280040073BD5002000900598A169002383
:1024600042181946204601F067F9D8B9502080F388
:102470001188BFF34F8FBFF36F8FFEE714F8280F5B
:1024800020F00100207022E094F8280040F00100C4
:1024900084F828000598A06128B1811813462046C9
:1024A000FFF778FF13E0502080F31188BFF34F8FC0
:1024B000BFF36F8FFEE794F82800810703D420460E
:1024C00000F0A0FA03E020F0010084F828000022C8
:1024D00004A9286800F032FE002889D109B030BD77
:1024E000700000202DE9FC410F46054600F0DAFBA4
:1024F00001A800F067F80446019818B101F08AF8C5
:10250000BDE8FC81254EAFB130690068D0B300272B
:10251000291B3A46306800F0F7FA01F07BF80028F2
:10252000EED11F494FF080500860BFF34F8FBFF3CB
:102530006F8FE5E7A542EBD801F06CF8F06827460D
:10254000C068C468201D00F0CDF994F82800410748
:1025500019D5A0692B4641193A462046FFF71AFFC4
:10256000A8B100200346014600902A46204601F00B
:10257000E3F860B9502080F31188BFF34F8FBFF3A9
:102580006F8FFEE707E020F0010084F82800216A41
:1025900020468847B4E70127BAE700007000002012
:1025A00004ED00E00648416B096829B1416BC96838
:1025B000C9684968816270474FF0FF31FAE700004F
:1025C0003400002070B5054600F042FF064E044678
:1025D000B068844203D200F009F8012000E0002036
:1025E00028602046B46070BD70000020F8B5194D19
:1025F00020E0C068C4680668201D00F073F9216AF5
:102600002046884794F82800400713D5A069304435
:10261000B04206D924616060211DE86800F09AF993
:1026200008E000200346014600903246204601F0B3
:1026300083F838B1E86801680029DAD12969C5E969
:102640000310F8BD502080F31188BFF34F8FBFF304
:102650006F8FFEE77000002008484068401C4FF074
:10266000500080F3118804D0BFF34F8FBFF36F8FFA
:10267000FEE7BFF34F8FBFF36F8FFEE7A800002088
:10268000074CE068016841B1C0680021D0F8000043
:10269000FFF728FFFFF7A8FEF3E701210020F7E787
:1026A000700000202DE9F041044600F077F994F91C
:1026B000455004F1240609E0606A48B1304600F054
:1026C00071FF08B100F070FA6D1E6DB2002DF3DCE1
:1026D0004FF0FF3684F8456000F080F900F05EF9B5
:1026E00094F9445004F1100709E0206948B13846D4
:1026F00000F058FF08B100F057FA6D1E6DB2002DC2
:10270000F3DC84F84460BDE8F04100F067B90000F4
:102710002DE9F0410546002700F0C4FA324E30683A
:1027200008B9FFF751FD706905424ED1C5B30835B0
:1027300068070ED005F00700C0F1080005446807DF
:1027400007D0502080F31188BFF34F8FBFF36F8FF6
:10275000FEE72DB37068854237D82348183001460C
:102760000C6801E020460C466168A94202D221684B
:102770000029F7D131688C4227D0076821680160B1
:1027800060680837411B10290FD96019420708D02B
:10279000502080F31188BFF34F8FBFF36F8FFEE798
:1027A00013E041606560FFF7CFFD61687068401A13
:1027B0007060B268904200D2B0607069014300203E
:1027C000C4E90001F068401CF06000F023FF7807C6
:1027D00007D0502080F31188BFF34F8FBFF36F8F66
:1027E000FEE73846BDE8F081880000202DE9F04181
:1027F0004FF48051124E4F00124D044664280CD8FD
:1028000000223046FDF722FE012239463046FDF710
:102810001DFE28680464BDE8F08114F164000AD349
:1028200001223046FDF712FE002239463046FDF700
:102830000DFE604200E0002029680864EBE700001C
:10284000000C0140B800002010B50C210348FEF731
:10285000B1FCBDE810400020FFF7C8BFB800002061
:1028600010B5031F4FF080741C601B1F21F0010185
:102870001960191F024B0B60143940380A6010BDF3
:102880005926000810B53C210448FEF7F7FA034921
:102890004FF4FA400968486210BD000000010020B2
:1028A0004FF0FF350C4C0C492B460022891CE06987
:1028B000FFF78CFA08492B460022091D206AFFF712
:1028C00085FAB4F90420B4F9021004A0FFF7FCF86B
:1028D0000120FFF740FAE6E70000002025642C25E0
:1028E000640A0000D0E9013201699A60D0E901234D
:1028F0005A604A68824201D182684A6000220261BD
:102900000868401E0860086870470000034B0360B9
:1029100003F15C000860802010607047F40700201D
:10292000044B036003F15C0008604FF4807010609A
:1029300070470000500A002000F108014FF0FF32FC
:10294000C0E90112C16001610021016070470021EE
:102950000161704730B50B685A1C02D000F10802C3
:1029600002E0026904E02246546825689D42FAD9D3
:1029700053684B6099608A60516008610168491C26
:10298000016030BD42684A6093688B60936859600B
:10299000916008610168491C01607047502080F314
:1029A0001188BFF34F8FBFF36F8F0A494868401CEF
:1029B000486001280CD10848006810F0FF0F07D0CC
:1029C000502080F31188BFF34F8FBFF36F8FFEE766
:1029D00070470000A800002004ED00E008494868A6
:1029E00028B1401E486001D180F311887047502003
:1029F00080F31188BFF34F8FBFF36F8FFEE70000A6
:102A0000A800002070B500282AD0164DA0F10804B7
:102A100060686969084207D1502080F31188BFF3CC
:102A20004F8FBFF36F8FFEE722683AB1502080F3DB
:102A30001188BFF34F8FBFF36F8FFEE7884360604D
:102A400000F030F960686968084468602046FFF764
:102A50007BFC2869401C2861BDE8704000F0DABDAD
:102A600070BD0000880000204FF0E02000210161CF
:102A7000816105494FF47A720968B1FBF2F1491E90
:102A800041610721016170473000002010B5FDF75A
:102A90007FFB114910280ED300F1E02090F8F003DD
:102AA0000A78904207D2502080F31188BFF34F8FED
:102AB000BFF36F8FFEE709480068896800F4E060A3
:102AC000884207D9502080F31188BFF34F8FBFF39E
:102AD0006F8FFEE710BD0000A80000200CED00E0A5
:102AE00010B5084B002200BF53F832401CB1521CF5
:102AF000082AF9D310BD43F8321003EBC201486035
:102B000010BD0000D801002070B515460E460446E1
:102B1000FFF744FF94F944100020491C01D184F8C8
:102B2000440094F94510491C01D184F84500FFF791
:102B300055FFA06B28B92A46314604F1240000F065
:102B400051F82046BDE87040FFF7ACBD10B502005B
:102B500014D00F48006B38B1502080F31188BFF3B8
:102B60004F8FBFF36F8FFEE700F09CF800211046F7
:102B7000FFF704FA00F04EFD002807D105494FF099
:102B800080500860BFF34F8FBFF36F8F10BD000000
:102B90003400002004ED00E002490A6A0260C968BE
:102BA000416070473400002001490120C86170472E
:102BB0003400002010B50C4650B10949096818319D
:102BC000FFF7C8FE2046BDE810400121FFF7D6B947
:102BD000502080F31188BFF34F8FBFF36F8FFEE754
:102BE0003400002070B514460D4668B10A490968E2
:102BF0001831FFF7C7FE0CB14FF0FF3521462846CC
:102C0000BDE87040FFF7BAB9502080F31188BFF3D8
:102C10004F8FBFF36F8FFEE73400002030B587B0D1
:102C20000024039405AA04A903A80494FFF76EFEE8
:102C3000DDE903010094CDE90110002315A1174837
:102C4000059A00F0CCFB164D0028E8621FD000F07A
:102C500043FD012809D0401C19D1502080F3118870
:102C6000BFF34F8FBFF36F8FFEE7502080F31188C3
:102C7000BFF34F8FBFF36F8F4FF0FF30A86201207B
:102C80006861EC6007B0BDE8304000F045B807B0BF
:102C900030BD000049444C450000000015220008EA
:102CA000340000200248016B491C0163704700009A
:102CB00034000020164810B5016B11B10121C1612B
:102CC00010BD0021C1610169124A01E0B9B1491E7C
:102CD00001EB810352F82330002BF7D001EB810385
:102CE00002EB830202F1080453685B685360A3425D
:102CF00001D15B685360DA680260016110BD502049
:102D000080F31188BFF34F8FBFF36F8FFEE7000092
:102D100034000020180200201CB5264908780190D4
:102D2000FF20087008788DF800009DF800009DF8DD
:102D3000002000F0F000904207D0502080F311886E
:102D4000BFF34F8FBFF36F8FFEE79DF800001A4C63
:102D500000F0500020700720A06005E09DF80020E2
:102D600052008DF80020401E9DF800201206F5D478
:102D7000A060032807D0502080F31188BFF34F8F45
:102D8000BFF36F8FFEE74FF44070A06001980870AA
:102D90000A48016841F470010160016841F0704126
:102DA0000160FFF761FE00206060FDF7BBF90020C5
:102DB0001CBD000000E400E0A800002020ED00E0C1
:102DC00010B5502080F31188BFF34F8FBFF36F8F82
:102DD00000F044FB18B104494FF080500860002017
:102DE00080F3118810BD000004ED00E0F8B517462F
:102DF0000E46050013D005FB06F05030FFF788FCA7
:102E000004000AD0002084F8460004F150023B463A
:102E1000314628460094FFF72DFA2046F8BD502091
:102E200080F31188BFF34F8FBFF36F8FFEE738B584
:102E3000049D18B153B1CAB181B120E0502080F394
:102E40001188BFF34F8FBFF36F8FFEE7502080F3E1
:102E50001188BFF34F8FBFF36F8FFEE7502080F3D1
:102E60001188BFF34F8FBFF36F8FFEE739B150204A
:102E700080F31188BFF34F8FBFF36F8FFEE75024AD
:102E80001C46012384F846302B460094FFF7F2F9E4
:102E9000204638BD70B50D46040025D0FFF77EFDF5
:102EA000D4E90F20216802FB0011A1600021A16379
:102EB000216861600A46D4E90F01401E00FB012130
:102EC000E16021464FF0FF3001F8440F487004F1F3
:102ED00010008DB1FFF730FD04F12400FFF72CFD49
:102EE000FFF77CFD012070BD502080F31188BFF3F7
:102EF0004F8FBFF36F8FFEE721690029F0D000F0FC
:102F000051FB0028ECD004494FF080500860BFF31B
:102F10004F8FBFF36F8FE3E704ED00E02DE9FF472C
:102F200082B01D468A464FF00008040003D0BAF173
:102F3000000F08D011E0502080F31188BFF34F8FAD
:102F4000BFF36F8FFEE7206C38B1502080F31188FB
:102F5000BFF34F8FBFF36F8FFEE7022D0AD1E06BF7
:102F6000012807D0502080F31188BFF34F8FBFF3A3
:102F70006F8FFEE700F05EFA3F4F4FF000094FF011
:102F8000805648B9049838B1502080F31188BFF3B7
:102F90004F8FBFF36F8FFEE7FFF700FDA06BE16B74
:102FA000884207D3022D05D00498D0B1B8F1000FA4
:102FB0001AD01EE02A4651462046FFF7B4F8616A4F
:102FC00019B104F1240000F0EDFA20B13E60BFF326
:102FD0004F8FBFF36F8FFFF701FD012006B0BDE8F3
:102FE000F087FFF7FBFC22E06846FFF7D5FD4FF0C6
:102FF0000108FFF7F3FCFFF755FEFFF7CFFC94F94C
:103000004400401C01D184F8449094F94500401CD0
:1030100001D184F84590FFF7E1FC04A9684600F06F
:1030200077F930B12046FFF73DFB00F0F3FA0020BE
:10303000D4E7FFF7B3FCA06BE16B884213D1FFF735
:10304000CDFC04F110000499FFF7B4FD2046FFF712
:1030500029FB00F0DFFA00289ED13E60BFF34F8FBE
:10306000BFF36F8F98E7FFF7B9FC2046FFF71AFB15
:1030700000F0D0FA90E7000004ED00E02DE9F04701
:103080001F4690468946040003D0B9F1000F08D0CE
:1030900011E0502080F31188BFF34F8FBFF36F8F83
:1030A000FEE7206C38B1502080F31188BFF34F8FBA
:1030B000BFF36F8FFEE7022F0AD1E06B012807D024
:1030C000502080F31188BFF34F8FBFF36F8FFEE75F
:1030D000FFF7DCFC5020EFF3118680F31188BFF37B
:1030E0004F8FBFF36F8FA06BE16B884206D3022F27
:1030F00004D0002086F31188BDE8F08794F945508C
:10310000A06B3A4649462046FFF70DF8681C04D0EC
:103110006D1C84F845500120ECE7606A0028FAD065
:1031200004F1240000F03EFA0028F4D0B8F1000FBA
:10313000F1D00121C8F80010EDE700002DE9F747B4
:10314000002683B08A46040003D0BAF1000F08D0ED
:1031500011E0502080F31188BFF34F8FBFF36F8FC2
:10316000FEE7206C38B1502080F31188BFF34F8FF9
:10317000BFF36F8FFEE700F05DF9DFF8F4804FF0EA
:1031800000094FF0805748B9059838B1502080F3B6
:103190001188BFF34F8FBFF36F8FFEE7FFF7FEFB82
:1031A000A56BC5B151462046FEF7AAFF6D1EA5636B
:1031B000206950B104F1100000F0F4F928B1C8F80A
:1031C0000070BFF34F8FBFF36F8FFFF707FC012035
:1031D00006B0BDE8F087059808B11EB106E0FFF71C
:1031E000FDFB27E06846FFF7D7FC0126FFF7F6FB5B
:1031F000FFF758FDFFF7D2FB94F94400401C01D1C2
:1032000084F8449094F94500401C01D184F845901D
:10321000FFF7E4FB05A9684600F07AF8002820468D
:103220000AD0FFF73FFA00F0F5F92046FFF7CEF895
:103230000028B3D00020CBE7FFF7C8F890B104F125
:1032400024000599FFF7B6FC2046FFF72BFA00F0A3
:10325000E1F90028A2D1C8F80070BFF34F8FBFF387
:103260006F8F9BE72046FFF71DFA00F0D3F995E733
:1032700004ED00E02DE9F04790468946040003D0B4
:10328000B9F1000F08D011E0502080F31188BFF38E
:103290004F8FBFF36F8FFEE7206C38B1502080F363
:1032A0001188BFF34F8FBFF36F8FFEE7FFF7EEFB81
:1032B0005020EFF3118680F31188BFF34F8FBFF3D7
:1032C0006F8FA76BF7B194F9445049462046FEF73B
:1032D00017FF7F1EA763681C04D06D1C84F8445040
:1032E000012010E020690028FAD004F1100000F05D
:1032F00059F90028F4D0B8F1000FF1D00121C8F835
:103300000010EDE7002086F31188BDE8F08700008B
:103310002DE9F0410C46050011D0C4B1FFF73EFB8A
:10332000174BDA686E682068911B471C17D02F680E
:103330001B6A9F4219D0964217D8012410E05020F2
:1033400080F31188BFF34F8FBFF36F8FFEE75020DC
:1033500080F31188BFF34F8FBFF36F8FFEE7002418
:10336000FFF73CFB2046BDE8F081884205D9401AB2
:1033700020602846FFF710FCF1E700202060DCE722
:10338000340000202DE9FF5F8346DDE90E87994672
:1033900016468A469000FFF7BBF905001CD05C205A
:1033A000FFF7B6F9040014D00020256384F8590013
:1033B000CDE90240CDE900874B463246514658469A
:1033C000FEF76AFF2046FEF707FE012004B0BDE8C5
:1033D000F09F2846FFF716FB4FF0FF30F6E7F0B5F9
:1033E00085B0DDE90B640A9DA6B1DCB15C270097CE
:1033F0002663022684F85960002604AFCDE9024610
:10340000CDE90057FEF748FF2046FEF7E5FD04989A
:1034100005B0F0BD502080F31188BFF34F8FBFF38C
:103420006F8FFEE7502080F31188BFF34F8FBFF3FB
:103430006F8FFEE70548416919B1006B18B1002094
:1034400070470120704702207047000034000020C0
:103450000148C06870470000340000202DE9F041A9
:103460002E4C0027206B28B1A069401CA061384673
:10347000BDE8F081E668761CE66013D1606B0068F9
:1034800038B1502080F31188BFF34F8FBFF36F8F97
:10349000FEE7606BA16B6163A063206A401C206241
:1034A000FFF780F8A06ADFF87880864209D3606B66
:1034B0000068A0B1606BC068C5686868864211D2B8
:1034C000A0622068C06A00EB800158F82100012842
:1034D00000D90127E0690028C9D00127C7E74FF0CC
:1034E000FF30EDE7281DFFF7FDF9A86A18B105F1D7
:1034F0001800FFF7F7F9E86A2169884200D92061CE
:1035000000EB800108EB8100291DFFF73BFAE86A18
:103510002168C96A8842CAD30127C8E7340000205D
:103520001802002070B504004FF0000133D01B4D8D
:103530002868844207D0502080F31188BFF34F8F52
:10354000BFF36F8FFEE7206D38B1401E2065E36C3E
:10355000E26A9A421FD040B11DE0502080F31188EA
:10356000BFF34F8FBFF36F8FFEE7201DFFF7BAF950
:10357000E06CE062C0F13800A061E06A296988422D
:1035800000D92861064900EB800001EB8000211D75
:10359000FFF7F8F90121084670BD00003400002053
:1035A0001802002070B5C068C46854B104F1180056
:1035B0000646FFF797F9144D286B50B13146134872
:1035C00015E0502080F31188BFF34F8FBFF36F8F4A
:1035D000FEE7201DFFF786F9E06A2969884200D9D5
:1035E00028610B4900EB800001EB8000211DFFF7F3
:1035F000C9F9E06A2968C96A884202D90120E861EC
:1036000070BD002070BD000034000020A006002026
:10361000180200202DE9F0472C4D00242746286B86
:1036200038B1FFF7BBF9286B401E2863286B40B107
:1036300046E0502080F31188BFF34F8FBFF36F8FA8
:10364000FEE7A968224E0120D1B3A6F59169804614
:103650003068E0B1F068C46804F11800FFF742F97F
:10366000201DFFF73FF9E06A2969884200D92861E7
:1036700000EB800109EB8100211DFFF783F9E06A6F
:103680002968C96A8842E3D3C5F81C80E0E70CB119
:10369000FEF788FFAC694CB14FEA0806FFF7DEFE83
:1036A00000B1EE61641EF9D10020A861E86938B16B
:1036B0000849012738070860BFF34F8FBFF36F8FAA
:1036C000FFF78CF93846BDE8F08700003400002091
:1036D000A006002004ED00E010B586B0FEF7E4FC83
:1036E000114C2068B8B100200390049005AA04A9E9
:1036F00003A8FFF715F9DDE9032102208DE8070093
:1037000000230AA10B48059AFFF769FE606010B11B
:1037100006B0012010BD502080F31188BFF34F8FF9
:10372000BFF36F8FFEE7000070000020546D722021
:1037300053766300812600082DE9FF411E4613469B
:1037400002000A9D4FF0000016D0144C2768002F8D
:103750000FD0CDE900130292062917DAFFF76AFEAF
:1037600002284FF000030FD0002269462068FFF7BF
:10377000D5FB04B0BDE8F081502080F31188BFF381
:103780004F8FBFF36F8FFEE72A46EEE700233246E6
:1037900069463846FFF772FCEBE700007000002036
:1037A000BC3800080000000000000000000000001D
:1037B00000000000000200001800000000000000EF
:1037C00000000000AC38000800000000000000000D
:1037D00000000000000000000002000018000000CF
:1037E0000000000000000000C838000800000000D1
:1037F00000000000000000000000000000020000C7
:10380000080000000000000000000000D838000898
:1038100000000000000000000000000000000000A8
:10382000000200000800000000000000000000008E
:103830009C380008000000000000000000000000AC
:1038400000000000000000008C38000800000000AC
:103850000000000000000000000000000000000068
:10386000010202030405060708090A0B0C0D0E0FDE
:103870001010000000000000000001020304060711
:10388000080900000000010203040000656E636F78
:10389000646572717565756532000000656E636FF1
:1038A0006465727175657565000000006C65646122
:1038B0006E646D6F746F725461736B0064656661E2
:1038C000756C745461736B0075736172745F7365AA
:1038D0006E747461736B0000646174615F636F6C1C
:1038E0006C6563747461730008390008000000207F
:1038F000B8000000081B0008C0390008B80000200C
:10390000F81D0000181B0008000000000000000067
:1039100000000000000000000000000000000000A7
:103920000000000000000000000000000100000096
:10393000100000000000000000127A0000000000EB
:103940000000000000000000000000000000000077
:103950000000000000000000000000000000000067
:103960000000000000000000000000000000000057
:103970000000000000000000000000000000000047
:103980000000000000000000000000000000000037
:103990000000000000000000000000000000000027
:1039A0000000000000000000000000000000000017
:1039B00000000000AAAAAAAA00000000000000005F
:04000005080000ED02
:00000001FF
