:020000040800F2
:100000004006002001010008092B0008A129000872
:10001000B52A0008CF0400082534000800000000BD
:10002000000000000000000000000000DD2B0008C0
:10003000D905000800000000B12B00088D2C000835
:100040001B0100081B0100081B0100081B01000820
:100050001B0100081B0100081B0100081B01000810
:100060001B0100081B0100081B0100081B01000800
:100070001B0100081B0100088D0500089D050008F4
:100080001B0100081B0100081B0100081B010008E0
:10009000153400081B0100081B0100081B010008A3
:1000A0001B0100081B0100081B0100081B010008C0
:1000B000F92C00081B0100081B0100081B010008A7
:1000C0001B0100081B0100081B0100081B010008A0
:1000D0001B010008053400081B0100081B01000873
:1000E0001B0100081B0100081B010008DFF80CD0F1
:1000F00000F0BCF9004800474538000840060020E1
:100100000648804706480047FEE7FEE7FEE7FEE7B1
:10011000FEE7FEE7FEE7FEE7FEE7FEE7F52C000858
:10012000ED000008D2B201E000F8012B491EFBD21D
:1001300070470022F6E710B513460A4604461946F2
:10014000FFF7F0FF204610BDF0B480EA0102D40FA3
:100150004200B2EB410F02D20246084611464A0065
:1001600042D0C30DDDB2C1F3C752AD1A202D35DA2E
:10017000C1F3160141F4000204B15242C5F1200658
:1001800002FA06F12A411044B3EBD05F23D0C4B188
:10019000012DA0EBC35009DCF0BC4FF0004202EA95
:1001A000C352DBB200F5000000F032B9400000F1AC
:1001B000807000EBC350A0F1807040EAD17049001C
:1001C00009E0490841EAC071A0EBC35000F5000006
:1001D000400800EBC350F0BC00F011B961420122AD
:1001E00002EB4101001BF6E7F0BC704781F00041D3
:1001F000AAE780F00040A7E780EA010210B502F00C
:100200000043400022D04A001FD0010E01EB1261D2
:10021000C0F35600C2F3560240F4000042F400025C
:10022000A0FB022000047F39140400D0401C50EAD7
:10023000124001D44000491EC2B20C0604EBD0109B
:10024000401C4008802A02D003E0002010BD20F0AE
:100250000100002900DA0020184310BD30B480EA04
:10026000010202F0004530F0004221F0004013D0BE
:1002700090B1C30DD40DC2F31601C0F31600E41AF9
:1002800041F4000140F400027D34914201D3641C2A
:1002900000E04900002C02DA30BC002070474FF427
:1002A00000000023914201D3891A034340084FEA1A
:1002B0004101F7D151B1914202D14FF0004105E027
:1002C00002D24FF0010101E06FF0010103EBC450D5
:1002D000284430BC00F093B8C10F80EAE0700844B5
:1002E000CA079623002100F093B800F0004220F0E6
:1002F0000040C10DC0F3160040F400007F2901DA70
:1003000000207047962903DCC1F19601C84001E046
:1003100096398840002AF4D04042704700F00042ED
:1003200030F000400AD0C10D01F56071C0F3160035
:1003300042EA0151C20840071143704700200146BC
:100340007047000030B5041E71F1000404DB4FF06B
:100350000044404264EB0101141E73F1000405DB0C
:100360001C464FF00043524263EB0403994208BF1E
:10037000904230BD002801DBC0F10040002901DBC4
:10038000C1F1004181427047002801DBC0F100400B
:10039000002901DBC1F10041884270472DE9F05F7F
:1003A0000546002092469B468846064681464024E4
:1003B0001BE0284641464746224600F078F853465F
:1003C0005A46C01A914110D311461846224600F0F1
:1003D0005FF82D1A67EB01084F46224601200021E5
:1003E00000F056F817EB00094E41201EA4F101045D
:1003F000DFDC484631462A464346BDE8F09F0029E7
:10040000A8BF7047401C490008BF20F0010070479A
:1004100010B4B0FA80FC00FA0CF050EA010404BFFA
:1004200010BC704749B1CCF1200421FA04F411FA50
:100430000CF118BF012121430843A3EB0C01CB1D94
:100440004FEA00614FEA102042BF002010BC704705
:1004500000EBC35010440029A4BF10BC7047401CDF
:10046000490008BF20F0010010BC7047064C074D42
:1004700006E0E06840F0010394E807009847103474
:10048000AC42F6D3FFF736FE503A0008703A000847
:10049000202A04DB203A00FA02F100207047914044
:1004A000C2F1200320FA03F3194390407047202A39
:1004B00004DB203A21FA02F00021704721FA02F30E
:1004C000D040C2F12002914008431946704700BF56
:1004D000FEE7000000B58BB0002001900290039071
:1004E00004900590069007900120089009900E2036
:1004F0000A9001A9024800F058F90BB000BD0000B5
:100500003401002010B502F04DFAFFF7E3FF044874
:1005100000F0EDFC0221024800F08DF810BD000053
:100520003401002070B588B004460D46164602948A
:10053000002004900590069601AB2A4602A90648C1
:1005400000F08EF830B105A002F06EFF0AA002990B
:1005500002F06AFF08B070BD3401002043414EE54F
:100560008F91E98081E695B0E68DAEE5A4B1E8B45F
:10057000A5210D0A00000000E68AA5E696874944F9
:100580003A30782578210D0A0000000010B50248A5
:1005900000F066FD10BD0000F000002010B502481C
:1005A00000F05EFD10BD0000AC00002030B590F8FA
:1005B00040500124AC40C56B6C60046863604468C3
:1005C000102C04D10468A2600468E16003E00468B0
:1005D000A1600468E26030BD70472DE9F041054636
:1005E0000C460026A878697840EA0126E06980F088
:1005F0000047024610233946304603F0F1F92060E7
:100600000026E8780001297940EA21160C223046BC
:10061000216A03F0BFF9606000266879297940EA11
:100620000120C0F30B060C223046616A03F0B2F9D8
:10063000A060BDE8F08110B5024692F82030012B91
:1006400001D0022B06D1106840690843146860612C
:10065000002010BD506A40F4802050620120F8E76D
:10066000F0B504460D461E4694F820702068836855
:10067000A86800B900E000BF012F01D0022F7DD192
:1006800003F0806030B903F0006018B903F08050C7
:1006900000287ED0C3F30161012088403060A86843
:1006A00060B9B5F800C0E86840EA4C5C206800F525
:1006B000C07000EB0110C0F800C00FE0D5E901C028
:1006C00040EACC00D5F80CC040EA0C00D4F800C0D9
:1006D0000CF5C07C0CEB011CCCF80000D5F810C068
:1006E000206800F5C07000EB0110C0F804C0287D40
:1006F00001280ED1206800F5C07000EB01104068A1
:1007000040F4807C206800F5C07000EB0110C0F858
:1007100004C0D079000692F806C040EA0C4092F876
:1007200005C040EA0C2092F804C040EA0C00D4F85E
:1007300000C00CF5C07C0CEB011CCCF80C00D07890
:10074000000692F802C040EA0C4092F801C040EA6C
:100750000C2092F800C040EA0C00D4F800C00CF560
:10076000C07C0CEB011CCCF80800206800F5C070C0
:1007700000EB0110006840F0010C01E00FE008E020
:10078000206800F5C07000EB0110C0F800C0002028
:10079000F0BD606A40F4001060620120F8E7606A12
:1007A00040F4802060620120F2E7F0B504460A467A
:1007B000216894F82050012D01D0022D74D1D1F878
:1007C000000240F00100C1F80002107D00F01F0699
:1007D000012000FA06F3D1F81C029843C1F81C026C
:1007E000D069C8B9D1F80C029843C1F80C029088BE
:1007F00080B2968940EA064601F51070576940F8C4
:100800003760108880B2168940EA064601F51070FC
:10081000576900EBC7004660D069012819D1D1F8AB
:100820000C021843C1F80C02908880B2168840EA86
:10083000064601F51070576940F83760908980B21C
:10084000168940EA064601F51070576900EBC700AB
:100850004660906928B9D1F804029843C1F80402AF
:1008600004E0D1F804021843C1F80402106928B961
:10087000D1F814029843C1F8140204E0D1F814022C
:100880001843C1F81402106A012804D1D1F81C02DF
:100890001843C1F81C02D1F8000220F00100C1F891
:1008A00000020020F0BDFFE7606A40F48020606233
:1008B0000120F7E7704770B5044694F82050012DE9
:1008C00001D0022D7DD151B92068C06800F003002D
:1008D00080B9606A40F400106062012070BD206839
:1008E000006900F0030028B9606A40F400106062FB
:1008F0000120F3E7206800F5D87000EB01100068D4
:1009000000F004009060906840B9206800F5D8704D
:1009100000EB01100068400D106007E0206800F552
:10092000D87000EB01100068C0085060206800F526
:10093000D87000EB0110006800F00200D060206861
:1009400000F5D87000EB0110406800F00F00082897
:1009500002D30820106108E0206800F5D87000EB91
:100960000110406800F00F001061206800F5D87099
:1009700000EB0110406800F47F40000A906120689D
:1009800000F5D87000EB01104068000C5061206841
:1009900000F5D87000EB011080681870206800F531
:1009A000D87000EB0110806800F47F40000A587096
:1009B000206800F5D87000EB0110806800F47F001B
:1009C00000E03CE0000C9870206800F5D87000EB67
:1009D00001108068000ED870206800F5D87000EB18
:1009E0000110C0681871206800F5D87000EB011084
:1009F000C06800F47F40000A5871206800F5D87084
:100A000000EB0110C06800F47F00000C98712068B2
:100A100000F5D87000EB0110C068000ED87131B934
:100A20002068C06840F020002668F06005E020687B
:100A3000006940F020002668306100204EE7606ABF
:100A400040F480206062012048E72DE9F05F044611
:100A50000025206846692068D0F8049020688768DF
:100A60002068D0F80CA02068D0F810B02068D0F82A
:100A7000188006F00100002855D007F00100C0B131
:100A800001202168886007F0020018B1204600F0BC
:100A90005EFA0EE007F0040010B145F4006508E0CE
:100AA00007F0080010B145F4805502E0204600F040
:100AB0004DFA07F48070C8B14FF4807021688860E7
:100AC00007F4007018B1204600F043FA0EE007F476
:100AD000806010B145F4005508E007F4006010B1E3
:100AE00045F4804502E0204600F032FA07F48030F9
:100AF000C8B14FF480302168886007F4003018B125
:100B0000204600F028FA0EE007F4802010B145F4EA
:100B1000004508E007F4002010B145F4803502E0FC
:100B2000204600F017FA06F0080038B10AF010006D
:100B300020B145F4007510202168C86006F004005B
:100B400040B10AF0080028B108202168C86020469A
:100B500000F0A8F906F0020038B12068C06800F083
:100B6000030010B1204600F09FF906F0400038B1B4
:100B70000BF0100020B145F4806510202168086159
:100B800006F0200040B10BF0080028B108202168D1
:100B90000861204600F0A8F906F0100038B120687E
:100BA000006900F0030010B1204600F09EF906F441
:100BB000003040B109F0100028B1102021684860D1
:100BC000204600F093F906F4803040B109F00800A7
:100BD00028B1082021684860204600F0BDF906F4DD
:100BE000004088B309F0040078B306F4807020B1A7
:100BF00008F0010008B145F0010506F4007020B1CD
:100C000008F0020008B145F0020506F4806020B14A
:100C100008F0040008B145F0040506F40060A0B136
:100C200008F0700088B108F07000402817D006DC8A
:100C300010280BD020280CD0302819D10CE05028D7
:100C400010D0602814D110E01DE019E045F008052F
:100C50000FE045F010050CE045F0200509E045F0F7
:100C6000400506E045F0800503E045F4807500E0AE
:100C700000BF00BF2068806920F070002168886193
:100C80000420216848602DB1606A284360622046D4
:100C9000FFF710FEBDE8F09F70B504460CB90120C7
:100CA00070BD94F8200010B9204600F0AFF820681D
:100CB000006840F001002168086000F0B1FC0546C2
:100CC0000DE000F0ADFC401B0A2808D9606A40F432
:100CD00000306062052084F820000120E0E72068F1
:100CE000406800F001000028EBD02068006820F088
:100CF00002002168086000F093FC05460DE000F05A
:100D00008FFC401B0A2808D9606A40F400306062FA
:100D1000052084F820000120C2E72068406800F028
:100D200002000028EBD1207E012806D1206800684F
:100D300040F080002168086005E02068006820F02D
:100D4000800021680860607E012806D12068006864
:100D500040F040002168086005E02068006820F04D
:100D6000400021680860A07E012806D12068006844
:100D700040F020002168086005E02068006820F04D
:100D8000200021680860E07E012806D12068006804
:100D900020F010002168086005E02068006840F03D
:100DA000100021680860207F012806D120680068B3
:100DB00040F008002168086005E02068006820F025
:100DC000080021680860607F012806D1206800685B
:100DD00040F004002168086005E02068006820F009
:100DE000040021680860D4E902010843216908432E
:100DF000616908436168491E08432168C861002091
:100E00006062012084F82000002049E710B586B018
:100E10000446002002900390049005901E4920682B
:100E2000884236D100BF1D48C06940F000701B49A0
:100E3000C8610846C06900F00070019000BF00BFA3
:100E400000BF0846806940F0040088610846806958
:100E500000F00400019000BF00BFC8140290002001
:100E60000390049002A90E4800F04AFA4FF4805013
:100E70000290022003900320059002A9084800F088
:100E80003FFA01220021142000F027FC142000F07A
:100E900014FC06B010BD00000064004000100240C9
:100EA000000801407047000030B587B004460025B7
:100EB0000B4B6A4600212046FFF7FDFC68B90298FB
:100EC00008B9009D00E0019D064890F83800A8424E
:100ED00003D104490248FFF780FB07B030BD000092
:100EE000100000200002002070477047704770B566
:100EF000044694F82000012822D1022084F8200022
:100F00002068006820F001002168086000F088FB7C
:100F100005460DE000F084FB401B0A2808D9606AF2
:100F200040F400306062052084F82000012070BD8C
:100F30002068406800F001000028EBD16062F6E70D
:100F4000606A40F4002060620120F0E7704770475B
:100F5000704770477047704770470146002291F80C
:100F60002100022808D00420886300BF002081F8F7
:100F7000200000BF012070470868006820F00E00C4
:100F80000B6818600868006820F001000B681860A2
:100F900091F8403001209840CB6B5860012081F8D7
:100FA000210000BF002081F8200000BF1046E2E7CA
:100FB00070B50446002594F82100022803D00420CF
:100FC000A063012548E02068006820F00E00216839
:100FD00008602068006820F00100216808601F494F
:100FE0002068884201D1012026E01C491431206884
:100FF000884201D110201FE018492831206888421A
:1010000001D1801518E015493C312068884201D192
:10101000801411E0114950312068884202D14FF408
:10102000803009E00D4964312068884202D14FF4D4
:10103000801001E04FF080700849083948600120B5
:1010400084F8210000BF002084F8200000BF606BFE
:1010500010B12046616B8847284670BD08000240E9
:1010600070B50446E06B05682068066894F8401087
:10107000042088402840002846D006F004000028BC
:1010800042D02068006800F0200028B9206800687D
:1010900020F004002168086057492068884201D187
:1010A000042027E0544914312068884201D14020AF
:1010B00020E0514928312068884201D1001519E00B
:1010C0004D493C312068884202D14FF4804011E004
:1010D000494950312068884202D14FF4802009E00C
:1010E000454964312068884202D14FF4800001E014
:1010F0004FF08060404908394860E06A00287AD0A3
:101100002046E16A884776E094F840100220884043
:101110002840A0B306F0020088B32068006800F001
:10112000200040B92068006820F00A0021680860AB
:10113000012084F8210030492068884201D1022032
:1011400028E02D4914312068884201D1202021E077
:10115000294928312068884201D140151AE02649E2
:101160003C312068884202D14FF4005012E02249FD
:1011700050312068884203D14FF400300AE017E074
:101180001D4964312068884202D14FF4001001E00B
:101190004FF0007018490839486000BF002084F8FB
:1011A000200000BFA06A30B32046A16A884722E031
:1011B00094F84010082088402840E0B106F008006C
:1011C000C8B12068006820F00E002168086094F81B
:1011D000401001208840E16B48600120A06384F842
:1011E000210000BF002084F8200000BF206B10B158
:1011F0002046216B884770BD08000240014600224E
:1012000009B901207047164B0868C01A1423B0FBB7
:10121000F3F08000086412480838C863022081F89F
:1012200021000868026843F6F0708243D1E90103A7
:101230001843CB6818430B6918434B6918438B69F3
:101240001843CB6918430243086802600020886392
:10125000012081F82100002081F8200000BFD1E7A3
:10126000080002402DE9F04104460D4616461F468F
:101270004FF0000800BF94F82000012802D102209E
:10128000BDE8F081012084F8200000BF94F821001F
:1012900001282CD1022084F821000020A0632068BE
:1012A000006820F00100216808603B46324629466C
:1012B0002046FFF77BF9E06A30B12068006840F013
:1012C0000E00216808600BE02068006820F0040030
:1012D000216808602068006840F00A002168086002
:1012E0002068006840F001002168086006E000BF47
:1012F000002084F8200000BF4FF002084046BFE7FE
:101300002DE9F8470346002294466EE14FF00108AC
:1013100008FA02F4D1F8008008EA0400A0427DD166
:10132000DFF8DCA2D1F80480A8EB0A09D0453AD056
:1013300014DCB8F1030F50D009DCB8F1000F31D044
:10134000B8F1010F1CD0B8F1020F49D120E0B8F17B
:10135000110F18D0B8F1120F42D11EE0B9F5881F55
:1013600025D006DCB9F5803F20D0B9F5801F37D1F4
:101370001AE0B9F5001F18D0B9F5041F30D117E0F5
:10138000D1F80CC02DE0D1F80C8008F1040C28E055
:10139000D1F80C8008F1080C23E0D1F80C8008F19A
:1013A0000C0C1EE000BF00BF00BF00BF00BF00BFAD
:1013B000D1F80880B8F1000F02D14FF0040C0BE017
:1013C000D1F80880B8F1010F03D14FF0080C1C616F
:1013D00002E04FF0080C5C6103E04FF0000C00E00D
:1013E00000BF00BFFF2801D8984601E003F10408C0
:1013F0004646FF2802D84FEA820803E0A2F1080817
:101400004FEA88084746D6F800804FF00F0909FADE
:1014100007F928EA09080CFA07F900E088E048EA29
:101420000908C6F80080D1F8048008F08058B8F1A7
:10143000805F7DD100BFDFF8CC81D8F8188048F0FC
:101440000108DFF8C091C9F81880C846D8F818809C
:1014500008F00108CDF8008000BF00BF4FEAB9389E
:101460004FEA920958F829504FEA82784FEA1879E2
:101470004FF00F0808FA09F825EA0805DFF8888117
:10148000434502D14FF0000816E0DFF88081434564
:1014900002D14FF001080FE0DFF87481434502D11B
:1014A0004FF0020808E0DFF86C81434502D14FF0AD
:1014B000030801E04FF004084FEA82794FEA1979F6
:1014C00008FA09F848EA0505DFF84C814FEA920965
:1014D00048F82950D1F8048008F48018B8F5801F26
:1014E0000AD1DFF83881D8F8008048EA0008DFF830
:1014F0002C91C9F8008009E0DFF82081D8F800803D
:1015000028EA0008DFF81491C9F80080D1F80480B7
:1015100008F40018B8F5001F10D1DFF8008108F1B9
:101520000408D8F8008048EA0008DFF8F09000E0EE
:101530005AE009F10409C9F800800DE0DFF8DC8009
:1015400008F10408D8F8008028EA0008DFF8CC90F9
:1015500009F10409C9F80080D1F8048008F40038C2
:10156000B8F5003F0ED1DFF8B480A8F10408D8F830
:10157000008048EA0008DFF8A490A9F10409C9F83E
:1015800000800DE0DFF89480A8F10408D8F800800E
:1015900028EA0008DFF88490A9F10409C9F800805E
:1015A000D1F8048008F48038B8F5803F0ED1DFF818
:1015B0006C80A8F10808D8F8008048EA0008DFF835
:1015C0005C90A9F10809C9F800800DE0DFF84C80B3
:1015D000A8F10808D8F8008028EA0008DFF83C9055
:1015E000A9F10809C9F80080521CD1F8008028FA36
:1015F00002F8B8F1000F7FF489AEBDE8F88700006B
:10160000000011100010024000080140000C0140D1
:10161000001001400014014008000140080401408E
:10162000014800687047000004000020034800687B
:101630000349097808440149086070470400002004
:101640000C00002010B50848006840F01000064962
:101650000860032000F080F80F2000F007F800F089
:101660002BF8002010BD00000020024070B5044699
:101670000E4800784FF47A71B1FBF0F00C4909681C
:10168000B1FBF0F5284600F0D1FB08B1012070BD98
:10169000102C07D200222146501E00F01EF80548EB
:1016A000046001E00120F2E70020F0E70C000020D8
:1016B000000000200800002070470146084600286E
:1016C00009DB00F01F0301229A4043099B0003F14C
:1016D000E023C3F8002100BF70472DE9F05F80468A
:1016E0000D461646002701F0AFFE074639462A464A
:1016F000334601F00700C0F1070ABAF1040F02D91E
:101700004FF0040A01E0C0F1070AD14600F1040AD3
:10171000BAF1070F02D24FF0000A01E0A0F1030A6C
:10172000D4464FF0010A0AFA09FAAAF1010A0AEAB4
:10173000020A0AFA0CFA4FF0010B0BFA0CFBABF1A0
:10174000010B0BEA030B4AEA0B042146404601F069
:1017500083FEBDE8F09F000000BF00F00702064BCB
:1017600019684FF6FF031940044B0B4343EA02216B
:10177000014B196000BF70470CED00E00000FA0556
:1017800070B504460D460CB9012070BD5A4800687A
:1017900000F00700A8420ED25748006820F007006A
:1017A0002843554908600846006800F00700A84231
:1017B00001D00120E9E7207800F0020002281DD1C5
:1017C000207800F00400042805D14C48406840F41B
:1017D000E0604A494860207800F00800082805D1F8
:1017E0004648406840F46050444948604348406877
:1017F00020F0F000A168084340494860207800F0DC
:10180000010078B36068012806D13C48006800F404
:10181000003090B90120B8E76068022806D1374847
:10182000006800F0007040B90120AEE7334800685E
:1018300000F0020008B90120A7E73048406820F016
:101840000300616808432D494860FFF7E9FE06463A
:1018500009E0FFF7E5FE801B41F28831884202D99A
:10186000032092E707E02548406800F00C0061681B
:10187000B0EB810FEDD12048006800F00700A842CE
:101880000ED91D48006820F0070028431A49086057
:101890000846006800F00700A84201D0012074E764
:1018A000207800F00400042807D11448406820F490
:1018B000E060E168084311494860207800F00800C2
:1018C000082808D10D48406820F46050216940EA9A
:1018D000C1000A49486000F03FF808494968C1F36F
:1018E0000311074A515CC840064908600648006871
:1018F000FFF7BCFE002048E7002002400010024035
:10190000263A000800000020080000200148006876
:10191000704700000000002000B5FFF7F7FF044902
:101920004968C1F30221034A515CC84000BD000070
:1019300000100240363A000800B5FFF7E7FF0449FF
:101940004968C1F3C221034A515CC84000BD000090
:1019500000100240363A000870B500210022002431
:1019600000230020134D696801F00C05F5B1042D2A
:1019700002D0082D19D101E00F4819E00F4DC1F335
:101980008346AB5D01F4803555B10A4D6D68C5F3F2
:1019900040450B4E725D084D5D43B5FBF2F402E02D
:1019A000084D03FB05F4204602E000BF024800BFDB
:1019B00000BF70BD0010024000127A003E3A0008DD
:1019C0004E3A000800093D00F8B504460CB9012064
:1019D000F8BD207800F00100002878D0F848406871
:1019E00000F00C0004280CD0F548406800F00C0012
:1019F000082811D1F248406800F48030B0F5803FEB
:101A00000AD1EF48006800F4003000285FD0606819
:101A100000285CD10120DBE700BF6068B0F5803FA3
:101A200006D1E748006840F48030E549086028E0C6
:101A3000606858B9E248006820F48030E0490860E6
:101A40000846006820F4802008601AE06068B0F55D
:101A5000A02F0BD1DA48006840F48020D8490860F4
:101A60000846006840F4803008600AE0D448006806
:101A700020F48030D24908600846006820F48020B5
:101A8000086000BF606888B1FFF7CAFD054606E040
:101A9000FFF7C6FD401B642801D9032098E7C8481A
:101AA000006800F400300028F2D010E0FFF7B8FD25
:101AB000054606E0FFF7B4FD401B642801D903206A
:101AC00086E7BF48006800F400300028F2D1207893
:101AD00000F00200022857D1B948406800F00C001D
:101AE00050B1B748406800F00C00082818D1B4483D
:101AF000406800F4803098B9B148006800F00200F6
:101B000020B12069012801D0012061E7AC480068BC
:101B100020F0F800616940EAC100A949086033E09B
:101B20002069E8B10120A7490860FFF779FD054663
:101B300006E0FFF775FD401B022801D9032047E7A7
:101B40009F48006800F002000028F2D09C4800681E
:101B500020F0F800616940EAC1009949086013E08B
:101B6000002098490860FFF75BFD054606E0FFF797
:101B700057FD401B022801D9032029E7904800683F
:101B800000F002000028F2D1207800F008000828B8
:101B90002DD1A069B8B101208B490860FFF740FD45
:101BA000054606E0FFF73CFD401B022801D9032053
:101BB0000EE78348406A00F002000028F2D00120BE
:101BC00000F0F8FF13E000207F490860FFF728FDD0
:101BD000054606E0FFF724FD401B022801D903203B
:101BE000F6E67748406A00F002000028F2D120783B
:101BF00000F00400042873D100277148C06900F088
:101C0000805070B900BF6E48C06940F080506C4988
:101C1000C8610846C06900F08050009000BF00BF56
:101C200001276A48006800F48070B0B9674800680E
:101C300040F4807065490860FFF7F2FC054606E055
:101C4000FFF7EEFC401B642801D90320C0E65F4883
:101C5000006800F480700028F2D000BFE06801281E
:101C600006D15748006A40F001005549086227E054
:101C7000E06858B95248006A20F0010050490862F3
:101C80000846006A20F00400086219E0E0680528B0
:101C90000BD14B48006A40F00400494908620846ED
:101CA000006A40F0010008620AE04548006A20F03E
:101CB0000100434908620846006A20F004000862F7
:101CC00000BFE068A0B1FFF7ABFC054609E0FFF7F5
:101CD000A7FC401B41F28831884202D9032077E6F5
:101CE00022E03748006A00F002000028EFD012E03E
:101CF000FFF796FC054608E0FFF792FC401B41F217
:101D00008831884201D9032062E62D48006A00F03C
:101D100002000028F0D1012F05D12948C06920F028
:101D200080502749C86100BFE069C8B324484068B3
:101D300000F00C00082860D0E069022848D100209B
:101D400020490866FFF76CFC054606E0FFF768FCD3
:101D5000401B022801D903203AE61948006800F028
:101D600000700028F2D1206AB0F5803F07D11448F6
:101D7000406820F40030A168084311494860D4E964
:101D8000080108430E49496821F4741108430C49BD
:101D9000486001200B490866FFF742FC054607E052
:101DA0003DE0FFF73DFC401B022801D903200FE670
:101DB0000348006800F000700028F2D02FE0000017
:101DC0000010024000004242800442420070004085
:101DD000002014490866FFF723FC054606E0FFF7DC
:101DE0001FFC401B022801D90320F1E50E480068C2
:101DF00000F000700028F2D111E0E069012800D164
:101E0000E6E50948466806F48031206A814204D13B
:101E100006F47011606A814201D00120D8E50020EB
:101E2000D6E50000000042420010024070B50446B2
:101E30002546681EB0F1807F01D301200FE0681EA7
:101E40004FF0E02148610F214FF0FF3001F004FB1B
:101E500000204FF0E021886107200861002070BD5C
:101E60007047704730B502460B4600BF92F83C0001
:101E7000012801D1022030BD012082F83C0000BFC2
:101E8000022082F83D00106844681068816824F0E0
:101E900070041868044310684460104D1068A8422C
:101EA0000BD01068B0F1804F07D00D4D1068A842DC
:101EB00003D00C4D1068A84205D121F0800158686C
:101EC000014310688160012082F83D0000BF0020BE
:101ED00082F83C0000BF00BFCDE70000002C0140AD
:101EE000000400400008004010B504460CB9012071
:101EF00010BD94F83D0028B9002084F83C0020462D
:101F000000F026F8022084F83D00211D206800F032
:101F1000FBFE012084F8460000BF84F83E0001214A
:101F20003F200155402001554120015500BF00BF11
:101F3000012084F8420043200155442001554520EA
:101F4000015500BF012084F83D000020D0E70000CB
:101F500038B504462068B0F1804F15D100BF0B485A
:101F6000C06940F001000949C8610846C06900F035
:101F70000100009000BF00BF002211461C20FFF7A7
:101F8000ACFB1C20FFF799FB38BD0000001002409D
:101F9000014691F83D00012801D001207047022040
:101FA00081F83D000868C06840F001000B68D86007
:101FB000124B086898420BD00868B0F1804F07D0E8
:101FC0000F4B0868984203D00E4B086898420CD11A
:101FD0000868806800F00702062A0CD008680068CC
:101FE00040F001000B68186005E00868006840F0E8
:101FF00001000B6818600020D0E70000002C0140B1
:1020000000040040000800402DE9F04104460D4660
:10201000002700BF94F83C00012802D10220BDE84F
:10202000F081012084F83C0000BF022084F83D00CC
:102030002068866826F0770626F47F46206886604A
:102040002868502833D00CDC202850D004DC00282D
:102050004BD0102851D149E0302849D040284CD1EC
:1020600039E060282DD0702807D0B0F5805F03D00C
:10207000B0F5005F41D10DE041E0D5E902136A6897
:10208000206800F083FE2068866846F077062068A6
:10209000866034E0D5E902136A68206800F076FEB5
:1020A0002068806840F480402168886027E0EA6802
:1020B0006968206800F07EFE5021206800F071FE03
:1020C0001DE0EA686968206800F087FE60212068EA
:1020D00000F067FE13E0EA686968206800F06AFEB5
:1020E0004021206800F05DFE09E000BF00BF00BF96
:1020F0002968206800F055FE01E0012700BF00BFFD
:10210000012084F83D0000BF002084F83C0000BF9F
:10211000384684E7704770B504462068C568206873
:10212000066906F00200022819D105F00200022813
:1021300015D1401F2168086101202077206880693F
:1021400000F0030018B12046FFF7E4FF05E0204649
:1021500000F097F8204600F095F80020207706F070
:102160000400042819D105F00400042815D1C04347
:1021700021680861022020772068806900F440709F
:1021800018B12046FFF7C6FF05E0204600F079F8B9
:10219000204600F077F80020207706F00800082895
:1021A00019D105F00800082815D1C043216808613D
:1021B000042020772068C06900F0030018B1204691
:1021C000FFF7A8FF05E0204600F05BF8204600F08E
:1021D00059F80020207706F01000102819D105F0DA
:1021E0001000102815D1C04321680861082020770D
:1021F0002068C06900F4407018B12046FFF78AFFDC
:1022000005E0204600F03DF8204600F03BF80020B5
:10221000207706F0010048B105F0010030B16FF001
:10222000010021680861204600F02EF806F08000C9
:10223000802809D105F08000802805D1C04321689D
:1022400008612046FFF70CFE06F04000402809D147
:1022500005F04000402805D1C043216808612046B0
:1022600000F05EF806F02000202809D105F02000DB
:10227000202805D1C043216808612046FFF7F1FD01
:1022800070BD70477047000010B504462068B0F17B
:10229000804F3AD11D480068401C1C490860084620
:1022A000006840F6B831884215D10020174908600F
:1022B0001749C8680021FEF75DF803D11548144995
:1022C000C86008E01249C8681249FEF753F802D105
:1022D00000200F49C86001F0E5FA0F4800680C497A
:1022E0000861084600F012FC094840690B49C860C3
:1022F000094840680861084600F008FC0748406942
:1023000005498861084600F06AFC10BD18000020ED
:10231000CC0100200000A04000020020A401002009
:102320007047F8B504460D46164694F8420020283A
:102330002DD105B10EB90120F8BD01202063002088
:10234000606332462946204600F082FF0746206B34
:10235000012819D100BF002000902068006800907B
:1023600020684068009000BF00BF00BF00BF216828
:102370000C3151E8001F41F0100021680C3141E898
:102380000002002AF3D100E001273846D4E70220FA
:10239000D2E7000070B505460C4609492868884216
:1023A0000CD108A001F040F822460F490F4800F078
:1023B000AFFA40220C490D48FFF7B3FF70BD000093
:1023C000003801400D0AE695B0E68DAEE8BDACE5FB
:1023D0008F91E68890E58A9F2CE69CAAE4BDBFE732
:1023E00094A84350550D0A002400002064000020EA
:1023F000704700002DE9F84F044620680568206802
:10240000C668206847694FF00009CA4605F00F0901
:10241000B9F1000F0AD105F0200038B106F0200014
:1024200020B1204600F017FEBDE8F88FB9F1000F8B
:102430007BD007F0010018B906F49070002874D022
:1024400005F0010030B106F4807018B1606C40F006
:102450000100606405F0040030B107F0010018B11C
:10246000606C40F00200606405F0020030B107F0DB
:10247000010018B1606C40F00400606405F00800D1
:1024800048B106F0200010B907F0010018B1606CE7
:1024900040F008006064606C002845D005F0200022
:1024A00028B106F0200010B1204600F0D4FD2068CD
:1024B0004069C0F3801A606C00F0080010B9BAF1EE
:1024C000000F2CD0204600F06DFD2068406900F020
:1024D000400000B300BF00BF2168143151E8001F65
:1024E00021F040002168143141E80002002AF3D1B4
:1024F00000BFE06B50B17748E16B4863E06BFEF7DB
:1025000057FD88B1E06B416B88470DE02046FFF72F
:102510006FFF09E009E02046FFF76AFF04E020466C
:10252000FFF766FF002060647EE7206B012877D10B
:1025300005F01000002873D006F010000028FAD033
:1025400000BF00200090206800680090206840686C
:10255000009000BF00BF2068406900F040000028E4
:102560005FD0E06B006840681FFA80F8B8F1000F98
:1025700055D0A08D404552DDA4F82E80E06B8069D7
:10258000202843D000BF00BF21680C3151E8001F54
:1025900021F4807021680C3141E80002002AF3D157
:1025A00000BF00BF00BF2168143151E8001F21F0B7
:1025B00001002168143141E80002002AF3D100BF74
:1025C00000BF00BF2168143151E8001F21F0400016
:1025D0002168143141E80002002AF3D100BF202015
:1025E00084F842000020206300BF00BF21680C3146
:1025F00051E8001F21F0100021680C3141E8000271
:10260000002AF3D100BFE06BFEF7A7FC0220606355
:10261000A08DE28D801A81B22046FFF7BBFE03E752
:1026200042E0A08DE18D401A1FFA80F8E08DD0B312
:10263000B8F1000F37D000BF00BF21680C3151E85E
:10264000001F21F4907021680C3141E80002002A3B
:10265000F3D100BF00BF00BF2168143151E8001F53
:1026600021F001002168143141E80002002AF3D171
:1026700000BF202084F842000020206300BF00BF7C
:1026800021680C3151E8001F21F0100021680C3145
:1026900041E80002002AF3D100BF022060634146F6
:1026A0002046FFF777FEBFE605F0800030B106F068
:1026B000800018B1204600F02FFEB5E605F040007E
:1026C00030B106F0400018B1204600F0A1FCABE6A6
:1026D00000BFA9E6032E000810B504460CB901207E
:1026E00010BDA06900B100E000BF94F8410028B916
:1026F000002084F84000204600F02AF8242084F8C6
:1027000041002068C06820F400502168C86020465D
:1027100000F020FD2068006920F4904021680861E5
:102720002068406920F02A00216848612068C0685C
:1027300040F400502168C86000206064202084F8C4
:10274000410084F842000020606300BFC8E7000039
:1027500010B586B0044600200290039004900590C6
:1027600034492068884263D100BF3348806940F40F
:102770008040314988610846806900F480400190BA
:1027800000BF00BF00BF0846806940F004008861B8
:102790000846806900F00400019000BF00BF4815A2
:1027A0000290022003900320059002A92348FEF71F
:1027B000A7FD4FF48060029000200390049002A9CE
:1027C0001E48FEF79DFD1E481E4908600020486017
:1027D00000211C4881608021C160002101614161AC
:1027E0008161C161FEF70AFD00BF1648E0634462E3
:1027F00000BF1348143814490860102048600021B5
:10280000114881608021C1600021016141618161C5
:10281000C161FEF7F3FC00BF0B48A063446200BF38
:10282000002211462520FEF758FF2520FEF745FF20
:1028300006B010BD00380140001002400008014001
:1028400058000240AC000020F000002070477047A4
:102850002DE9F84F04460E46174699464FF0000AF8
:1028600094F84100202850D106B117B90120BDE8E5
:10287000F88F00206064212084F84100FEF7D0FE2C
:102880008246A784E784A068B0F5805F04D1206900
:1028900010B90025B04602E035464FF000081EE0B2
:1028A0005346002280212046CDF8009000F064FDC0
:1028B00020B1202084F841000320D8E745B9B8F8BA
:1028C0000000C0F308002168486008F1020803E036
:1028D0002878216848606D1CE08C401EE084E08C04
:1028E0000028DDD15346002240212046CDF800903B
:1028F00000F042FD20B1202084F841000320B6E71B
:10290000202084F841000020B1E70220AFE700005A
:10291000F7B50446154694F84100202836D10198B1
:1029200000B10DB90120FEBD01982062A584E584A7
:1029300000206064212084F841001548A16B886262
:102940001448A16BC8621448A16B08630020A16BF6
:10295000486301AE23681A1D31682B46A06BFEF751
:1029600081FC6FF040002168086000BF00BF216853
:10297000143151E8001F41F080002168143141E812
:102980000002002AF3D100BF0020CCE70220CAE7F2
:102990003F2F0008972F0008172E00087047704738
:1029A00000BFFEE710B50D480D49086004204860DF
:1029B00000210B488160C1604FF440310161090181
:1029C000416100210176012141768176C1760021A5
:1029D00001774177FEF760F910BD00000064004008
:1029E0003401002008B500BF0E48406940F00100E6
:1029F0000C4948610846406900F00100009000BFA2
:102A000000BF002211460E20FEF767FE0E20FEF7E3
:102A100054FE002211460F20FEF75FFE0F20FEF746
:102A20004CFE08BD0010024000B587B000200390A6
:102A3000049005900690019002904FF0804010495C
:102A4000086040F2CF20486000210D48816063217A
:102A5000C1600021016180218161FFF745FA4FF4D7
:102A60008050039003A90648FFF7CEFA002001909A
:102A7000029001A90248FFF7F5F907B000BD000078
:102A80005C01002010B50948094908604FF4E130A5
:102A90004860002106488160C16001610C214161EC
:102AA00000218161C161FFF717FE10BD00380140B0
:102AB0006400002000BFFEE710B53C210C48FDF784
:102AC00038FB12200A4981F83800022081F83900C9
:102AD0000848C86108480862084848620848C8624F
:102AE00000204863074888620020086310BD00008A
:102AF00000020020000048410000F0410000204199
:102B00000000A0400000FA43704700002DE9F041AA
:102B10000446A069E061D4E90301FDF767FBA06109
:102B20006068FDF7FBFB21F0004105461E4A1F4B84
:102B3000FDF708FC05D2A169206AFDF705FB2062BC
:102B400001E000202062D4E90601FDF74FFB0746B3
:102B5000A168FDF751FB0546216A6068FDF74CFB53
:102B60000746A1692068FDF747FB80463946FDF717
:102B7000EBFA06462946FDF7E7FA6061616A60698B
:102B8000FDF702FC01D8606A6061606A80F0004570
:102B900028466169FDF7F8FB03D8606A80F00040C1
:102BA0006061BDE8F08100002D431CEBE2361A3F66
:102BB0007047000008B508490968C9084FF47A72DF
:102BC000B1FBF2F14143009100BF00BF00994A1EE2
:102BD00000920029F9D108BD0000002070477CB5A3
:102BE000044600200090019000251022E169206930
:102BF00000F0D4FD85B228128DF80000E8B28DF8FF
:102C000001000C22216A606900F0C8FD85B2C5F39D
:102C100007108DF802002807000E8DF803000C2322
:102C20000021A26A206B00F0DBFD85B29DF8030055
:102C3000C5F3032108438DF80300E8B28DF80400C2
:102C40000C230021E26A606B00F0CAFD85B2C5F377
:102C500007108DF805002807000E8DF806000C22DD
:102C6000616AA06900F09AFD85B29DF80600C5F37F
:102C7000032108438DF80600E8B28DF8070094F8A8
:102C8000390008226946FDF74DFC7CBD10B5FEF702
:102C9000CDFC10BD00B58FB014210AA8FDF749FA8C
:102CA00028216846FDF745FA0120009000040190B4
:102CB0000020029002200790C10308914FF4E01118
:102CC00009916846FEF780FE08B100BFFEE70F20BD
:102CD0000A9002200B9000200C900E904FF4806020
:102CE0000D9002210AA8FEF74BFD08B100BFFEE7D8
:102CF0000FB000BD7047000010B50248FFF70BFA97
:102D000010BD00005C01002010B502681C4B984209
:102D100008D0B0F1804F05D01A4B984202D01A4B20
:102D2000984203D122F070024B681A43144B984228
:102D300008D0B0F1804F05D0124B984202D0124B10
:102D4000984203D122F44072CB681A4322F08003E8
:102D50004C6943EA040202608B68C3620B688362B9
:102D6000074B984201D10B69036301234361036957
:102D700003F001031BB1036923F00103036110BDDC
:102D8000002C0140000400400008004030B50C4613
:102D9000816821F47F4142EA03252543294381606C
:102DA00030BD0A46816821F0700142F007031943E3
:102DB0008160704730B50B461446026A056A25F0FB
:102DC00001050562816921F0F00141EA041122F058
:102DD0000A021A438161026230BD30B50B461446C7
:102DE000026A056A25F010050562816921F47041C7
:102DF00041EA043122F0A00242EA03128161026238
:102E000030BD70B505466C6A0020E085E084204640
:102E1000FFF7EEFA70BD70B506460025746A2068AB
:102E20004069C0F3C01594F84100212805D125B1AF
:102E30000020E084204600F0FBF820684069C0F3E1
:102E4000801594F84200222805D125B10020E085A4
:102E5000204600F0A7F8606C40F010006064204647
:102E6000FFF7C6FA70BD70B505466C6A2868006841
:102E700000F02000002842D1E08500BF00BF21689B
:102E80000C3151E8001F21F4807021680C3141E8B9
:102E90000002002AF3D100BF00BF00BF2168143137
:102EA00051E8001F21F001002168143141E80002BF
:102EB000002AF3D100BF00BF00BF2168143151E8E0
:102EC000001F21F040002168143141E80002002A6F
:102ED000F3D100BF202084F84200206B01280ED1DE
:102EE00000BF00BF21680C3151E8001F21F0100025
:102EF00021680C3141E80002002AF3D100BF002014
:102F00006063206B012804D1A18D2046FFF742FAAF
:102F100002E02046FFF79AFC70BD70B505466C6A6A
:102F200001206063206B012805D1A08D4108204657
:102F3000FFF730FA02E02046FFF789FC70BD70B55C
:102F400005466C6A2868006800F02000F8B9002087
:102F5000E08400BF00BF2168143151E8001F21F058
:102F600080002168143141E80002002AF3D100BF3B
:102F700000BF00BF21680C3151E8001F41F0400044
:102F800021680C3141E80002002AF3D102E020461A
:102F9000FFF704FD70BD70B50446656A2846FFF76B
:102FA000FEFC70BD00BF00BF02680C3252E8002F6B
:102FB00022F4907102680C3242E80013002BF3D126
:102FC00000BF00BF00BF0268143252E8002F22F099
:102FD00001010268143242E80013002BF3D100BF54
:102FE000016B01290ED100BF00BF02680C3252E80C
:102FF000002F22F0100102680C3242E80013002B6F
:10300000F3D100BF202180F84210002101637047F6
:1030100010B504462068C06820F040002168C860F0
:10302000202084F841002046FFF7B8FC002010BDA6
:1030300000BF00BF02680C3252E8002F22F0C0012E
:1030400002680C3242E80013002BF3D100BF2021AC
:1030500080F841107047F8B5044694F842002228E1
:1030600075D1A068B0F5805F0CD1206950B90025FA
:10307000A66A20684068C0F308003080A06A801CFF
:10308000A06215E0A56A0026A068B0F5805F03D0B5
:10309000A06828B9206918B920684068287004E041
:1030A0002068406800F07F002870A06A401CA06281
:1030B000E08D401E80B2E085002846D12068C068BF
:1030C00020F020002168C8602068C06820F480706B
:1030D0002168C8602068406920F0010021684861CB
:1030E000202084F8420000206063206B012826D154
:1030F0000020206300BF00BF21680C3151E8001F91
:1031000021F0100021680C3141E80002002AF3D1BF
:1031100000BF2068006800F0100010280AD100BF2E
:1031200000200090206800680090206840680090AF
:1031300000BF00BFA18D2046FFF72CF902E020461A
:10314000FFF784FB0020F8BD01E00020FBE7022030
:10315000F9E7000070B504462168096921F440517F
:10316000E2681143226811612269A1681143626912
:1031700041EA02052168C96841F20C629143294382
:103180002268D1602168496921F44071A269114324
:10319000226851612D4A2168914202D1FEF7CCFB91
:1031A00001E0FEF7B9FB00EBC00101EB0011626822
:1031B0009200B1FBF2F100EBC00202EB0012636877
:1031C0009B00B2FBF3F26423B2FBF3F202EBC20307
:1031D00003EB0212A1EB8201322202EB0111642205
:1031E000B1FBF2F101F0F00100EBC00202EB0012C2
:1031F00063689B00B2FBF3F26423B2FBF3F201EBD2
:10320000021200EBC00101EB001163689B00B1FBEF
:10321000F3F100EBC00303EB00136668B600B3FBE9
:10322000F6F36426B3FBF6F303EBC30606EB0313D6
:10323000A1EB8301322303EB01116423B1FBF3F112
:1032400001F00F0111442268916070BD0038014007
:1032500077B581B0044615460298A062A585002086
:103260006064222084F842002848E16B8862284884
:10327000E16BC8622748E16B08630020E16B48639B
:1032800002AE32682368191D2B46E06BFDF7EAFF9A
:1032900000BF00200090206800680090206840680F
:1032A000009000BF00BF206970B100BF00BF21685F
:1032B0000C3151E8001F41F4807021680C3141E865
:1032C0000002002AF3D100BF00BF00BF2168143103
:1032D00051E8001F41F001002168143141E800026B
:1032E000002AF3D100BF00BF00BF2168143151E8AC
:1032F000001F41F040002168143141E80002002A1B
:10330000F3D100BF002004B070BD0000672E00089C
:103310001B2F0008172E0008014691F841002128B4
:1033200028D18868B0F5805F0BD1086948B90A6A6E
:103330001088C0F308000B685860086A801C086297
:1033400005E00B6A581C086218780B685860C88C36
:10335000401E80B2C88458B90868C06820F0800058
:103360000B68D8600868C06840F040000B68D860FF
:10337000002070470220FCE72DE9F84304460D4683
:1033800017469846089E31E0701C70B3FEF748F966
:10339000A0EB0800B04200D816B90320BDE8F883BE
:1033A0002068C06800F00400F8B1802D1ED0402DC8
:1033B0001CD020680068C0F3C000B0B100BF00207E
:1033C000009020680068009020684068009000BF6E
:1033D00000BF2046FFF7E6FD0820606400BF002024
:1033E00084F8400000BF0120D8E7FFE720680068AC
:1033F0002840A84201D1012000E00020B842C3D0FB
:103400000020CBE710B50248FEF7F4FF10BD000026
:103410006400002010B50248FDF717FB10BD000046
:103420003401002000BFFEE70FB4054B10B503A91F
:10343000044A029800F034F810BC5DF814FB000058
:10344000293800082000002002480068C0F302204C
:10345000704700000CED00E010B5002804DB0A07FF
:10346000130E054A135406E00A07140E034A00F02F
:103470000F031B1FD45410BD00E400E018ED00E062
:1034800002E008C8121F08C1002AFAD1704770472D
:10349000002001E001C1121F002AFBD1704700008B
:1034A0002DE9FF4F8DB09B460F460446002606E0EF
:1034B00025280BD05A460F999047641C761C20781B
:1034C0000028F5D111B03046BDE8F08F0025A846A0
:1034D0000122984900E0054314F8013F203B02FA1D
:1034E00003F00842F7D120782E2817D114F8010FE5
:1034F00045F004052A280ED06FF02F022078A0F1A5
:10350000300109290AD808EB880102EB410100EBE0
:103510000108641CF2E757F8048B641C20786C28BF
:103520000DD004DC4C2812D06A2811D104E0742894
:103530000DD07A280CD10AE045F4001507E0617837
:1035400045F48015814202D1641C05F58015641C88
:103550002278692A45D008DC002AB3D0582A69D0DD
:10356000632A10D0642A08D13BE0702A67D0732AFE
:1035700013D0752A5CD0782A5CD010465A460F9931
:103580009047761CD3E017F8040B8DF8000000205C
:103590008DF80100E946012003E057F8049B4FF045
:1035A000FF3069074FF0000501D40AE06D1C454566
:1035B0000DDA8542FADB19F805100029F6D106E08C
:1035C0006D1C8542FCDB19F805100029F8D12E444A
:1035D00004E019F8010B5A460F9990476D1EF8D276
:1035E000A5E00A200021CDE90801C5F30250022818
:1035F0000DD001CFC117031E71F100030DDA4FF09A
:10360000000CD0EB0C006CEB01012D2308E0FF1D3A
:1036100027F00707F7E80201EDE72B0504D52B2378
:103620008DF8283001233BE0EB0739D02023F7E762
:103630000A2000E010200021CDE9080107E0102059
:10364000002145F00405CDE908014FF00808C5F355
:10365000025002280FD001CF00214FF0000A2B07A3
:103660001FD5702A0DD0DDE908C38CF0100C5CEA80
:10367000030C0CD015E0FF1D27F00707F7E8020147
:10368000EBE740228DF828204FF0010A0BE050EACA
:10369000010306D030238DF828308DF8292002232D
:1036A0009A46582A04D024A20DF120090B9209E071
:1036B00026A2F9E7DDE90823FCF770FE0B9B9B5C73
:1036C00009F8013D50EA0102F4D1ADEB09002030C8
:1036D0000890680701D44FF001080899884502DD79
:1036E000A8EB010000E000208046002506E00AA8C3
:1036F0005A46405D0F9990476D1C761C5545F6DB88
:1037000004E030205A460F999047761CB8F100012A
:10371000A8F10108F5DC05E019F8010B5A460F99EC
:103720009047761C0899481E08900029F4DC641C18
:10373000C5E6000009280100303132333435363710
:1037400038396162636465660000000030313233ED
:10375000343536373839414243444546000000008D
:103760001CB50446002000900190FF208DF8000059
:103770008DF801008DF802008DF803008DF804002B
:103780008DF805008DF80600FC208DF8070094F8F0
:10379000390008226946FCF7C5FE1CBD2DE9F05F23
:1037A00005460E46144631464FF08040FCF724FD96
:1037B00081460121A140481EFCF78EFD824631461C
:1037C0002846FCF7C1FC83465146FCF715FD8046B0
:1037D0004946FCF743FD0746FCF787FDBDE8F09F2F
:1037E0002DE9FC5F07460C4615461E462146284635
:1037F000FCF7FCFC0190A0460121B140481EFCF7FB
:103800006BFD834641463846FCF7F0FC5946009074
:10381000FCF7F2FC82460199FCF720FD8146FCF79B
:1038200064FDBDE8FC9F000013B50C464FF0FF336C
:10383000012269460248FFF70BF800981CBD000002
:1038400064000020FDF7FEFEFFF724FAFFF7CAF838
:10385000FFF718F9FCF756FEFFF7E6F8FFF72CF92B
:1038600000F030F840220A490A48FEF75AFD0A489B
:10387000FEF78EFB0948FFF773FF08E0084C636909
:10388000064C22686168064CE06800F039F8F5E7FC
:1038900024000020640000205C01002000020020C1
:1038A000CC010020054800680549086003484068CD
:1038B000486002488068886070470000F40100207A
:1038C000CC01002010B528210748FCF732FC07483E
:1038D000054908600648486000208860054848623D
:1038E00005480649486210BDA4010020AE47E13DED
:1038F00017B7513A000020410000C841CC01002018
:10390000F0B587B004460D4616461F4600200590C8
:1039100006901EA0006804900394029501960097FB
:1039200000200AE003A9095C05AA115402A90A5C57
:1039300005AB011D5A54411CC8B20428F2DB4FF0FC
:10394000FF33082205A91248FEF782FF00200AE093
:1039500001A9095C05AA11541DF8002005AB011D41
:103960005A54411CC8B20428F2DB4FF0FF3308223E
:1039700005A90748FEF76CFF4FF0FF33042204A9A6
:103980000348FEF765FF07B0F0BD00000000807F30
:10399000640000202DE9F05F05460E461446012123
:1039A000A140481EFCF798FC82460121A140481E18
:1039B000FCF792FC83463146FCF71EFC804668000B
:1039C000FCF78AFC83463146FCF716FC81464146EB
:1039D000FCF70CFC07465146FCF740FCBDE8F09FA5
:1039E0002DE9FC5F07460C4615461E462146284633
:1039F000FCF7FCFB0190A0460121B140481EFCF7FA
:103A00006BFC00903846FCF767FC83460199FCF795
:103A1000F3FB82460099FCF721FC81464146FCF706
:103A200093FBBDE8FC9F00000000000000000102C5
:103A30000304060708090000000001020304020352
:103A40000405060708090A0B0C0D0E0F10100102E1
:103A5000703A0008000000202400000080340008B4
:103A6000943A0008240000201C060000903400084E
:103A700000127A00000000001000000001000000A9
:103A80000000000000000000000000000000000036
:043A90000000000032
:04000005080000ED02
:00000001FF
