:020000040800F2
:1000000060060024E1020008DF3C0008A33B000872
:10001000DD3C0008F5030008494700080000000027
:100020000000000000000000000000003D3F00084C
:10003000BD06000800000000E13C00083F3F00084A
:10004000FF020008FF020008FF020008FF0200088C
:10005000FF020008FF020008FF020008FF0200087C
:10006000FF020008FF020008FF020008F903000871
:10007000FF020008FF020008FF020008FF0200085C
:10008000FF020008FF020008FF020008FF0200084C
:10009000FF020008FF020008FF020008FF0200083C
:1000A000FF020008FF020008FF020008FF0200082C
:1000B000FF020008FF020008FF020008FF0200081C
:1000C000FF020008FF020008FF020008FF0200080C
:1000D000FF020008FF020008FF020008FF020008FC
:1000E000FF020008FF02000800000000FF020008F5
:1000F000FF020008FF020008FF020008FF020008DC
:10010000FF020008FF020008FF020008FF020008CB
:10011000FF020008FF020008FF020008FF020008BB
:10012000FF020008FF020008FF020008FF020008AB
:10013000FF020008FF020008FF020008FF0200089B
:1001400000000000000000000000000000000000AF
:10015000FF020008FF020008FF020008FF0200087B
:10016000FF020008FF020008FF020008FF0200086B
:10017000FF020008FF020008FF0200080000000064
:10018000FF020008FF020008B1400008FF0200085B
:10019000FF020008FF020008FF020008FF0200083B
:1001A000FF020008FF020008FF0200080000000034
:1001B000FF020008FF020008FF020008FF0200081B
:1001C000FF020008FF02000800000000000000001D
:1001D0000000000000000000FF0200080000000016
:1001E000000000000000000000000000000000000F
:1001F0000000000000000000FF020008FF020008ED
:10020000FF020008FF02000800000000FF020008D3
:10021000FF020008FF020008FF020008FF020008BA
:10022000FF02000800000000FF02000800000000BC
:10023000FF020008FF02000800000000FF020008A3
:10024000FF020008FF020008FF020008FF0200088A
:10025000FF020008FF020008FF020008FF0200087A
:10026000FF020008FF020008FF020008FF0200086A
:10027000FF020008FF020008FF0200080000000063
:10028000FF020008FF020008FF020008FF0200084A
:1002900000000000FF020008FF020008000000004C
:1002A00000000000FF020008FF020008FF02000833
:1002B000FF020008FF020008FF020008FF0200081A
:1002C000FF020008FF020008FF020008DFF80CD060
:1002D00000F07EF800480047F1480008600600245E
:1002E000074880470748804707480047FEE7FEE782
:1002F000FEE7FEE7FEE7FEE7FEE7FEE7FEE7FEE7D6
:10030000FD060008D93F0008CD0200082DE9F05F86
:100310000546002092469B46884606468146402474
:100320001BE0284641464746224600F041F8534626
:100330005A46C01A914110D311461846224600F081
:1003400028F82D1A67EB01084F46224601200021AC
:1003500000F01FF817EB00094E41201EA4F1010424
:10036000DFDC484631462A464346BDE8F09FD2B21C
:1003700001E000F8012B491EFBD270470022F6E78E
:1003800010B513460A4604461946FFF7F0FF20460B
:1003900010BD202A04DB203A00FA02F10020704749
:1003A0009140C2F1200320FA03F3194390407047B3
:1003B000202A04DB203A21FA02F00021704721FABA
:1003C00002F3D040C2F12002914008431946704721
:1003D000064C074D06E0E06840F0010394E8070092
:1003E00098471034AC42F6D3FFF774FF5049000829
:1003F00070490008FEE70000014800F0BFBD0000A2
:1004000040010024294A016891423AD0274A183213
:10041000914236D0254A3032914232D0234A483276
:1004200091422ED0214A603291422AD01F4A78321E
:10043000914226D01D4A9032914222D01B4AA832C6
:1004400091421ED01A4A91421BD0194A1832914249
:1004500017D0174A3032914213D0154A4832914290
:100460000FD0134A603291420BD0114A7832914238
:1004700007D00F4A9032914203D00D4AA8329142E0
:1004800011D1CAB21823103AB2FBF3F26FF309018B
:10049000032A02F00703074AD25CC26500D9091D8E
:1004A00081650846704721F0FF01F9E7100002401E
:1004B000100402400E49000830B5224A01230168A9
:1004C0009142CAB21BD01F4C1434A14217D01D4C0C
:1004D0002834A14213D01B4C3C34A1420FD0194CFC
:1004E0005034A1420BD0174C6434A14207D0154CB4
:1004F0007834A14203D0134C8C34A1420CD1142186
:10050000114C083AB2FBF1F10F4A803201F01F059D
:1005100004EB8101AB4010E00C4D1824103A0D445F
:10052000B2FBF4F1A82D00D80831094A01F01F04EC
:1005300002EB8101064AA3408032603080E80E0061
:1005400030BD00000854025800580258F0FBFDBFAF
:100550000008024010B50279531E072B2DD8174C06
:100560000168A1421BD0154C1434A14217D0134C82
:100570002834A14213D0114C3C34A1420FD00F4C6F
:100580005034A1420BD00D4C6434A14207D00B4C27
:100590007834A14203D0094C8C34A14203D10849DC
:1005A000074C443102E00749064C443104EB820217
:1005B000C0E91B2101219940416710BD0854025830
:1005C000FC580258FC08024010B583694FF0C07413
:1005D000826A0146002053B1B3F5005F15D072B1B5
:1005E000012A0CD0022A0AD0032A09D104E01AB148
:1005F000012A06D0022A03D1C96AC90100D5012007
:1006000010BDC96AA142FAD010BD002AF7D0012A54
:10061000F2D0022AF3D0032AF3D010BD30B5254D15
:100620000468AC4238D0234D1835AC4234D0214D4B
:100630003035AC4230D01F4D4835AC422CD01D4D2A
:100640006035AC4228D01B4D7835AC4224D0194DD2
:100650009035AC4220D0174DA835AC421CD0164D79
:10066000AC4219D0144D1835AC4215D0124D30356E
:10067000AC4211D0104D4835AC420DD00E4D603516
:10068000AC4209D00C4D7835AC4205D00A4D9035BE
:10069000AC4201D0084DA83563608368402B0368E5
:1006A00003D099600068C26030BD9A600068C16084
:1006B00030BD00001000024010040240704738B501
:1006C00001250C460221C5660167A0F85C3001686F
:1006D0008D6845F040058D6001680D6845F0100596
:1006E0000D600093134601682246D0F88000243143
:1006F00000F012F838BD72B6FEE700000548054963
:100700000839026842F00202026008688004FCD5E1
:10071000704700000C4802582DE9FF5F04468068CE
:100720000025DDF838E0802811D094F83400012845
:1007300010D094F83500012184F8341001280BD032
:10074000C80260650125284604B0BDE8F09F4FF45B
:100750008070F6E70220F7E7874A02262068002724
:1007600084F835609042854E6765854FDFF81492B6
:10077000DFF814A2DFF814B243D0B04241D0B8423F
:100780003FD048453DD050453BD0584539D0DFF8A3
:10079000FCC10CF1180C604533D0DFF8F0C10CF14E
:1007A000300C60452DD0DFF8E8C1604529D0DFF876
:1007B000E0C10CF1180C604523D0DFF8D4C10CF176
:1007C000300C60451DD0DFF8C8C10CF1480C604505
:1007D00017D0DFF8BCC10CF1600C604511D0DFF818
:1007E000B0C10CF1780C60450BD0DFF8A4C10CF15E
:1007F000900C604505D0DFF898C10CF1A80C60455D
:1008000010D1D0F800C03F214CF4802CC0F800C0BB
:100810002068036194F85C30A06D03F01F039940D9
:10082000816010E0D0F800C048F220084CEA080CC3
:10083000C0F800C02068036194F85C30A06D03F03C
:100840001F03994041609046206840454FD0B04218
:100850004DD0B8424BD0484549D0504547D0584577
:1008600045D04A491831884241D048493031884200
:100870003DD0474988423AD045491831884236D060
:1008800043493031884232D04149483188422ED0E4
:100890003F49603188422AD03D497831884226D08C
:1008A0003B499031884222D03949A83188421ED034
:1008B000384988421BD037491431884217D035490E
:1008C0002831884213D033493C3188420FD0314916
:1008D000503188420BD02F496431884207D02D49CE
:1008E0007831884203D02B498C3188420DD1DDE923
:1008F000011273462046FFF791FED4E919014160C9
:10090000E06E10B1D4E91C014160206840452ED052
:10091000B0422CD0B8422AD0484528D0504526D0E5
:10092000584524D019491831884220D01749303110
:1009300088421CD01649884219D01549183188427E
:1009400015D013493031884211D0114948318842BD
:100950000DD00F496031884209D00D497831884265
:1009600005D00B499031884201D00949A83101686E
:1009700041F001010160E6E610000240280002405B
:1009800040000240580002407000024088000240CF
:1009900010040240085402582DE9F84F044601F0B3
:1009A0004DF900903CB194F83500022806D0802122
:1009B00061650020E4E00120BDE8F88FC74DC74E17
:1009C000C649183520683036DFF81483DFF81493F1
:1009D0008842DFF814A3DFF814B32ED0A8422CD03D
:1009E000B0422AD0404528D0484526D0504524D092
:1009F000584522D0BD4A183290421ED0BC4A90427F
:100A00001BD0BB4A1832904217D0B94A30329042BC
:100A100013D0B74A483290420FD0B54A6032904264
:100A20000BD0B34A7832904207D0B14A903290420C
:100A300003D0AF4AA832904209D1026822F01E02C8
:100A400002602068426922F08002426103E002688D
:100A500022F00E02026027688F4238464DD0A8422D
:100A60004BD0B04249D0404547D0484545D050458D
:100A700043D0584541D09D4A183290423DD09C4ABF
:100A800090423AD09A4A1832904236D0984A303240
:100A9000904232D0964A483290422ED0944A6032E8
:100AA00090422AD0924A7832904226D0904A903290
:100AB000904222D08E4AA83290421ED08D4A904257
:100AC0001BD08C4A1432904217D08A4A2832904266
:100AD00013D0884A3C3290420FD0864A503290421E
:100AE0000BD0844A6432904207D0824A78329042D6
:100AF00003D0804A8C32974204D1206E026822F4DF
:100B00008072026075492068884228D0A84226D0A9
:100B1000B04224D0404522D0484520D050451ED078
:100B200058451CD071491831884218D07049884204
:100B300015D06F491831884211D06D493031884243
:100B40000DD06B494831884209D0694960318842EB
:100B500005D067497831884201D0654990310168F4
:100B600021F0010101600EE001F068F80099401ADF
:100B7000052808D9202262650321002084F8351059
:100B800084F8340017E73868C007EDD1534A0121D3
:100B9000206890422ED0A8422CD0B0422AD04045A6
:100BA00028D0484526D0504524D0584522D04F4B18
:100BB000183398421ED04E4B98421BD04C4B1833E2
:100BC000984217D04A4B3033984213D0484B4833A1
:100BD00098420FD0464B603398420BD0444B783349
:100BE000984207D0424B9033984203D0404BA833F1
:100BF000984208D194F85C703F23A06D07F01F075E
:100C0000BB40836007E094F85C30A06D03F01F03E5
:100C100001FA03F34360206890424DD0A8424BD0C4
:100C2000B04249D0404547D0484545D0504543D0D3
:100C3000584541D02D4A183290423DD02C4A90421E
:100C40003AD02B4A1832904236D0294A303290425C
:100C500032D0274A483290422ED0254A6032904204
:100C60002AD0234A7832904226D0214A90329042AC
:100C700022D01F4AA83290421ED01E4A90421BD05A
:100C80001C4A1432904217D01A4A2832904213D08C
:100C9000184A3C3290420FD0164A503290420BD044
:100CA000144A6432904207D0124A7832904203D0FC
:100CB000104A8C3290420BD1D4E919024260E06EA6
:100CC00030B1026822F480720260D4E91C024260F2
:100CD000002084F8351084F834006DE610000240DE
:100CE000580002407000024088000240A00002400C
:100CF00010040240085402582DE9F05F28B190F822
:100D00003510022904D0802141650120BDE8F09F03
:100D1000904C904B0168183C18338E4ADFF83C9297
:100D2000A1428D4CDFF838E28E4FDFF83CB2DFF89D
:100D30003CA28F4D8F4E31D091422FD099422DD071
:100D4000A1422BD0494529D0714527D0B94225D0A1
:100D5000DFF810C20CF1180C61451FD0DFF808C293
:100D6000ACF1600C614519D0DFF8FCC1ACF1480C66
:100D7000614513D0DFF8F0C1ACF1300C61450DD006
:100D8000DFF8E4C1ACF1180C614507D0594505D036
:100D9000514503D0A94201D0B1422CD1DFF8B4C1F2
:100DA0004FF0040880F83580ACF1180C61451DD077
:100DB00091421BD0994219D0A14217D0494515D074
:100DC000714513D0B94211D06648183081420DD018
:100DD00065486038814209D063484838814205D06F
:100DE00061483038814201D05F481838086820F0E7
:100DF00001000860ABE0D1F800C02CF00E08DFF86D
:100E000054C1C1F80080ACF1180C0168614527D0CD
:100E1000914225D0994223D0A14221D049451FD0EB
:100E200071451DD0B9421BD0DFF838C10CF1180C48
:100E3000614515D0DFF830C1ACF1600C61450FD0D1
:100E4000DFF824C1ACF1480C614509D0DFF818C1C6
:100E5000ACF1300C614503D0DFF80CC1ACF1180CDB
:100E6000D1F800C02CF0010CC1F800C0DFF8E4801C
:100E70004FF0010C0168A8F11808414546D0914295
:100E800044D0994242D0A14240D049453ED071451C
:100E90003CD0B9423AD0334A1832914236D0324A25
:100EA000603A914232D0304A483A91422ED02E4A8E
:100EB000303A91422AD02C4A183A914226D05945CC
:100EC00024D0514522D0A94220D0B1421ED02A4A76
:100ED00091421BD0284A1432914217D0264A283218
:100EE000914213D0244A3C3291420FD0224A5032D0
:100EF00091420BD0204A6432914207D01E4A783288
:100F0000914203D01C4A8C32914218D1016E0A687A
:100F100022F480720A6090F85C20816D02F01F025A
:100F20000CFA02F24A60D0E919124A60C16E31B17E
:100F30000A6822F480720A60D0E91C124A6000221A
:100F4000016D80F835C080F8342001B18847002059
:100F5000DCE6000028000240580002407000024019
:100F600088000240A0000240700402408804024051
:100F7000A0040240B8040240085402582DE9FC5F66
:100F80000446F74E0020DFF8D88300904FF4165245
:100F9000F44808F11808A56DDFF8C493DFF8C0A382
:100FA000016809F1300920680AF1480AB1FBF2F141
:100FB000B04201912F68D5F800C0DFF8ACB335D04E
:100FC0004146884232D0484530D050452ED0584511
:100FD0002CD0E5491831884228D0E3493031884285
:100FE00024D0E1494831884220D0E04988421DD0D0
:100FF000DE491831884219D0DC493031884215D099
:10100000DA494831884211D0DFF860E30EF1600E12
:1010100070450BD0D54A7832904207D0D34B9033ED
:10102000984203D0D149A83188427DD194F85C2000
:10103000082102F01F0201FA02F23A424AD0B042FD
:1010400032D0404530D048452ED050452CD0584560
:101050002AD0C54A1832904226D0C34A3032904234
:1010600022D0C14A483290421ED0C04A90421BD082
:10107000BE4A1832904217D0BC4A3032904213D048
:10108000BA4A483290420FD0B84A603290420BD0F0
:10109000B64A7832904207D0B44A9032904203D098
:1010A000B24AA832904203D1026802F0040202E080
:1010B000026802F008026AB1026822F004020260CB
:1010C00094F85C0000F01F008140A960606D40F062
:1010D0000100606594F85C00012100F01F00814070
:1010E000394240D02068B04234D0404532D04845E3
:1010F00030D050452ED058452CD09B4A18329042C3
:1011000028D0994A3032904224D0974A48329042AF
:1011100020D0964A90421DD0944A1832904219D05D
:10112000924A3032904200E0AFE113D08F4A483209
:1011300090420FD08D4A603290420BD08B4A783269
:10114000904207D0894A9032904203D0874AA83211
:1011500090427DD1406910F0800F04D0A960606D8D
:1011600040F00200606594F85C00042100F01F006C
:10117000814039423ED02068B04232D0404530D024
:1011800048452ED050452CD058452AD0764A1832A2
:10119000904226D0744A3032904222D0724A48326D
:1011A00090421ED0714A90421BD0704A1832904231
:1011B00017D06E4A3032904213D06C4A4832904277
:1011C0000FD06A4A603290420BD0684A783290421F
:1011D00007D0664A9032904203D0644AA8329042C7
:1011E0004ED1006810F0020F04D0A960606D40F08D
:1011F0000400606594F85C00102100F01F0081403D
:10120000394258D02068B04234D0404532D04845A9
:1012100030D050452ED058452CD0534A18329042E9
:1012200028D0514A3032904224D04F4A483290421E
:1012300020D04E4A90421DD04C4A1832904219D0CC
:101240004A4A3032904215D0484A4832904200E033
:1012500014E00FD0454A603290420BD0434A7832B6
:10126000904207D0414A9032904203D03F4AA83280
:10127000904207D1006800F0080006E0006872E7BD
:101280000068B7E7006800F00400A0B1A96020681A
:101290000168490304D50068000308D5A16C07E084
:1012A0000168C90503D4016821F008010160216CBF
:1012B00009B12046884794F85C00202100F01F0007
:1012C0008140394279D02068B04232D0404530D098
:1012D00048452ED050452CD058452AD0224A1832A5
:1012E000904226D0204A3032904222D01E4A4832C4
:1012F00090421ED01D4A90421BD01C4A1832904288
:1013000017D01A4A3032904213D0184A48329042CD
:101310000FD0164A603290420BD0144A7832904275
:1013200007D0124A9032904203D0104AA83290421D
:1013300003D1006800F0100002E0006800F0020035
:10134000B0B3A96094F835000428206801680FD074
:1013500049037ED5006800032BD4616C2AE00000AD
:10136000100002400C0000247000024010040240F3
:1013700021F0160101602068416921F0800141617E
:10138000206C08B9A06C20B12068016821F0080128
:10139000016094F85C303F21012003F01F0300221C
:1013A0009940A96084F8350084F83420216D65E007
:1013B00003E0E16B09B120468847606D00287DD0CD
:1013C000606DC00759D02068042184F83510B04200
:1013D0002BD0404529D0484527D0504525D05845E9
:1013E00023D09D49884220D09B49183188421CD087
:1013F00099493031884218D09849884215D0974988
:101400001831884211D09549303188420DD0934926
:101410004831884209D091496031884205D08F49CE
:101420007831884201D08D499031016821F0010165
:10143000016020680099019A491C0091914202D8EC
:101440000168C907F6D10068C00710D003200FE07B
:10145000FFE70168C905ACD403680121002223F02D
:101460001003036084F8351084F83420A1E70120CC
:1014700084F83500002084F83400E16C00291DD088
:1014800002B02046BDE8F05F0847754988421DD08C
:1014900073491431884219D071492831884215D0D6
:1014A0006F493C31884211D06D49503188420DD08E
:1014B0006B496431884209D0694900E084E07831A1
:1014C000884203D066498C3188427DD194F85C8093
:1014D0000427016808F01F0807FA08F717EA0C0F3D
:1014E000009746D04F0744D500980F04686003D595
:1014F000C8033CD4A16CC1E7880638D42068B04248
:101500002DD055496039884229D0484527D05045CB
:1015100025D0584523D05049884220D04E49183113
:1015200088421CD04C493031884218D04B498842FF
:1015300015D04A491831884211D048493031884283
:101540000DD046494831884209D0704507D09042B5
:1015500005D0984203D04149A831884203D101689F
:1015600021F0080102E0016821F004010160216C12
:1015700084E7022707FA08F717EA0C0F00974ED006
:101580008F074CD500980F04686003D5C80344D476
:10159000616C73E7880640D42068B0422FD02E4992
:1015A000603988422BD0484529D0504527D058452E
:1015B00025D02949884222D02749183188421ED097
:1015C00025493031884200E044E018D02349884260
:1015D00015D022491831884211D020493031884233
:1015E0000DD01E494831884209D0704507D090423D
:1015F00005D0984203D01949A831884203D1016827
:1016000021F0140102E0016821F00A0101600121CA
:1016100084F83510002084F83400E16B2EE70822AE
:1016200002FA08F212EA0C0F14D0090712D5016869
:1016300021F00E01016094F85C100120002201F0FD
:101640001F0100FA01F16960606584F8350084F8D3
:10165000342012E7BDE8FC9F8800024010040240DD
:10166000085402582DE9F05F044600F0E7FA002C18
:1016700007467DD0E24E022120684FF00308DFF8D4
:1016800084934FF00005DFF880A3B042DFF87CB30D
:1016900034D0DB4A1832904230D048452ED05045E5
:1016A0002CD058452AD0D94A1832904226D0D74A51
:1016B0003032904222D0D54A483290421ED0D44A8D
:1016C00090421BD0D24A1832904217D0D04A3032C2
:1016D000904213D0CE4A483290420FD0CC4A60326A
:1016E00090420BD0CA4A7832904207D0C84A903212
:1016F000904203D0C64AA83290427DD184F835107A
:10170000B04284F834502ED0BD49183188422AD0D6
:10171000484528D0504526D0584524D0BB491831DB
:10172000884220D0B949303188421CD0B74948316D
:10173000884218D0B649884215D0B5491831884238
:1017400011D0B349303188420DD0B1494831884277
:1017500009D0AF496031884205D0AD49783188421F
:1017600001D0AB499031016821F00101016008E02E
:1017700025E100BF00F062FAC01B052801D9202135
:101780001AE120680068C007F4D1D4E90203216897
:10179000103418438E4694E88410D4E9033809685D
:1017A0003A4310439B4A40EA0C00676918431140D2
:1017B000103C40EA0800042F40EA010003D1D4E9BC
:1017C0000B12114308436168A1F12902052A0BD9C4
:1017D000163A032A08D9083A012A05D9083A032AF1
:1017E00002D97439032901D840F48010CEF80000E2
:1017F0002068676A406900E020E0042F20F00700BD
:1018000047EA00070DD1D4E90A01074349B1204650
:10181000FEF7DAFE28B140206065012184F835101A
:10182000CDE0206847612046FEF7ECFD94F85C208F
:101830003F2102F01F029140816055E0764A9042BC
:101840001BD0754B1433984217D0734B28339842F2
:1018500013D0714B3C3398420FD06F4B50339842AA
:101860000BD06D4B6433984207D06B4B7833984262
:1018700003D0694B8C3398427ED184F8351084F8BC
:101880003450664B0168A26801EA030E402A74D006
:10189000802A73D05FF00002D4E90378D4E90531DF
:1018A00042EAD70242EAD8085B4AD4E9077C48EA10
:1018B000D30848EAD10141EAD701524241EA1C115A
:1018C000142341EA0E01016020681044B0FBF3F0DC
:1018D0008000E0652046FEF795FD94F85C2001212C
:1018E00002F01F02914041602068B04257D0444945
:1018F0001831884253D0484551D050454FD05845B3
:101900004DD042491831884249D04049303188424F
:1019100045D03E494831884241D03D4988423ED079
:101920003B49183188423AD039493031884236D063
:1019300037494831884232D03549603188422ED00B
:101940003349783188422AD031499031884226D0B3
:101950002F49A831884222D02F4988421FD02E49D2
:10196000143188421BD02C492831884217D02A498B
:101970003C31884213D002E01DE017E018E0264910
:10198000503188420BD024496431884207D0224923
:101990007831884203D020498C31884229D12046B1
:1019A000FEF78AFDA06880280CD00CE0102273E7B7
:1019B0004FF4804270E74021616584F83580012052
:1019C000BDE8F09F6560216E20790860D4E91901B7
:1019D00041606068401E072808D82046FEF7BAFD1F
:1019E000E06E0560D4E91C01416002E0E566256710
:1019F00065670120656584F835000020E0E7000098
:101A000010000240400002405800024070000240B6
:101A1000100402403F8010FE085402580F00FEFFE1
:101A20002DE9F84F03247A4D00234FF001094FF0C0
:101A3000B04B4FF00F0AE4E009FA03F6324078D0D9
:101A40000F7907F00307012F01D0022F1AD1876801
:101A50004FEA430ED1F80CC004FA0EF827EA080743
:101A60000CFA0EFC4CEA070CC0F808C0476891F865
:101A700004C0B743CCF3001C0CFA03FC4CEA070C7F
:101A8000C0F804C00E79F643B6070BD0C6684FEA1B
:101A900043088F6804FA08FC26EA0C0607FA08F7E0
:101AA0003743C7600E7906F00306022E12D1DE0816
:101AB0000F694FEA437C00EB8606B646366A4FEA6A
:101AC000DC6C0AFA0CF807FA0CF726EA080637432A
:101AD000CEF820700F7906684FEA430807F0030735
:101AE00004FA08FC07FA08F726EA0C0637430760F1
:101AF0004E6816F4403F1CD0464E376847F0020748
:101B0000376036689F0706F00206009623F003064A
:101B100006F1B046B6463F0FD6F80864DFF8F88005
:101B20000AFA07FC404526EA0C0603D14FF0000CE8
:101B30003AE065E0DFF8E4C0604502D14FF0010C07
:101B400032E0DFF8DCC0604502D14FF0020C2BE040
:101B5000DFF8D0C0604502D14FF0030C24E0DFF87D
:101B6000C8C0604502D14FF0040C1DE0DFF8BCC0D6
:101B7000604502D14FF0050C16E0DFF8B4C06045B7
:101B800002D14FF0060C0FE0DFF8A8C0604502D18B
:101B90004FF0070C08E0DFF8A0C0604502D14FF01D
:101BA000090C01E04FF00A0C0CFA07FC4CEA060C99
:101BB000CEF808C44F68DBF80060FF0226EA020690
:101BC00000D516435F46CBF80060D1F804C0DBF8BF
:101BD00004605FEA8C2C26EA020600D516437E607C
:101BE0006E684F6826EA0206BF0300D516436E6092
:101BF0002E684F6826EA0206FF0300D516432E60C2
:101C00005B1C0A6832FA03F67FF416AFBDE8F88F62
:101C100080000058F44402580000025800040258A2
:101C200000080258000C0258001002580014025814
:101C300000180258001C025800240258014880680D
:101C400070470000000000240248816802781144B7
:101C50008160704700000024032010B500F086F872
:101C600001F028F80F4A104914681368C4F30322DE
:101C700003F00F038A5CC95C02F01F0201F01F0130
:101C8000D0400A4A20FA01F11160094908600F208A
:101C900000F010F808B1012010BD00F02BF8002072
:101CA00010BD0000184402583E49000810000024EE
:101CB0000C00002470B50D4D04462878A0B14FF4F7
:101CC0007A71B1FBF0F00A490968B1FBF0F001F05C
:101CD00020FB48B9102C07D200222146501E00F0EC
:101CE00025F800206C6070BD012070BD000000244C
:101CF0000C000024054808B5016841F002010160AC
:101D0000006800F00200009008BD0000F444025892
:101D1000002809DB410900F01F028900012001F1C0
:101D2000E0219040C1F80001704700000E4BF0B474
:101D30001B680D46C3F30223C3F10706042E00D926
:101D40000426191D072901D2002300E0DB1E01240F
:101D500004FA06F19C40491E2940641E9940144033
:101D60002143F0BC02F0F1BC0CED00E0064900F0AC
:101D7000070210B54FF6FF040868044B204040EA04
:101D800002201843086010BD0CED00E00000FA05C9
:101D9000134970B50A68D243520705D5096801F0A6
:101DA0000701814213D118E00A6822F007020243BA
:101DB0000A60FFF743FF0A4D4FF47A760446083D68
:101DC00007E000BFFFF73AFF001BB04201D9012036
:101DD00070BD2868C0438004F4D4002070BD0000AA
:101DE0000C48025810B500F01FFF05490968054A64
:101DF000C1F30211515C01F01F01C84010BD000089
:101E0000204402583E490008494930B5484C0B1D52
:101E10000A68143409681D68246802F00303C5F3D6
:101E20000012C1F30531C4F3CC04002914FB02F203
:101E300000EE102AF8EE400A75D03F4A9FED3D1A99
:101E4000B7EE000A6BB1DFED3D1A012B01D0022B7A
:101E500064D002EE101A1168F8EE422A81EEA22A2E
:101E600021E0334C283C23689B0612D5344B246870
:101E700001EE901A1168C4F3C104F8EE612AE34040
:101E800001EE903AC1F30801F8EE611A81EEA22A40
:101E90000BE001EE901ADFED2B2A00BFF8EE611A7D
:101EA000116882EEA12AC1F3080101EE901A1168AF
:101EB000F8EE611A40EE811A71EE800A62EE200A95
:101EC000C1F3462101EE101AB8EE411A31EE001AA4
:101ED000C0EE811ABCEEE11A80ED001A1168C1F360
:101EE000064101EE101AB8EE411A31EE001AC0EEAA
:101EF000811ABCEEE11A80ED011A1168C1F3066186
:101F000001EE101AB8EE411A31EE000A80EE801A86
:101F1000BCEEC10A80ED020A30BD04E001EE901A69
:101F2000DFED092ABAE70021016041608160F3E733
:101F30002844025800000039384402580024744AEA
:101F40000090D0030024744C001BB74B494930B5B6
:101F5000484C0B1D0A681C3409681D68246802F08F
:101F60000303C5F30022C1F30551C4F3CC040029D7
:101F700014FB02F200EE102AF8EE400A75D03F4A38
:101F80009FED3D1AB7EE000A6BB1DFED3D1A012B54
:101F900001D0022B64D002EE101A1168F8EE422A2A
:101FA00081EEA22A21E0334C283C23689B0612D5FF
:101FB000344B246801EE901A1168C4F3C104F8EEA2
:101FC000612AE34001EE903AC1F30801F8EE611A8C
:101FD00081EEA22A0BE001EE901ADFED2B2A00BF62
:101FE000F8EE611A116882EEA12AC1F3080101EE30
:101FF000901A1168F8EE611A40EE811A71EE800AAB
:1020000062EE200AC1F3462101EE101AB8EE411A21
:1020100031EE001AC0EE811ABCEEE11A80ED001A12
:102020001168C1F3064101EE101AB8EE411A31EE03
:10203000001AC0EE811ABCEEE11A80ED011A116897
:10204000C1F3066101EE101AB8EE411A31EE000A32
:1020500080EE801ABCEEC10A80ED020A30BD04E0B9
:1020600001EE901ADFED092ABAE700210160416014
:102070008160F3E7284402580000003940440258C8
:102080000024744A0090D0030024744C001BB74B0A
:102090002DE9FE4F0546DFF800A450F8081B002488
:1020A000FD4FC943019005F1280026460AF1240A94
:1020B000009008011DD4686E50B1B0F5801F0CD09F
:1020C000B0F5001F0ED0B0F5401F1ED001240FE068
:1020D000386840F40030386017E00198022101F0C0
:1020E00001FE03E00098022101F08CFE04000CD0F8
:1020F00026462888C043C00523D4A86D05281ED2D3
:10210000DFE800F00C11161B1B006A6EDAF80010F5
:1021100021F440111143CAF80010EAE7386840F48E
:102120000030386009E00198002101F0DBFD03E098
:102130000098002101F066FE0446C4B100E00124CD
:1021400026462888DFF85083C04308F12C08400554
:102150002FD4D5F8A400B0F5C00F28D010DCB8B14A
:10216000B0F5001F19D0B0F5800F0FD11AE0AA6D9D
:10217000DAF8001021F007011143CAF80010E0E777
:10218000B0F5000F13D0B0F5200F10D001240FE0F0
:10219000386840F40030386009E00198002101F00F
:1021A000A1FD03E00098002101F02CFE044694B14B
:1021B00026462888C043000530D4D5F8A800B0F1E1
:1021C000407F29D011DCC0B1B0F1807F1AD0B0F1CE
:1021D000007F10D11BE0D5F8A420D8F8001021F41E
:1021E00060011143C8F80010E3E7B0F1806F13D02D
:1021F000B0F1A06F10D001240FE0386840F4003037
:10220000386009E00198002101F06CFD03E00098BE
:10221000002101F0F7FD044694B126462868DFF856
:1022200078B2C0430BF1200B80011FD4E86CD8B109
:1022300010280FD0202812D0302815D0012414E007
:10224000D5F8A820D8F8001021F0E0611143C8F8B3
:102250000010E3E7386840F40030386004E001988B
:10226000022101F03FFD044674B126462888C04390
:10227000C0042BD4E86DB0F5005F20D00DDCA0B118
:10228000B0F5805F0FD115E0EA6CDBF8001021F0AB
:1022900030011143CBF80010E8E7B0F5405F13D0F0
:1022A000B0F5804F10D001240FE0386840F40030C2
:1022B000386009E00198002101F014FD03E0009866
:1022C000002101F09FFD04468CB126462888C043BA
:1022D000800429D4286EB0F5403F23D010DC08B329
:1022E000B0F5803F14D0B0F5003F0FD115E0EA6D96
:1022F000DAF8001021F4E0411143CAF80010E5E7D4
:10230000B0F5802F0ED0B0F5A02F0BD001240AE03D
:102310000198012101F0E6FC03E00098012101F0A1
:1023200071FD044694B126462888C04340042AD44F
:10233000D5F8AC00B0F1405F23D010DC08B3B0F1A9
:10234000805F14D0B0F1005F0FD115E02A6EDAF88B
:10235000001021F4E0211143CAF80010E4E7B0F1C5
:10236000804F0ED0B0F1A04F0BD001240AE00198AD
:10237000012101F0B7FC03E00098012101F042FDCA
:10238000044674B126462888C04300041FD4E86E72
:10239000D8B1B0F1805F0ED0B0F1005F10D0012451
:1023A00014E0D5F8AC20D8F8001021F0E04111433A
:1023B000C8F80010E7E7386840F40030386004E0FF
:1023C0000198012101F08EFC044674B1264628686C
:1023D000C043C0011ED4A86CD0B101280ED0022881
:1023E00011D0032814D0012413E0EA6EDAF80010AB
:1023F00021F040511143CAF80010E8E7386840F472
:102400000030386004E00198022101F06BFC0446C2
:102410006CB126462868C043400255D41F48016865
:1024200041F480710160FFF709FC81460EE0AA6C5F
:10243000DBF8001021F003011143CBF80010E9E7AD
:10244000FFF7FCFBA0EB090064283BD813480068A9
:10245000C005F5D5BCBBDFF84090B5F8B01009F168
:102460004409D9F8000001F4407100F4407088423A
:1024700011D0D9F80010D9F8002021F4407142F4AD
:102480008032C9F80020D9F8002022F48032C9F83F
:102490000020C9F8001003E02C44025800480258FC
:1024A000D5F8B000B0F5807F19D1FFF7C7FB0290D7
:1024B00011E000BFFFF7C2FB0299411A41F28830D8
:1024C000814208D9032426462878DFF81494C043B3
:1024D000C00721D03CE0D9F800008007EAD5D5F844
:1024E000B010C1F301200328FE480DD0016821F48B
:1024F0007C510160B5F8B020D9F80010C2F30B028E
:102500001143C9F80010DFE7F74A036802EA111225
:1025100023F47C511143ECE7A86F182816D005DC92
:10252000A0B1082808D0102804D10AE020280DD036
:1025300028280BD001240AE00198012101F0D2FBE8
:1025400003E00098012101F05DFC044664B12646D9
:102550002878C04380071ED4686F062819D2DFE8A8
:1025600000F0160C11161616AA6FD9F8001021F0FB
:1025700038011143C9F80010EAE70198012101F080
:10258000B1FB03E00098012101F03CFC04467CB162
:1025900000E0012426462878C04340071FD4D5F820
:1025A0009000062819D2DFE800F0160C1116161656
:1025B0006A6FD9F8001021F007011143C9F8001023
:1025C000E9E70198012101F08DFB03E0009801216A
:1025D00001F018FC0446A4B100E001242646287846
:1025E000C04380062BD4D5F88C00B0F1405F24D0D6
:1025F00011DC10B3B0F1805F15D0B0F1005F10D1E5
:1026000016E0D5F89020D8F8001021F0070111430A
:10261000C8F80010E3E7B0F1804F0ED0B0F1A04F42
:102620000BD001240AE00198002101F05BFB03E0DC
:102630000098022101F0E6FB044694B12646287872
:10264000C04340062BD4D5F89800B0F5406F24D095
:1026500011DC10B3B0F5806F15D0B0F5006F10D15C
:1026600016E0D5F88C20D9F8001021F0E041114394
:10267000C9F80010E3E7B0F5805F0ED0B0F5A05FB9
:102680000BD001240AE00198002101F02BFB03E0AC
:102690000098022101F0B6FB044694B12646287842
:1026A000C04300062BD4D5F89C00B0F5C04F24D011
:1026B00011DC10B3B0F5005F15D0B0F5804F10D12C
:1026C00016E0D5F89820D8F8001021F4E051114315
:1026D000C8F80010E3E7B0F5004F0ED0B0F5204F7A
:1026E0000BD001240AE00198002101F0FBFA03E07D
:1026F0000098022101F086FB044654B12646287852
:10270000C04300071ED4D5F88000B0F5805F0AD022
:102710000FE0D5F89C20D8F8001021F46041114357
:10272000C8F80010EBE70098022101F06BFB00B144
:102730000126D5F88020D9F8001021F4405111432A
:10274000C9F800102878C043C00613D4D5F8940007
:10275000B0F5807F05D10098022101F053FB00B154
:102760000126D5F89420D8F8001021F440711143C7
:10277000C8F800102868C043000316D4D5F8A0009C
:1027800038B1B0F5803F09D0B0F5003F0BD001243F
:102790000AE00198002101F0A5FA03E00098022167
:1027A00001F030FB04468CB126462868C043400344
:1027B00022D4D5F88400B0F5801F11D0B0F5001FE9
:1027C00013D0B0F5401F15D0012414E0D5F8A02097
:1027D000D8F8001021F440311143C8F80010E4E7A4
:1027E000386840F40030386004E00098012101F0BE
:1027F00009FB04465CB126462868C043C0031CD4CC
:10280000286D70B1B0F5803F10D0012414E0D5F8E8
:102810008420D9F8001021F440111143C9F80010A8
:10282000EAE7386840F40030386004E0019802219B
:1028300001F058FA0446DCB126462868C0438000FF
:1028400005D40098022101F0DDFA00B101262868C4
:10285000C04380031BD4E86FB8B1B0F5807F10D0BF
:10286000B0F5007F11D0B0F5407F0ED001240DE00F
:102870002A6DDBF8001021F480311143CBF80010F1
:10288000DBE7386840F4003038607CB326462868BF
:10289000C043C00207D42A6FDAF8001021F00041CB
:1028A0001143CAF800102868C043800207D4AA6EFA
:1028B000DAF8001021F080711143CAF8001028687E
:1028C000C043400009D40748016821F40041016079
:1028D0000168D5F8B420114301602868C04306E0C0
:1028E0005444025810440258CFFFFF001DE007D4A3
:1028F0006A6DDBF8001021F040511143CBF8001055
:102900002868C043000208D4D5F88820D9F8001000
:1029100021F440011143C9F8001028790024C04374
:1029200000F00100204309D00EE0EA6FD9F8001052
:1029300021F440711143C9F80010A8E70198002163
:1029400001F0D0F900B106462879C04300F002003A
:10295000204305D10198012101F0C4F900B10646D8
:102960002879C04300F00400204305D101980221DA
:1029700001F0B8F900B106462879C04300F008001C
:10298000204305D10098002101F03CFA00B1064631
:102990002879C04300F01000204305D100980121A0
:1029A00001F030FA00B106462879C04300F020005B
:1029B000044304D10098022101F024FA00B916B1B1
:1029C0000120BDE8FE8F0020FBE700002DE9F05F4D
:1029D00004000F467ED0DFF83882D8F8000000F0FF
:1029E0000F00B8420CD2D8F8001021F00F01394383
:1029F000C8F80010D8F8000000F00F00B84269D104
:102A00002078844D40070AD52069296801F07001BB
:102A1000884204D9296821F0700101432960207897
:102A20007C4E361D00070AD56069316801F07001DF
:102A3000884204D9316821F0700101433160207867
:102A4000C0060AD5A069316801F4E061884204D962
:102A5000316821F4E061014331602078DFF8B4B1DE
:102A600080060BF1080B0CD5E1695846DBF8002015
:102A700002F07002914204D9026822F070020A4307
:102A80000260207880070AD5E068296801F00F010C
:102A9000884204D9296821F00F0101432960207878
:102AA000C0073ED05B49A2682868183920F47060DE
:102AB000104328606068022818D0032819D00968DC
:102AC000012819D0490700294ADADFF848A1AAF1FC
:102AD000080A00E044E0DAF8002022F0070202438E
:102AE000CAF80020FFF7AAF8814612E009688903B6
:102AF000E9E709688901E6E7C905E4E7FFF79EF819
:102B0000A0EB090141F28830814202D90320BDE8DF
:102B1000F09F6168DAF8000000F03800B0EBC10FF8
:102B2000ECD1207880070AD5E068296801F00F0110
:102B3000884204D2296821F00F0101432960D8F8A6
:102B40000010404601F00F01B9420BD9016821F095
:102B50000F0139430160006800F00F00B84201D056
:102B60000120D4E7207840070AD52069296801F0C0
:102B70007001884204D2296821F070010143296064
:102B8000207800070AD56069316801F07001884239
:102B900004D2316821F07001014331602078C00611
:102BA0000AD5A069316801F4E061884204D2316835
:102BB00021F4E06101433160207880060CD5E169A1
:102BC0005846DBF8002002F07002914204D20268FD
:102BD00022F070020A43026000F06CF80E492A6885
:102BE0002B68C2F3032203F00F038A5CC95C02F076
:102BF0001F0201F01F01D040084A20FA01F11160C4
:102C00000749086007480068BDE8F05FFFF752B861
:102C100000200052184402583E49000810000024C9
:102C20000C0000240400002430B500F043F80B4AE7
:102C30000B490C4B15681468C5F3032204F00F040C
:102C40008A5C095D02F01F0201F01F01D040064AB4
:102C500020FA01F119601060084630BD184402588E
:102C60003E490008100000240C00002400B5FFF7C6
:102C7000DBFF05490968054AC1F30211515C01F007
:102C80001F01C84000BD00001C4402583E49000816
:102C900000B5FFF7C9FF05490968054AC1F30221DC
:102CA000515C01F01F01C84000BD00001C440258E7
:102CB0003E490008454970B545480968434B103BFB
:102CC00011F0380208D00111082A03D0102A0BD0C5
:102CD000182A0BD0084670BD19688906FBD51968FB
:102CE000C1F3C101C84070BD3A4870BD3749374D86
:102CF00018310C1D24350A68096826682D6802F011
:102D0000030406F00102C1F30511C5F3CC0515FB60
:102D100002F200EE102AB8EE400AE9B32F4ADFEDC6
:102D20002E0AB7EE001A6CB1DFED2D1A012C01D07E
:102D3000022C43D002EE101A1068F8EE422A81EEFF
:102D4000A22A1EE01C68A40611D51B6801EE901A89
:102D50001168C3F3C103F8EE612AD84001EE900A6E
:102D6000C1F30800F8EE611A81EEA22A0BE001EE31
:102D7000901ADFED1C2A00BFF8EE611A106882EE8F
:102D8000A12AC0F3080001EE900AF8EE611A40EEA5
:102D9000201A31EE810A00E015E022EE000A1068E8
:102DA000C0F34620401C00EE900AF8EE600A80EE68
:102DB000201ABCEEC10A10EE100A70BD01EE901A86
:102DC000DFED092AD8E7002070BD0000104402584A
:102DD0000090D00300366E010000003930440258E4
:102DE0000024744A0024744C001BB74B2DE9F05F9B
:102DF00004007DD0FF4F2078FE4D1837DFF8F483B4
:102E0000103DC00748D0D8F80000396800F03800FD
:102E1000102815D0182803D101F0030002280FD084
:102E20006068B0F5803F12D010B1B0F5A02F18D077
:102E3000286820F480302860286820F4802009E089
:102E40002868800328D560680028D2D024E028684C
:102E500040F480302860606888B1FEF7EFFE0646D7
:102E600009E0286840F480202860F0E7FEF7E6FEDD
:102E7000801B64287ED828688003F7D50CE0FEF715
:102E8000DDFE064605E000BFFEF7D8FE801B642885
:102E9000F0D828688003F7D42078800756D5D8F872
:102EA0000000DFF85093396810F03800A9F10C09E0
:102EB0000ED0182801D188070AD0E068A8B3296885
:102EC00021F0190101432960FEF7B8FE064628E00B
:102ED0002868400702D5E06800288AD0E1682868A1
:102EE00020F0190008432860FEF7A8FE064606E019
:102EF000D2E000BFFEF7A2FE801B0228BAD82868E5
:102F00004007F7D5217CD9F8002022F0FE4242EAA2
:102F10000161C9F8001019E0FEF790FE801B02283D
:102F2000A8D828684007F7D5ECE7FFE7286820F025
:102F300001002860FEF782FE064604E0FEF77EFEF2
:102F4000801B022896D828684007F7D42078C0064E
:102F500046D5D8F80000DFF89C92396800F03800B8
:102F6000A9F10409082812D0182805D101F003009E
:102F7000012800E0CEE00AD0E0690028286820D0CF
:102F800040F080002860FEF759FE064615E02868EC
:102F9000C00502D5E06980287ED194F82010D9F8C8
:102FA000002022F07C5242EA0161C9F8001017E0CB
:102FB000FEF744FE801B0228A0D82868C005F7D57C
:102FC000EBE720F080002860FEF738FE064604E0BC
:102FD000FEF734FE801B022890D82868C005F7D47D
:102FE0002078000729D5834861696430002981462B
:102FF000016811D041F001010160FEF71FFE064695
:1030000005E000BFFEF71AFE801B022888D8D9F819
:1030100000008007F6D510E021F001010160FEF705
:103020000DFE064605E000BFFEF708FE801B0228E5
:1030300070D8D9F800008007F6D42078800623D510
:10304000A0690028286810D040F480502860FEF75E
:10305000F5FD064605E000BFFEF7F0FD801B0228E7
:1030600058D828688004F7D50EE020F480502860F6
:10307000FEF7E4FD064604E0FEF7E0FD801B0228B3
:1030800048D828688004F7D42078400751D5DFF865
:103090006891D9F8001000E015E141F48071C9F899
:1030A0000010FEF7CBFD064605E000BFFEF7C6FDAB
:1030B000801B64282ED8D9F80000C005F6D54D4EE7
:1030C000A068603601280AD008B1052813D03068FE
:1030D00020F001003060306820F0040002E0306829
:1030E00040F001003060A06841F2883A98B1FEF7E4
:1030F000A5FD81460AE0306840F004003060EEE74C
:10310000FEF79CFDA0EB0901514503D8306880070C
:10311000F6D50EE072E0FEF791FD814606E000BFB5
:10312000FEF78CFDA0EB0901514567D83068800798
:10313000F6D4606A00287CD0DFF8B8A0D8F8001078
:103140000AF1200A4FF6F87B0AF10408C1F3C20124
:103150000329AAF104096DD00228286820F08070A4
:10316000286003D0FEF76AFD044681E0FEF766FDA5
:10317000064604E0FEF762FD801B022875D8286829
:103180008001F7D4E26A40F2F331386854F8283FFE
:10319000884340EA021018433860217B4FF4FE0C4C
:1031A00022894FF0FE47208A4902267D521E401E8A
:1031B000A1F5007189B2C2F308021143761E0CEA30
:1031C00000400143484607EA06621143CAF800106E
:1031D000D9F8001021F00101C9F80010D8F800302A
:1031E000266A23EA0B0343EAC601C8F80010D9F89F
:1031F000001004E0104402580048025835E0A2696B
:1032000021F00C011143C9F800100168E26921F0B6
:10321000020111430160016841F4803101600168DD
:1032200041F400310160016841F4802101600168CE
:1032300001E06CE020E041F001010160286840F00D
:1032400080702860FEF7FAFC044604E0FEF7F6FC06
:10325000001B022809D828688001F7D557E000BF75
:10326000FEF7ECFC001B022802D90320BDE8F09F0A
:1032700028688001F4D44AE039680128DAF80000AF
:1032800021D0A26A01F0030393421CD1E26AC1F388
:1032900005118A4217D1216BC0F30802491E8A42E8
:1032A00011D1616BC0F34622491E91420BD1A16B33
:1032B000C0F30642491E914205D1E16BC0F306609E
:1032C000491E814201D00120D0E7A16C4646D8F8C2
:1032D0000000C0F3CC00814219D0D9F800004D465F
:1032E00020F00100C9F80000FEF7A8FC4FEA000733
:1032F000FEF7A4FCB842FBD0A26C306820EA0B00B9
:1033000040EAC2003060286840F0010028600020D8
:10331000ACE7401EB0F1807F10B501D3012010BD95
:103320004FF0E02460610F21601701F00EFA0020D9
:10333000A0610721216110BD30B590F884100129EA
:1033400018D0012280F884202421C0F8881000229F
:10335000202401680B680D6823F0005325F0010557
:103360000D60426601680B60C0F8884080F88420D8
:10337000104630BD022030BD2DE9F05F04468C4878
:10338000DFF82CC240238B4D8A4E8A4F18350068D7
:1033900030364837DFF81C82401CCCF80000D4F8E7
:1033A000800008F16008DFF80C92DFF808A2814A7B
:1033B00009F1780900680AF1A80AD0F800C0DFF81E
:1033C000F8B15FEA0C3C78D4904233D0A84231D0B7
:1033D000B0422FD0B8422DD040452BD0484529D0FF
:1033E000DFF8D0C10CF1900C604523D0504521D0BE
:1033F000DFF8C4C1ACF1900C60451BD0DFF8B8C158
:10340000ACF1780C604515D0DFF8ACC1ACF1600CC4
:1034100060450FD0DFF8A0C1ACF1480C604509D081
:10342000DFF894C1ACF1300C604503D0DFF888C1FF
:10343000ACF1180CD0F800C02CF0010CC0F800C0A2
:10344000D4F880005B4A0068D0F800C04CF4002C2F
:1034500077E0A8427CD0B0427AD0B84278D04045DC
:1034600076D0484574D0534A9032904270D050453F
:103470006ED0514A903A90426AD04F4A783A904280
:1034800066D04D4A603A904262D04B4A483A9042E8
:103490005ED0494A303A90425AD0474A183A57E0EB
:1034A000464901F1800001F070F954E005E001683F
:1034B00041F001010160BDE8F09F904233D0A84285
:1034C00031D0B0422FD0B8422DD040452BD0484506
:1034D00029D0DFF8E0C00CF1900C604523D05045B6
:1034E00021D0DFF8D4C0ACF1900C60451BD0DFF8E0
:1034F000C8C0ACF1780C604515D0DFF8BCC0ACF1A9
:10350000600C60450FD0DFF8B0C0ACF1480C6045EE
:1035100009D0DFF8A4C0ACF1300C604503D0DFF86F
:1035200098C0ACF1180CD0F800C02CF0010CC0F819
:1035300000C0D4F880001F4A0068D0F800C02CF406
:10354000002CC0F800C0D4F880000068904280D100
:1035500043602029A4D0D4F880001649006888422E
:10356000A5D0A842A3D0B042A1D0B8429FD0404538
:103570009DD048459BD00F499031884297D0504507
:1035800095D00D499039884291D00B4978398842BD
:103590008DD009496039884289D007494839884225
:1035A00085D005493039884281D0034918397EE7F2
:1035B0001400002410000240A0040240B8010024BE
:1035C000704770B5044690F8840001281DD0012290
:1035D00084F884202420C4F88800206805680268E4
:1035E00022F0010202602068826822F060620A43D1
:1035F0008260204600F062FD2268202100201560D4
:10360000C4F8881084F8840070BD022070BD70B5C5
:10361000044690F8840001281DD0012284F88420FB
:103620002420C4F8880020680568026822F001029E
:1036300002602068826822F060420A43826020466D
:1036400000F03CFD2268202100201560C4F888109D
:1036500084F8840070BD022070BD704770477047C9
:103660002DE9F04107680025044640F60F030226C5
:10367000F8693968BA6818420AD183067ED501F024
:10368000200302F0805C53EA0C0377D0616F7EE187
:10369000D44BDFF854C3134001EA0C0C53EA0C0C72
:1036A0006CD05FEAC07C0CD05FEAC15C09D54FF0FA
:1036B000010CC7F820C0D4F8907047F00107C4F897
:1036C0009070870709D5D70707D027683E62D4F8DE
:1036D000906046F00406C4F8906046070AD5D60705
:1036E00008D0276804263E62D4F8906046F00206AF
:1036F000C4F8906006070CD501F020061E4308D0E0
:10370000266808233362D4F8903043F00803C4F8E5
:10371000903003050BD54B0109D526684FF40063A3
:103720003362D4F8903043F02003C4F89030D4F8DA
:103730009030002B3DD0800609D501F0200002F02A
:103740008051084303D0616F09B120468847216842
:10375000D4F890008968490602D410F0280F2AD0C6
:10376000204600F08FFD2068806840061ED5206846
:10377000083050E8001F21F0400100E021E040E85F
:103780000012002AF3D1D4F8800078B1974901657E
:10379000D4F88000FDF7B0FA00280AD0D4F88000F1
:1037A000016D00E02046BDE8F04108472046FFF7E4
:1037B00056FFBDE8F0812046FFF751FFC4F8905056
:1037C000F7E7D4F86CC02023BCF1010F7ED15FEA8B
:1037D000C06C7BD55FEAC16C78D510203862206858
:1037E0008068400673D5D4F88020814910688842EB
:1037F00034D07F491831884230D07D4930318842F9
:103800002CD07B494831884228D0794960318842A0
:1038100024D077497831884220D075499031884248
:103820001CD07349A831884218D07249884215D0FB
:1038300070491831884211D06E49303188420DD01C
:103840006C494831884209D06A496031884205D0C4
:1038500068497831884201D06649903140684FF418
:1038600080770004000C40D0B4F85C1081423CD951
:10387000A4F85E00D069B8422FD0216851E8000F4B
:1038800020F4807041E80002002AF6D12068083058
:1038900050E8001F21F0010140E80012002AF5D194
:1038A0002068083050E8001F21F0400140E8001275
:1038B000002AF5D1C4F88C30E566206850E8001F76
:1038C00021F0100140E80012002A01E04AE019E06E
:1038D000F3D1D4F88000FDF75FF82667B4F85C00F8
:1038E000B4F85E10401A81B208E0B4F85C1081426E
:1038F0007FF466AFD069B842FAD126672046FFF759
:103900003BFD56E7B4F85C00B4F85E10B4F85E20F6
:10391000401A81B2002AF4D00029F2D0226852E87D
:10392000000F20F4907042E80007002FF6D1324FCC
:10393000206800F1080050E8002F02EA070240E882
:10394000002CBCF1000FF3D1C4F88C30E56665673C
:10395000226852E8000F20F0100042E80003002B1C
:10396000F6D1CAE7C60209D5560207D54FF4801032
:1039700038622046BDE8F041FFF770BE06060AD562
:1039800001F0800602F40002164304D0A16F002962
:103990007FF408AF0DE7420611D54A060FD5204641
:1039A000016851E8002F22F0400241E80024002C79
:1039B000F6D1C0F88830856700F0F2F8F9E6020227
:1039C00006D54A0004D52046BDE8F041FFF745BEC4
:1039D000C00196D5002994DA2046BDE8F041FFF7F2
:1039E000EFBD000001000010200100047342000838
:1039F0001000024010040240FEFFFFEF10B504006B
:103A000003D0D4F8880010B107E0012010BD0020D9
:103A100084F88400204600F027F82420C4F88800A9
:103A20002068016821F001010160A06A10B1204600
:103A300000F066FB204600F04FFC0128E6D020682D
:103A4000416821F4904141602068816821F02A0199
:103A500081602068016841F0010101602046BDE8F5
:103A6000104000F0B1BB00002DE9F041B4B00646B3
:103A700014212EA8FCF782FCB8216846FCF77EFCD6
:103A800041490227306800243E4D4FF00708884224
:103A90004CD100201D940221CDE900106846FEF7AC
:103AA000F7FA08B1FCF727FE36480830016841F004
:103AB00080410160006800F080403390286840F049
:103AC0001000286028684FF4C0712E912EA900F0D4
:103AD0001000CDE92F743194CDE932802B48FDF7E9
:103AE0009FFF2B4D4F212B48021528608315C5E9F8
:103AF0000114C5E903426C614FF44030C5E9064347
:103B0000C5E908042846FDF7ADFD08B1FCF7F3FD53
:103B10000022C6F8805052201146AE63FEF706F927
:103B20005220FEF7F5F834B0BDE8F0811A4988421A
:103B3000F9D100201E940121CDE900106846FEF75E
:103B4000A7FA08B1FCF7D7FD0E481030016841F024
:103B500010010160006800F010003390286840F008
:103B60000100286028684FF4C0612E912EA900F052
:103B70000100CDE92F743194CDE932800748FDF77B
:103B80004FFFD0E7E0440258007800400010025890
:103B900040010024100002400010014000000258C3
:103BA0007047FEE7094808B5016841F0010101606E
:103BB00000680022114600F0010000900B20FEF783
:103BC000B5F8BDE808400B20FEF7A2B8D84402586B
:103BD0000D4808B5016841F080010160016801F0FD
:103BE00080010091016841F010010160016801F05D
:103BF00010010091016841F001010160006800F0CE
:103C00000100009008BD0000E044025870B5174D57
:103C10000C23174800214FF4E1346A14C0E9021262
:103C2000C0E904138161C161016241628162C0E93E
:103C30000054FFF7E3FE08B1FCF75DFD0C480021DE
:103C4000FFF7E5FC08B1FCF756FD09480021FFF736
:103C5000B8FC08B1FCF74FFD0548FFF76DFB0028E5
:103C600003D0BDE87040FCF746BD70BD0078004051
:103C7000180000241848002110B5164C0C224FF4EF
:103C8000E1330460C0E90131C160C0E9041281611F
:103C9000C161016241628162FFF7B0FE08B1FCF7C9
:103CA0002AFD0D480021FFF7B2FC08B1FCF723FD07
:103CB00009480021FFF785FC08B1FCF71CFD064808
:103CC000FFF73AFB002803D0BDE81040FCF713BD16
:103CD00010BD000000100140AC000024FEE7FEE72C
:103CE000704700002DE9F047454D044689464FF0E6
:103CF000000A2868C04380070AD0414E283E306839
:103D000020F080603060FDF799FF0746B04608E07C
:103D10000120BDE8F08700BFFDF790FFC01B02281F
:103D200067D8D8F800000001F6D4206829684FF45D
:103D3000FE0721F47C313E0241EA00302860207AFF
:103D4000A389B4F804C040022D4D2D495B1E227C8E
:103D5000ACF1010C1035091DA0F5007080B2521EA7
:103D6000CCF3080C07EA034340EA0C00184306EAC8
:103D70000262104328600868626920F0C0001043A6
:103D800008600A68A06922F0200202430A60281D28
:103D90000A6822F010020A6002684FF6F873E469BC
:103DA0009A4342EAC40202600868B9F1000F40F089
:103DB00010020A6011D00868B9F1010F11D040F467
:103DC00000100860D8F80000444640F08060C8F851
:103DD0000000FDF733FF05460DE0086840F40020C1
:103DE000EFE740F48010ECE7FDF728FF401B0228C6
:103DF00001D903208DE720680001F5D5504688E7FA
:103E0000284402582DE9F047454D044689464FF0B5
:103E1000000A2868C04380070AD0414E283E306817
:103E200020F080503060FDF709FF0746B04608E0FB
:103E30000120BDE8F08700BFFDF700FFC01B02288E
:103E400067D8D8F800008000F6D4208829684FF49D
:103E5000FE0721F07C713E0241EA00502860207A82
:103E6000A389B4F804C040022D4D2D495B1E227C6D
:103E7000ACF1010C1835091DA0F5007080B2521E7E
:103E8000CCF3080C07EA034340EA0C00184306EAA7
:103E90000262104328600868626920F440601043A1
:103EA00008600A68A06922F4007202430A60281DB3
:103EB0000A6822F480720A6002684FF6F873E469B7
:103EC0009A4342EAC40202600868B9F1000F40F464
:103ED00080720A6011D00868B9F1010F11D040F06A
:103EE00080700860D8F80000444640F08050C8F860
:103EF0000000FDF7A3FE05460DE0086840F48000D1
:103F0000EFE740F40000ECE7FDF798FE401B0228C5
:103F100001D903208DE720688000F5D5504688E759
:103F200028440258034A40230348A2F14001FCF709
:103F3000C6BB0000F8010024180000247047FDF7FC
:103F400083BE000030B59DB04C216846FCF716FAE0
:103F5000202113A8FCF712FA0220FDF719FF1D48D3
:103F6000016821F4404101600168002401F44041EE
:103F70001B9101688904FCD502200A90282309902E
:103F8000C20301210C25CDE90012CDE90B03CDE9D7
:103F90000D10CDE910540F9068461294FEF726FFDD
:103FA00008B172B6FEE740201A9008230501CDE95A
:103FB000163013ABCDE918053F21032283E8160024
:103FC00013A81146FEF702FD002801D072B6FEE7E5
:103FD0001DB030BD184802582D48F0B52D4A016873
:103FE00041F470010160106800F00F00072804D24E
:103FF000106820F00F00C01D106027490020264CDB
:1040000010340B68254D43F001030B6020600B68F2
:104010002B400B60136803F00F03072B04D91368C0
:1040200023F00F03DB1D13601B4C1D4A18341D4B7E
:10403000261D371D2060184C1B4D28343060261D6E
:104040003860371D23603B1D35601C1D3A60251DFF
:104050002E1D1860331D22602860326018600B68C6
:104060000D4A0D4C23F48023D4320B606034206061
:104070001068C0040BD4136843F2D2000B4943F418
:10408000805313600860106820F480501060F0BD09
:1040900088ED00E000200052004402587FEDF6EA6F
:1040A00080020101000202020000FF0100400052F4
:1040B0000148FFF7D5BA00001800002430B5416E62
:1040C000B9B101680D4B03F108048A688968C2F32D
:1040D0004262490F5D5C615C2D01B5FBF1F1A0F816
:1040E0006A10995CA25C0901B1FBF2F1A0F86810BA
:1040F00030BD0121A0F86A10F8E700002E49000841
:1041000090F82810090706D50168836B4A6822F4E5
:1041100000421A434A6090F82810C90706D0016887
:10412000C36A4A6822F400321A434A6090F82810A1
:10413000890706D50168036B4A6822F480321A4366
:104140004A6090F82810490706D50168436B4A6811
:1041500022F480221A434A6090F82810C90606D536
:104160000168C36B8A6822F480521A438A6090F80F
:104170002810890606D50168036C8A6822F400526B
:104180001A438A6090F82810490611D50168436CDB
:104190004A6822F480121A434A60416CB1F5801FCC
:1041A00006D10168836C4A6822F4C0021A434A604F
:1041B00090F82810090606D50168C26C486820F4FA
:1041C00000201043486070472DE9F843002504465D
:1041D000C0F89050FDF732FD8046206820266FF031
:1041E0007E470068000713D500224346310420466D
:1041F000009700F05FFA58B1216851E8000F20F0F5
:10420000800041E80002002AF6D1C4F8886021E06D
:1042100020680068400722D5002243464FF4800101
:104220002046009700F046FAC8B1206850E8001F09
:1042300021F4907140E80012002AF6D1206808307D
:1042400050E8001F21F0010140E80012002AF5D1DA
:10425000C4F88C60032084F88450BDE8F883C4F867
:104260008860C4F88C60E5662567002084F8845077
:10427000F3E710B5806B0021A0F85E10FFF7EFF9AF
:1042800010BD000010B5026852E8001F21F49071C3
:1042900042E80013002BF6D10E4B0268083252E8B8
:1042A000001F194042E80014002CF6D1C16E01290C
:1042B00008D1026852E8001F21F0100142E8001303
:1042C000002BF6D100212022C0F88C20C166416766
:1042D00010BD0000FEFFFFEF2DE9F04304468068AB
:1042E000E24E87B0E24B2168D4E90427D4F81CC021
:1042F00010430A68002547EA0C073843324002435E
:104300000A602068E268416821F44051114341602D
:104310002268A1699A4201D0206A01439668DFF8B9
:1043200054C3D54FD54806EA0C060E439660216863
:10433000666ACA6A22F00F023243CA622268BA422F
:104340000ED1006800F0380018286FD07ADCB8B3BE
:1043500008286CD010286BD18BE0282868D18EE01B
:10436000C7498A4209D1006800F0070006285FD2D9
:10437000DFE800F0507D7F818385C2498A4209D100
:10438000006800F0070006287BD2DFE800F04370E9
:1043900072747678BC498A4209D1006800F007003F
:1043A00006286ED2DFE800F036636567696BB749AF
:1043B0008A420BD1006800F00700062861D200E0B5
:1043C00043E0DFE800F0275456585A5CB0498A426F
:1043D00006D1006800F0380018284CD0B7DD31E075
:1043E000AC498A4209D1006800F00700062848D28B
:1043F000DFE800F0103D3F414345A7498A420BD119
:10440000006800F0070006283BD2DFE800F0033028
:1044100032343638002035E0A0498A4209D100689C
:1044200000F03800182826D091DD0BE023E01EE0D4
:1044300027E09B498A420AD1006800F0380018281A
:1044400019D084DD202888D11CE001201AE09A428E
:1044500017D18A48001D006800F00700062810D216
:10446000DFE800F0030507090B0D02200AE0042035
:1044700008E0082006E0102004E0202002E04020B0
:1044800000E080208749DFF820829A42874A4FF473
:1044900000434FEA21174FF000064ED110281AD0E2
:1044A00006DC022809D004280BD008287ED10DE0B4
:1044B00020283ED0402879D13DE0FDF793FC01460D
:1044C00010E06846FDF7A0FC01990BE003A8FDF79A
:1044D0003DFD049906E01068800605D51068C0F31C
:1044E000C100C140002970D0606A676838F81020A8
:1044F00007EB4703B1FBF2F0834257D8B0EB073F1D
:1045000054D8002308461946FBF700FF02467808F6
:10451000130E120243EA012110183A46714100239A
:10452000FBF7F4FE624AA0F5407191423ED8216843
:104530008FE03946D8E71946D6E7D4F81CC04FF6C5
:10454000EF799C4546D1082819D005DC58B10128DF
:104550000CD0042875D10DE0102815D0202835D0B6
:1045600040286ED134E0FEF781FB01E0FEF790FBBE
:10457000014610E06846FDF747FC01990BE003A8EF
:10458000FDF7E4FC049906E01068800604D5106885
:10459000C0F3C100C140C1B1636A606838F813302C
:1045A000B1FBF3F1490001EB500100E049E0B1FB40
:1045B000F0F0A0F11001494543D84FF6F07321689F
:1045C000C0F342021840104343E043E03946E3E7BA
:1045D0001946E1E7082819D005DC58B101280CD0AC
:1045E00004282ED10DE0102815D020282BD04028EB
:1045F00027D12AE0FEF73AFB01E0FEF749FB01462E
:1046000010E06846FDF700FC01990BE003A8FDF7F8
:104610009DFC049906E01068800604D51068C0F37C
:10462000C100C140B1B1636A606838F81330B1FBB2
:10463000F3F101EB5001B1FBF0F0A0F1100149459D
:1046400005D9012506E03946EDE71946EBE7216873
:1046500080B2C8600120A4F86A00A4F86800284667
:104660006667A66707B0BDE8F0830000F369FFCF77
:10467000000C0058FFF4FF11001001405444025890
:104680000044004000480040004C00400050004002
:104690000014014000780040007C004000180140F8
:1046A000001C01400090D003164900080044025845
:1046B000FFFC0F002DE9F047994617460D460446CA
:1046C000089E4FF0000833E0701C31D0FDF7B6FAB9
:1046D000A0EB0900B04218D8BEB1206801684907B4
:1046E00026D5802D24D0402D22D0C169C943090789
:1046F0000DD4082505622046FFF7C4FDC4F890508C
:10470000012084F88480BDE8F0870320FBE7C069BE
:10471000C04300050CD421684FF4006008622046B5
:10472000FFF7B0FD2021C4F8901084F88480ECE7F6
:104730002068C06935EA000004D00020B842C3D028
:104740000020E0E70120F9E7FEE7090700284FEA2B
:10475000116104DB00F1E02080F80014704700F0E4
:104760000F0000F1E02080F8141D704702E008C837
:10477000121F08C1002AFAD170477047002001E0DB
:1047800001C1121F002AFBD1704770B50A784FF0A3
:10479000FF344FF00003202A14D14A78402A11D167
:1047A00000228D5C521CD2B22B449BB21E2AF8D33D
:1047B000CE7F4FF6FF758A7F6B4002EB062292B2E6
:1047C000934201D0204670BDCA788B7802F00F0268
:1047D00003EB022202804B790A7903F00F0302EB0C
:1047E00003224280CA798B7902F00F0203EB022286
:1047F00082804A7A0B7A02F00F0203EB0222C28017
:10480000CA7A8B7A02F00F0203EB022202814A7B02
:104810000B7B02F00F0203EB02224281CA7B8B7BEF
:1048200002F00F0203EB022282814A7C0B7C02F031
:104830000F0203EB0222C281CB7C8A7C03F00F03C0
:1048400002EB032202824A7D0B7D02F00F0203EB92
:1048500002224282CA7D8B7D02F00F0203EB02220C
:1048600082824B7E0A7E03F00F0302EB0322C28298
:10487000CB7E8A7E03F00F0302EB032202834B7F81
:104880000A7F03F00F0302EB032242834A79CB78BD
:10489000CC7902F0F00242EA131204F0F00342EA8B
:1048A00003128283CA7A4B7A4C7B02F0F00242EA0E
:1048B000131204F0F00342EA0312C2834A7CCB7B5A
:1048C000CC7C02F0F00242EA131204F0F00342EA58
:1048D00003120284CA7D4B7D497E02F0F00201F092
:1048E000F00142EA131242EA01114184002070BD36
:1048F000FDF7B2F9FFF726FBFFF76AF9FFF752F968
:10490000FFF784F9FFF7B6F9FFF70CFBFEE70006A7
:104910001016000610160100020004000600080030
:104920000A000C001000200040008000000101017E
:10493000010307010000080402040801010100004E
:104940000000010203040102030406070809000035
:104950007049000800000024180000006C4700089F
:104960008849000818000024480600007C47000819
:104970000100000010000000000000000090D003C3
:084980000090D00300000000CC
:04000005080002CD20
:00000001FF
